:100000000C942A000C943F000C943F000C943F0089
:100010000C943F000C943F000C943F000C943F0064
:100020000C943F000C943F000C943F000C943F0054
:100030000C943F000C943F000C943F000C943F0044
:100040000C943F000C943F000C943F000C943F0034
:100050000C943F0011241FBECFE5D8E0DEBFCDBF1A
:1000600010E0A0E6B0E0EEECFDE202C005900D92DB
:10007000A837B107D9F70E94540D0C94E5160C94DB
:100080000000EF92FF920F931F937B018C0120E001
:1000900030E040E05FE40E94410388238CF0C80117
:1000A000B70120E030E040E05FE40E94B9010E9427
:1000B000A1039B01AC01205030404040504806C095
:1000C000C801B7010E94A1039B01AC01B901CA019B
:1000D0001F910F91FF90EF900895A0E0B0E0E3E74B
:1000E000F0E00C94AE16DC012B01FA019C919230E9
:1000F00008F439C1EB018881823008F433C19430AF
:1001000069F4843009F02FC111969C91119789816F
:10011000981709F428C1A8E6B0E025C1843009F495
:1001200021C18230A9F4923009F01DC19A01AD01BC
:1001300088E0EA010990AE01E90109929E0181502F
:10014000C1F7E201898111969C918923818308C1BD
:10015000923009F407C112962D903C901397EB0151
:100160008A819B811496AD90BD90CD90DC901797BD
:10017000EC80FD800E811F819101281B390BB90194
:1001800037FF04C066277727621B730B6032710547
:100190000CF061C0121613066CF537014801062EEB
:1001A00004C096948794779467940A94D2F721E0D8
:1001B00030E040E050E004C0220F331F441F551FC1
:1001C0006A95D2F721503040404050402E213F21C7
:1001D00040235123211531054105510521F021E02E
:1001E00030E040E050E079018A01E628F72808294C
:1001F00019293CC0232BD1F1260E371E35014601AB
:10020000062E04C096948794779467940A94D2F744
:1002100021E030E040E050E004C0220F331F441FD3
:10022000551F6A95D2F721503040404050402A2156
:100230003B214C215D21211531054105510521F05E
:1002400021E030E040E050E059016A01A628B728DB
:10025000C828D9280BC0821593052CF01C01AA24AC
:10026000BB24650103C0EE24FF24870111969C91F5
:10027000D20111968C91981709F445C0992339F051
:10028000A80197012A193B094C095D0906C0A6017E
:1002900095012E193F09400B510B57FD08C01182E3
:1002A0003382228224833583468357831DC081E0B5
:1002B00081833382228288279927DC01821B930B5A
:1002C000A40BB50B84839583A683B7830DC0220F3F
:1002D000331F441F551F24833583468357838281F0
:1002E000938101979383828324813581468157814D
:1002F000DA01C9010197A109B1098F5F9F4FAF4F83
:10030000BF4328F30BC0918333822282EA0CFB1C8B
:100310000C1D1D1DE482F5820683178383E0808314
:10032000248135814681578157FF1AC0C901AA2708
:1003300097FDA095BA2F81709070A070B0705695FF
:10034000479537952795822B932BA42BB52B848328
:100350009583A683B7838281938101969383828359
:10036000DF0101C0D201CD01CDB7DEB7E2E10C94CF
:10037000CA16A0E2B0E0EFEBF1E00C94BA16698384
:100380007A838B839C832D833E834F835887E9E058
:10039000EE2EF12CEC0EFD1ECE010196B7010E944F
:1003A000CA048E010F5E1F4FCE010596B8010E9450
:1003B000CA048A8991E089278A8BC701B801AE01F6
:1003C000475E5F4F0E946D000E94F503A096E6E035
:1003D0000C94D616A0E2B0E0E0EFF1E00C94BA166F
:1003E00069837A838B839C832D833E834F835887D5
:1003F000F9E0EF2EF12CEC0EFD1ECE010196B701B7
:100400000E94CA048E010F5E1F4FCE010596B801EF
:100410000E94CA04C701B801AE01475E5F4F0E9447
:100420006D000E94F503A096E6E00C94D616A0E2BB
:10043000B0E0EDE1F2E00C94AE1669837A838B8331
:100440009C832D833E834F835887CE010196BE0146
:10045000675F7F4F0E94CA04CE010596BE016F5EA2
:100460007F4F0E94CA049985923088F08989823032
:10047000C8F0943019F4823051F404C0843029F467
:10048000923081F488E690E0C6C0923049F420E0D2
:100490009A858A89981321E02A87CE010996BBC0E4
:1004A000823049F420E09A858A89981321E02A8BCA
:1004B000CE014196B0C02D843E844F8458886D880B
:1004C0007E888F88988CEE24FF248701AA24BB2481
:1004D000650140E050E060E070E0E0E0F0E0C10184
:1004E00081709070892BE9F0E60CF71C081D191D2E
:1004F0009A01AB012A0D3B1D4C1D5D1D80E090E073
:10050000A0E0B0E0E614F7040805190520F481E046
:1005100090E0A0E0B0E0BA01A901480F591F6A1F9E
:100520007B1FAA0CBB1CCC1CDD1C97FE08C081E005
:1005300090E0A0E0B0E0A82AB92ACA2ADB2A3196C6
:10054000E032F10549F0660C771C881C991C569422
:10055000479437942794C3CFFA85EA892B893C893D
:100560008B859C85280F391F2E5F3F4F17C0CA010E
:1005700081709070892B61F016950795F794E79438
:1005800080E090E0A0E0B0E8E82AF92A0A2B1B2BD3
:1005900076956795579547952F5F3F4F77FDE7CF46
:1005A0000CC0440F551F661F771F17FD4160EE0CEE
:1005B000FF1C001F111F21503040403090E05907B0
:1005C00090E0690790E4790760F32B8F3C8FDB01A3
:1005D000CA018F779070A070B07080349105A1052A
:1005E000B10561F447FD0AC0E114F10401051105EC
:1005F00029F0405C5F4F6F4F7F4F40781A8EFE1797
:1006000011F081E08A8F4D8F5E8F6F8F78A383E02A
:10061000898FCE0149960E94F503A096E2E10C94E1
:10062000CA16A8E1B0E0E7E1F3E00C94BA166983DA
:100630007A838B839C832D833E834F83588789E005
:10064000E82EF12CEC0EFD1ECE010196B7010E94A2
:10065000CA048E010F5E1F4FCE010596B8010E949D
:10066000CA048985823040F08989823028F0C70128
:10067000B8010E94420501C08FEF6896E6E00C9435
:10068000D616A8E1B0E0E7E4F3E00C94BA1669836B
:100690007A838B839C832D833E834F83588789E0A5
:1006A000E82EF12CEC0EFD1ECE010196B7010E9442
:1006B000CA048E010F5E1F4FCE010596B8010E943D
:1006C000CA048985823040F08989823028F0C701C8
:1006D000B8010E94420501C08FEF6896E6E00C94D5
:1006E000D616A8E1B0E0E7E7F3E00C94BA16698308
:1006F0007A838B839C832D833E834F83588789E045
:10070000E82EF12CEC0EFD1ECE010196B7010E94E1
:10071000CA048E010F5E1F4FCE010596B8010E94DC
:10072000CA048985823040F08989823028F0C70167
:10073000B8010E94420501C081E06896E6E00C9491
:10074000D616ACE0B0E0E7EAF3E00C94BE1669839D
:100750007A838B839C83CE010196BE016B5F7F4FB2
:100760000E94CA048D81823061F1823050F1843060
:1007700021F48E81882351F12EC02F81388537FDD9
:1007800020C06E812F3131051CF06623F9F023C0A3
:100790008EE190E0821B930B29853A854B855C8521
:1007A00004C056954795379527958A95D2F76623C5
:1007B000B1F050954095309521953F4F4F4F5F4F89
:1007C0000EC020E030E040E050E009C02FEF3FEFE6
:1007D0004FEF5FE704C020E030E040E050E8B901AF
:1007E000CA012C96E2E00C94DA16DF92EF92FF92A7
:1007F0000F931F93FC01E480F58006811781D1805F
:100800008081823048F480E090E0A0E1B0E0E82A06
:10081000F92A0A2B1B2BA5C0843009F49FC0823013
:1008200021F4EE24FF24870105C0E114F104010541
:10083000110519F4E0E0F0E096C0628173819FEF4A
:10084000623879070CF05BC022E83FEF261B370BBC
:100850002A3131052CF020E030E040E050E02AC0A1
:10086000B801A701022E04C0769567955795479564
:100870000A94D2F781E090E0A0E0B0E004C0880FD5
:10088000991FAA1FBB1F2A95D2F70197A109B10989
:100890008E219F21A023B1230097A105B10521F04E
:1008A00081E090E0A0E0B0E09A01AB01282B392B69
:1008B0004A2B5B2BDA01C9018F779070A070B07062
:1008C00080349105A105B10539F427FF09C0205CEA
:1008D0003F4F4F4F5F4F04C0215C3F4F4F4F5F4F23
:1008E000E0E0F0E02030A0E03A07A0E04A07A0E412
:1008F0005A0710F0E1E0F0E079018A0127C0603882
:10090000710564F5FB01E158FF4FD801C7018F77EE
:100910009070A070B07080349105A105B10539F4D4
:10092000E7FE0DC080E490E0A0E0B0E004C08FE3FB
:1009300090E0A0E0B0E0E80EF91E0A1F1B1F17FFB1
:1009400005C016950795F794E794319687E01695BC
:100950000795F794E7948A95D1F705C0EE24FF2414
:100960008701EFEFF0E06E2F679566276795902F70
:100970009F77D794DD24D7948E2F8695492F462BC9
:10098000582F5D29B701CA011F910F91FF90EF9079
:10099000DF900895FC01DB01408151812281622FAB
:1009A0006F7770E0221F2227221F9381892F880FE3
:1009B000822B282F30E0991F9927991F11969C931D
:1009C000119721153105A9F54115510561057105ED
:1009D00011F482E037C082E89FEF13969C938E93C8
:1009E00012979A01AB0167E0220F331F441F551F76
:1009F0006A95D1F783E08C930DC0220F331F441FFB
:100A0000551F12968D919C911397019713969C9365
:100A10008E931297203080E0380780E0480780E40A
:100A2000580758F314962D933D934D935C93179765
:100A300008952F3F310579F4411551056105710580
:100A400019F484E08C93089564FF03C081E08C93D3
:100A500012C01C9210C02F57304013963C932E9317
:100A6000129783E08C9387E0440F551F661F771F12
:100A70008A95D1F7706414964D935D936D937C9332
:100A8000179708951F93DC01FB019C91923008F4A5
:100A900047C08081823008F443C0943051F41196ED
:100AA0001C91843099F58181682F70E0611B710978
:100AB0003FC0843021F0923031F48230B9F181812D
:100AC000882389F12DC011961C9111978230F1F085
:100AD00081811817D9F412962D913C911397828138
:100AE00093818217930794F028173907BCF0149666
:100AF0008D919D910D90BC91A02D248135814681D1
:100B00005781281739074A075B0718F4112341F06A
:100B10000AC082179307A407B50740F4112319F000
:100B200061E070E005C06FEF7FEF02C060E070E051
:100B3000CB011F910895DF93CF93CDB7DEB72E97EA
:100B40000FB6F894DEBF0FBECDBF80E062E041E09B
:100B50000E94E30980E090E0A0E0B0E48B879C87EE
:100B6000AD87BE876B857C858D859E8520E030E0D6
:100B70004AE755E40E941702DC01CB018F83988776
:100B8000A987BA876F81788589859A8520E030E0CA
:100B900040E85FE30E94710388232CF481E090E039
:100BA0009E838D833FC06F81788589859A8520E0FB
:100BB0003FEF4FE757E40E94110318164CF56B8581
:100BC0007C858D859E8520E030E040E251E40E94E6
:100BD0001702DC01CB01BC01CD010E944100DC0108
:100BE000CB019E838D830FC080E991E09C838B8332
:100BF0008B819C810197F1F79C838B838D819E81F2
:100C000001979E838D838D819E81009769F714C023
:100C10006F81788589859A850E944100DC01CB012E
:100C20009E838D838D819E819A83898389819A8118
:100C30000197F1F79A83898380E062E040E00E94A7
:100C4000E3092E960FB6F894DEBF0FBECDBFCF914D
:100C5000DF910895DF93CF930F92CDB7DEB78983ED
:100C60008981982F917081E064E0492F0E94E30907
:100C700089818695982F917081E065E0492F0E94C7
:100C8000E309898186958695982F917081E066E0C9
:100C9000492F0E94E3098981869586958695982F2C
:100CA000917081E067E0492F0E94E3090F90CF9196
:100CB000DF910895DF93CF930F92CDB7DEB789838D
:100CC00080E060E040E00E94E30980E061E040E015
:100CD0000E94E309898182958F700E942A060E94F2
:100CE0009B0589810E942A060E949B050F90CF9147
:100CF000DF910895DF93CF930F92CDB7DEB789834D
:100D000080E060E041E00E94E30980E061E040E0D3
:100D10000E94E309898182958F700E942A060E94B1
:100D20009B0589810E942A060E949B050F90CF9106
:100D3000DF910895DF93CF93CDB7DEB72E970FB62F
:100D4000F894DEBF0FBECDBF80E090E0A0E2B2E439
:100D50008B879C87AD87BE876B857C858D859E85BF
:100D600020E030E04AE755E40E941702DC01CB01A5
:100D70008F839887A987BA876F81788589859A85B7
:100D800020E030E040E85FE30E94710388232CF408
:100D900081E090E09E838D833FC06F817885898557
:100DA0009A8520E03FEF4FE757E40E9411031816A1
:100DB0004CF56B857C858D859E8520E030E040E29A
:100DC00051E40E941702DC01CB01BC01CD010E945D
:100DD0004100DC01CB019E838D830FC080E991E04F
:100DE0009C838B838B819C810197F1F79C838B8300
:100DF0008D819E8101979E838D838D819E81009739
:100E000069F714C06F81788589859A850E944100B1
:100E1000DC01CB019E838D838D819E819A838983A2
:100E200089819A810197F1F79A83898382E00E94F0
:100E30002A060E949B0582E00E942A060E949B05CA
:100E400088E00E942A060E949B058CE00E945A06B8
:100E500081E00E945A062E960FB6F894DEBF0FBEB0
:100E6000CDBFCF91DF910895DF93CF9300D000D015
:100E7000CDB7DEB79C838B831A828B819C810097D0
:100E8000E1F019820EC08981282F30E08B819C818E
:100E9000FC01E20FF31F80810E947A0689818F5F37
:100EA00089838981282F30E08B819C81FC01E20FAE
:100EB000F31F8081882339F702C082E08A838A8108
:100EC0000F900F900F900F90CF91DF910895DF93C7
:100ED000CF93CDB7DEB761970FB6F894DEBF0FBEE4
:100EE000CDBF6E877F87888B998B1A828E859F8571
:100EF000A889B9890097A105B10521F480E30E9472
:100F00007A0686C08E859F85A889B9891816190624
:100F10001A061B06D4F530C08E859F85A889B9892D
:100F20002AE030E040E050E0BC01CD010E947116A3
:100F3000DC01CB018B838A81282F332727FD309555
:100F40004B81CE010496FC01E20FF31F40838A819E
:100F50008F5F8A838E859F85A889B9892AE030E0D2
:100F600040E050E0BC01CD010E947116DA01C901D8
:100F70008E879F87A88BB98B8E859F85A889B98915
:100F80000097A105B10541F643C08DE20E947A06A3
:100F900037C08E859F85A889B989B095A095909511
:100FA00081959F4FAF4FBF4F2AE030E040E050E0C7
:100FB000BC01CD010E947116DC01CB018B838A81BB
:100FC000282F332727FD30954B81CE010496FC0155
:100FD000E20FF31F40838A818F5F8A838E859F850E
:100FE000A889B9892AE030E040E050E0BC01CD0199
:100FF0000E947116DA01C9018E879F87A88BB98B71
:101000008E859F85A889B9890097A105B10509F644
:101010008A818150898311C08981282F332727FD38
:101020003095CE010496FC01E20FF31F8081805DB4
:101030000E947A068981815089838981882364F797
:1010400061960FB6F894DEBF0FBECDBFCF91DF9192
:101050000895DF93CF9300D00F92CDB7DEB78A8388
:101060006B838B81882319F48A81898306C08B81E5
:10107000813019F48A81805C8983898180688983C1
:1010800089810E945A060F900F900F90CF91DF91A7
:101090000895DF93CF9300D000D000D0CDB7DEB756
:1010A0009E838D831C821B821A828D819E81009774
:1010B00051F119821CC08B816A810E9429088981A3
:1010C000282F30E08D819E81FC01E20FF31F80818B
:1010D0000E947A068A81882319F481E08A8301C0FC
:1010E0001A8289818F5F89838B818F5F8B8389814E
:1010F000282F30E08D819E81FC01E20FF31F80815B
:101100008823C9F602C082E08C838C8126960FB6B4
:10111000F894DEBF0FBECDBFCF91DF910895DF936E
:10112000CF93CDB7DEB727970FB6F894DEBF0FBECB
:10113000CDBF9C838B836D834E832F838D81882FBE
:1011400090E0880F991F880F991F880F991F8A8335
:101150008A8180648A838A810E945A0619820EC01D
:101160008981282F30E08B819C81FC01E20FF31FE5
:1011700080810E947A0689818F5F89838981883086
:1011800078F38E816F810E9429088D810E947A06F2
:1011900027960FB6F894DEBF0FBECDBFCF91DF917B
:1011A0000895DF93CF93CDB7DEB728970FB6F894A5
:1011B000DEBF0FBECDBF8A836B834C8319828B81C8
:1011C000883008F0F4C08C81882309F077C08A81C8
:1011D000282F30E038872F838F81988581309105C3
:1011E00059F12F813885223031052CF48F81988573
:1011F000009769F060C02F8138852230310589F170
:101200008F8198858330910509F440C054C0AAE3CA
:10121000B0E0EAE3F0E08081482F8B81282F30E0B6
:1012200081E090E0022E02C0880F991F0A94E2F735
:10123000809584238C93BDC0A7E3B0E0E7E3F0E0A2
:101240008081482F8B81282F30E081E090E0022EB2
:1012500002C0880F991F0A94E2F7809584238C932B
:10126000A8C0A4E3B0E0E4E3F0E08081482F8B81E4
:10127000282F30E081E090E0022E02C0880F991FF5
:101280000A94E2F7809584238C9393C0A1E3B0E0A5
:10129000E1E3F0E08081482F8B81282F30E081E06E
:1012A00090E0022E02C0880F991F0A94E2F7809501
:1012B00084238C937EC081E089837BC08C818130C4
:1012C00009F072C08A81282F30E03E832D838D8102
:1012D0009E818130910549F12D813E812230310579
:1012E0002CF48D819E81009761F05BC02D813E8141
:1012F0002230310571F18D819E8183309105E9F1B4
:1013000050C0AAE3B0E0EAE3F0E08081482F8B818F
:10131000282F30E081E090E0022E02C0880F991F54
:101320000A94E2F7842B8C9344C0A7E3B0E0E7E390
:10133000F0E08081482F8B81282F30E081E090E021
:10134000022E02C0880F991F0A94E2F7842B8C9317
:1013500030C0A4E3B0E0E4E3F0E08081482F8B816B
:10136000282F30E081E090E0022E02C0880F991F04
:101370000A94E2F7842B8C931CC0A1E3B0E0E1E374
:10138000F0E08081482F8B81282F30E081E090E0D1
:10139000022E02C0880F991F0A94E2F7842B8C93C7
:1013A00008C081E0898305C081E0898302C081E0B3
:1013B0008983898128960FB6F894DEBF0FBECDBF12
:1013C000CF91DF910895DF93CF93CDB7DEB7289704
:1013D0000FB6F894DEBF0FBECDBF8A836B834C83FC
:1013E00019828B81883008F0F4C08C81813009F03B
:1013F00072C08A81282F30E038872F838F819885AB
:101400008130910549F12F813885223031052CF446
:101410008F819885009761F05BC02F8138852230DD
:10142000310571F18F81988583309105E9F150C0C4
:10143000ABE3B0E0EBE3F0E08081482F8B81282F15
:1014400030E081E090E0022E02C0880F991F0A94DC
:10145000E2F7842B8C93BFC0A8E3B0E0E8E3F0E0B0
:101460008081482F8B81282F30E081E090E0022E90
:1014700002C0880F991F0A94E2F7842B8C93ABC0AB
:10148000A5E3B0E0E5E3F0E08081482F8B81282FD1
:1014900030E081E090E0022E02C0880F991F0A948C
:1014A000E2F7842B8C9397C0A2E3B0E0E2E3F0E094
:1014B0008081482F8B81282F30E081E090E0022E40
:1014C00002C0880F991F0A94E2F7842B8C9383C083
:1014D00081E0898380C08C81882309F077C08A816C
:1014E000282F30E03E832D838D819E8181309105B0
:1014F00059F12D813E81223031052CF48D819E8160
:10150000009769F060C02D813E812230310589F15C
:101510008D819E818330910509F440C054C0ABE3B6
:10152000B0E0EBE3F0E08081482F8B81282F30E0A2
:1015300081E090E0022E02C0880F991F0A94E2F722
:10154000809584238C9347C0A8E3B0E0E8E3F0E003
:101550008081482F8B81282F30E081E090E0022E9F
:1015600002C0880F991F0A94E2F7809584238C9318
:1015700032C0A5E3B0E0E5E3F0E08081482F8B8145
:10158000282F30E081E090E0022E02C0880F991FE2
:101590000A94E2F7809584238C931DC0A2E3B0E007
:1015A000E2E3F0E08081482F8B81282F30E081E05A
:1015B00090E0022E02C0880F991F0A94E2F78095EE
:1015C00084238C9308C081E0898305C081E08983EE
:1015D00002C081E08983898128960FB6F894DEBF26
:1015E0000FBECDBFCF91DF910895DF93CF93CDB7DD
:1015F000DEB727970FB6F894DEBF0FBECDBF8A8344
:101600006B835D834C8319828C819D81009709F4E3
:101610007BC08B81883008F074C08A81282F30E02D
:101620003F832E834E815F814130510559F18E8178
:101630009F818230910534F42E813F81211531053F
:1016400069F05CC04E815F814230510579F18E8135
:101650009F818330910509F43DC050C0E9E3F0E07B
:101660008081282F30E08B81882F90E0A90102C073
:10167000559547958A95E2F7CA018170EC81FD8105
:10168000808344C0E6E3F0E08081282F30E08B8146
:10169000882F90E0A90102C0559547958A95E2F7F9
:1016A000CA018170EC81FD81808330C0E3E3F0E00A
:1016B0008081282F30E08B81882F90E0A90102C023
:1016C000559547958A95E2F7CA018170EC81FD81B5
:1016D00080831CC0E0E3F0E08081282F30E08B8124
:1016E000882F90E0A90102C0559547958A95E2F7A9
:1016F000CA018170EC81FD81808308C081E089830B
:1017000005C081E0898302C082E0898389812796B0
:101710000FB6F894DEBF0FBECDBFCF91DF91089515
:10172000DF93CF9300D000D00F92CDB7DEB78A837E
:101730006B8319828A81282F30E03D832C838C8132
:101740009D8181309105D1F02C813D812230310580
:101750002CF48C819D81009761F01FC02C813D810C
:101760002230310581F08C819D818330910581F09B
:1017700014C0EAE3F0E08B81808311C0E7E3F0E07E
:101780008B8180830CC0E4E3F0E08B81808307C011
:10179000E1E3F0E08B81808302C081E0898389816D
:1017A0000F900F900F900F900F90CF91DF910895B1
:1017B000DF93CF9300D000D00F92CDB7DEB78A83EE
:1017C0006B8319828A81282F30E03D832C838C81A2
:1017D0009D8181309105D1F02C813D8122303105F0
:1017E0002CF48C819D81009761F01FC02C813D817C
:1017F0002230310581F08C819D818330910581F00B
:1018000014C0EBE3F0E08B81808311C0E8E3F0E0EB
:101810008B8180830CC0E5E3F0E08B81808307C07F
:10182000E2E3F0E08B81808302C081E089838981DB
:101830000F900F900F900F900F90CF91DF91089520
:10184000DF93CF9300D000D000D0CDB7DEB78B832D
:101850006C831A828C81883008F01AC18B81282F02
:1018600030E03E832D834D815E814130510509F486
:1018700055C08D819E818230910534F42D813E8149
:101880002115310571F001C14D815E814230510554
:1018900009F481C08D819E818330910509F4B8C01F
:1018A000F4C0EBE3F0E08081282F30E08C81882FBA
:1018B00090E0A90102C0559547958A95E2F7CA01C3
:1018C0008170898389818130A9F4ABE3B0E0EBE3D7
:1018D000F0E08081482F8C81282F30E081E090E07B
:1018E000022E02C0880F991F0A94E2F78095842384
:1018F0008C93D0C0ABE3B0E0EBE3F0E08081482F05
:101900008C81282F30E081E090E0022E02C0880F09
:10191000991F0A94E2F7842B8C93BCC0E8E3F0E0B3
:101920008081282F30E08C81882F90E0A90102C0AF
:10193000559547958A95E2F7CA0181708983898117
:101940008130A9F4A8E3B0E0E8E3F0E08081482F1B
:101950008C81282F30E081E090E0022E02C0880FB9
:10196000991F0A94E2F7809584238C9393C0A8E38F
:10197000B0E0E8E3F0E08081482F8C81282F30E050
:1019800081E090E0022E02C0880F991F0A94E2F7CE
:10199000842B8C937FC0E5E3F0E08081282F30E03A
:1019A0008C81882F90E0A90102C0559547958A95B2
:1019B000E2F7CA018170898389818130A9F4A5E3A6
:1019C000B0E0E5E3F0E08081482F8C81282F30E003
:1019D00081E090E0022E02C0880F991F0A94E2F77E
:1019E000809584238C9356C0A5E3B0E0E5E3F0E056
:1019F0008081482F8C81282F30E081E090E0022EFA
:101A000002C0880F991F0A94E2F7842B8C9342C07E
:101A1000E2E3F0E08081282F30E08C81882F90E095
:101A2000A90102C0559547958A95E2F7CA018170D0
:101A3000898389818130A9F4A2E3B0E0E2E3F0E098
:101A40008081482F8C81282F30E081E090E0022EA9
:101A500002C0880F991F0A94E2F7809584238C9323
:101A600019C0A2E3B0E0E2E3F0E08081482F8C816E
:101A7000282F30E081E090E0022E02C0880F991FED
:101A80000A94E2F7842B8C9305C081E08A8302C01C
:101A900081E08A838A8126960FB6F894DEBF0FBE56
:101AA000CDBFCF91DF9108950F931F93DF93CF9315
:101AB000CDB7DEB7C958D0400FB6F894DEBF0FBE21
:101AC000CDBF80E060E041E00E94D10880E061E0AD
:101AD00041E00E94D10880E062E041E00E94D1082C
:101AE00081E06FEF0E94900B80E063E040E00E9495
:101AF000D10880E064E040E00E94D10880E065E029
:101B000040E00E94D10880E063E041E00E94E309E8
:101B100080E064E041E00E94E30980E065E041E0AC
:101B20000E94E3090E949A06FE01E259FF4F81E0FC
:101B300090E0A0E0B0E080839183A283B383FE01B4
:101B4000E359FF4F1082FE01EE58FF4F8BE2808376
:101B5000FE01EE58FF4F8DE28183FE01EE58FF4FEC
:101B60008AE28283FE01EE58FF4F8FE28383FE01FB
:101B7000E459FF4F8BE28083FE01E859FF4F81E07B
:101B800090E0A0E0B0E080839183A283B383FE0164
:101B9000EC59FF4F1082FE01ED59FF4F1082CE012C
:101BA00083589F4FCB57DF4F99838883C558D040C8
:101BB00080E790E0C957DF4F99838883C758D040AA
:101BC00098E0C757DF4F9883C958D040C957DF4FB7
:101BD000E881F981C758D0400080C957DF4F88811C
:101BE0009981C758D0400196C957DF4F99838883A0
:101BF000C758D040CB57DF4FE881F981C558D04056
:101C00000082CB57DF4F88819981C558D04001961B
:101C1000CB57DF4F99838883C558D040C757DF4FD4
:101C20009881C958D0409150C757DF4F9883C95801
:101C3000D040C757DF4FE881C958D040EE2331F676
:101C400080E060E00E942908FE01E259FF4F808198
:101C50009181A281B381BC01CD010E94670781E01F
:101C600060E00E942908FE01E459FF4F80810E9434
:101C70007A0682E060E00E942908FE01E859FF4FE1
:101C800080819181A281B381BC01CD010E9467074F
:101C90009E0124583F4F80E065E0A9010E94F50AAB
:101CA000FE01ED59FF4F8081833041F083E060E019
:101CB0000E94290880E690E00E943407FE01E45863
:101CC000FF4F8081882309F0BCC0FE01E15AFF4F1D
:101CD00080E090E0A8ECB2E480839183A283B38398
:101CE0008E01055A1F4FFE01E15AFF4F608171813D
:101CF0008281938120E030E04AE755E40E94170298
:101D0000DC01CB01F80180839183A283B383FE01C0
:101D1000E55AFF4F608171818281938120E030E03C
:101D200040E85FE30E947103882344F4FE01E75A10
:101D3000FF4F81E090E09183808364C0FE01E55A0B
:101D4000FF4F608171818281938120E03FEF4FE7F7
:101D500057E40E94110318160CF043C0FE01E15A2B
:101D6000FF4F608171818281938120E030E040E209
:101D700051E40E941702DC01CB018E01075A1F4F6C
:101D8000BC01CD010E944100DC01CB01F80191832F
:101D900080831FC0FE01E95AFF4F80E991E09183E3
:101DA0008083FE01E95AFF4F808191810197F1F70D
:101DB000FE01E95AFF4F91838083DE01A75ABF4F8E
:101DC000FE01E75AFF4F80819181019711969C9304
:101DD0008E93FE01E75AFF4F808191810097D1F6E3
:101DE00027C08E01075A1F4FFE01E55AFF4F608141
:101DF0007181828193810E944100DC01CB01F80155
:101E000091838083DE01AB5ABF4FFE01E75AFF4F3B
:101E1000808191818D939C93FE01EB5AFF4F8081CD
:101E200091810197F1F7FE01EB5AFF4F9183808377
:101E3000DE01AD59BF4FFE01ED59FF4F80818F5F2D
:101E40008C93FE01ED59FF4F8081882309F0F0C18A
:101E500080E060E00E942908FE01E259FF4F808186
:101E60009181A281B381BC01CD010E9467079E01CF
:101E700026583F4F80E063E0A9010E94F50A9E01C9
:101E800025583F4F80E064E0A9010E94F50AFE0159
:101E9000E658FF4F8081882309F0EDC0FE01EF5A1C
:101EA000FF4F80E090E0A8ECB2E480839183A283AE
:101EB000B3838E01035B1F4FFE01EF5AFF4F60811A
:101EC00071818281938120E030E04AE755E40E94ED
:101ED0001702DC01CB01F80180839183A283B383D5
:101EE000FE01E35BFF4F608171818281938120E07D
:101EF00030E040E85FE30E947103882344F4FE0170
:101F0000E55BFF4F81E090E09183808364C0FE0138
:101F1000E35BFF4F608171818281938120E03FEF1D
:101F20004FE757E40E94110318160CF043C0FE015E
:101F3000EF5AFF4F608171818281938120E030E010
:101F400040E251E40E941702DC01CB018E01055BE7
:101F50001F4FBC01CD010E944100DC01CB01F80103
:101F6000918380831FC0FE01E75BFF4F80E991E012
:101F700091838083FE01E75BFF4F80819181019710
:101F8000F1F7FE01E75BFF4F91838083DE01A55BE4
:101F9000BF4FFE01E55BFF4F808191810197119654
:101FA0009C938E93FE01E55BFF4F808191810097AA
:101FB000D1F627C08E01055B1F4FFE01E35BFF4F8B
:101FC00060817181828193810E944100DC01CB019B
:101FD000F80191838083DE01A95BBF4FFE01E55BC1
:101FE000FF4F808191818D939C93FE01E95BFF4FB0
:101FF000808191810197F1F7FE01E95BFF4F9183A9
:1020000080839E0122593F4FFE01E259FF4F80819C
:102010009181A281B3810196A11DB11DF901808337
:102020009183A283B383FE01E259FF4F80819181A6
:10203000A281B3818A309105A105B10544F0FE016A
:10204000E259FF4F108211821282138214C0FE01E6
:10205000E259FF4F80819181A281B381BB235CF45F
:10206000FE01E259FF4F89E090E0A0E0B0E08083FC
:102070009183A283B383FE01E558FF4F80818823BB
:1020800009F0BFC0FE01ED5BFF4F80E090E0A8ECDF
:10209000B2E480839183A283B3838E01015C1F4FDE
:1020A000FE01ED5BFF4F608171818281938120E0B1
:1020B00030E04AE755E40E941702DC01CB01F80149
:1020C00080839183A283B383FE01FF966081718137
:1020D0008281938120E030E040E85FE30E94710359
:1020E00088232CF481E090E09EAF8DAF46C0FE01C6
:1020F000FF96608171818281938120E03FEF4FE7FD
:1021000057E40E941103181664F5FE01ED5BFF4FC2
:10211000608171818281938120E030E040E251E46E
:102120000E941702DC01CB01BC01CD010E944100DD
:10213000DC01CB019EAF8DAF0FC080E991E09CAF79
:102140008BAF8BAD9CAD0197F1F79CAF8BAF8DAD95
:102150009EAD01979EAF8DAF8DAD9EAD009769F797
:1021600016C0FE01FF9660817181828193810E9479
:102170004100DC01CB019EAF8DAF8DAD9EAD9AAF1E
:1021800089AF89AD9AAD0197F1F79AAF89AF9E01FA
:1021900022593F4FFE01E259FF4F80819181A28178
:1021A000B3810197A109B109F90180839183A283C9
:1021B000B383FE01E259FF4F80819181A281B381F7
:1021C0008A309105A105B10544F0FE01E259FF4FA7
:1021D000108211821282138214C0FE01E259FF4F55
:1021E00080819181A281B381BB235CF4FE01E2591D
:1021F000FF4F89E090E0A0E0B0E080839183A2836C
:10220000B38381E061E00E94290880E20E947A069F
:1022100082E061E00E94290880E20E947A06CE01F5
:1022200083589F4F60E040E021E00E948F0808CD76
:10223000FE01ED59FF4F8081813009F070C181E0CE
:1022400060E00E942908FE01E459FF4F80810E944E
:102250007A069E0126583F4F80E063E0A9010E9464
:10226000F50A9E0125583F4F80E064E0A9010E94D5
:10227000F50AFE01E658FF4F8081882309F098C0D7
:1022800080E090E0A8E4B3E48DAB9EABAFABB8AF19
:102290006DA97EA98FA998AD20E030E04AE755E40A
:1022A0000E941702DC01CB0189AB9AABABABBCAB94
:1022B00069A97AA98BA99CA920E030E040E85FE3F6
:1022C0000E94710388232CF481E090E098AB8FA7E3
:1022D0003FC069A97AA98BA99CA920E03FEF4FE7ED
:1022E00057E40E94110318164CF56DA97EA98FA919
:1022F00098AD20E030E040E251E40E941702DC019A
:10230000CB01BC01CD010E944100DC01CB0198ABA7
:102310008FA70FC080E991E09EA78DA78DA59EA5F0
:102320000197F1F79EA78DA78FA598A9019798AB64
:102330008FA78FA598A9009769F714C069A97AA9F2
:102340008BA99CA90E944100DC01CB0198AB8FA70F
:102350008FA598A99CA78BA78BA59CA50197F1F7A2
:102360009CA78BA7DE01A359BF4FFE01E359FF4F86
:1023700080818F5F8C93FE01E359FF4F8081843011
:1023800024F0FE01E359FF4F1082FE01E359FF4F95
:102390008081282F332727FD3095DE01A459BF4FB8
:1023A000CE018E589F4FFC01E20FF31F80818C936A
:1023B000FE01E558FF4F8081882309F099C080E035
:1023C00090E0A8ECB2E48FA398A7A9A7BAA76FA141
:1023D00078A589A59AA520E030E04AE755E40E9457
:1023E0001702DC01CB018BA39CA3ADA3BEA36BA101
:1023F0007CA18DA19EA120E030E040E85FE30E9437
:10240000710388232CF481E090E09AA389A33FC054
:102410006BA17CA18DA19EA120E03FEF4FE757E487
:102420000E94110318164CF56FA178A589A59AA5ED
:1024300020E030E040E251E40E941702DC01CB01D1
:10244000BC01CD010E944100DC01CB019AA389A30C
:102450000FC080E991E098A38F8F8F8D98A101978D
:10246000F1F798A38F8F89A19AA101979AA389A3C5
:1024700089A19AA1009769F714C06BA17CA18DA1D5
:102480009EA10E944100DC01CB019AA389A389A1EE
:102490009AA19E8F8D8F8D8D9E8D0197F1F79E8FC6
:1024A0008D8FDE01A359BF4FFE01E359FF4F80819D
:1024B00081508C93FE01E359FF4F808188232CF4D7
:1024C000FE01E359FF4F83E08083FE01E359FF4F94
:1024D0008081282F332727FD3095DE01A459BF4F77
:1024E000CE018E589F4FFC01E20FF31F80818C9329
:1024F00080E061E00E94290880E20E947A0682E082
:1025000061E00E94290880E20E947A06CE01835889
:102510009F4F60E041E021E00E948F0891CBFE01D7
:10252000ED59FF4F8081823009F0B8C182E060E050
:102530000E942908FE01E859FF4F80819181A28104
:10254000B381BC01CD010E9467079E0126583F4F11
:1025500080E063E0A9010E94F50A9E0125583F4FE3
:1025600080E064E0A9010E94F50AFE01E658FF4FF1
:102570008081882309F0ACC080E090E0A8ECB2E450
:10258000898F9A8FAB8FBC8F698D7A8D8B8D9C8D47
:1025900020E030E04AE755E40E941702DC01CB015D
:1025A0008D8B9E8BAF8BB88F6D897E898F89988D2F
:1025B00020E030E040E85FE30E94710388232CF4C0
:1025C00081E090E09C8B8B8B3FC06D897E898F89E9
:1025D000988D20E03FEF4FE757E40E941103181653
:1025E0004CF5698D7A8D8B8D9C8D20E030E040E23A
:1025F00051E40E941702DC01CB01BC01CD010E9415
:102600004100DC01CB019C8B8B8B0FC080E991E0FA
:102610009A8B898B89899A890197F1F79A8B898B93
:102620008B899C8901979C8B8B8B8B899C890097CC
:1026300069F714C06D897E898F89988D0E94410049
:10264000DC01CB019C8B8B8B8B899C89988B8F8732
:102650008F8598890197F1F7988B8F879E0128596C
:102660003F4FFE01E859FF4F80819181A281B381E4
:102670000196A11DB11DF90180839183A283B383CB
:10268000FE01E859FF4F80819181A281B3818A3098
:102690009105A105B10544F0FE01E859FF4F1082F4
:1026A00011821282138214C0FE01E859FF4F80810B
:1026B0009181A281B381BB235CF4FE01E859FF4FF5
:1026C00089E090E0A0E0B0E080839183A283B383AF
:1026D000FE01E558FF4F8081882309F0ACC080E0FF
:1026E00090E0A8ECB2E48B879C87AD87BE876B85B2
:1026F0007C858D859E8520E030E04AE755E40E9488
:102700001702DC01CB018F839887A987BA876F8175
:10271000788589859A8520E030E040E85FE30E9473
:10272000710388232CF481E090E09E838D833FC069
:102730006F81788589859A8520E03FEF4FE757E4E0
:102740000E94110318164CF56B857C858D859E853E
:1027500020E030E040E251E40E941702DC01CB01AE
:10276000BC01CD010E944100DC01CB019E838D8321
:102770000FC080E991E09C838B838B819C810197C2
:10278000F1F79C838B838D819E8101979E838D833E
:102790008D819E81009769F714C06F817885898546
:1027A0009A850E944100DC01CB019E838D838D813F
:1027B0009E819A83898389819A810197F1F79A830F
:1027C00089839E0128593F4FFE01E859FF4F8081C0
:1027D0009181A281B3810197A109B109F901808397
:1027E0009183A283B383FE01E859FF4F80819181D9
:1027F000A281B3818A309105A105B10544F0FE01A3
:10280000E859FF4F108211821282138214C0FE0118
:10281000E859FF4F80819181A281B381BB235CF491
:10282000FE01E859FF4F89E090E0A0E0B0E080832E
:102830009183A283B383FE01E459FF4F80818F32DD
:10284000B1F4FE01E859FF4F80819181A281B381EB
:102850000097A105B10559F4FE01E859FF4F81E049
:1028600090E0A0E0B0E080839183A283B38380E016
:1028700061E00E94290880E20E947A0681E061E01E
:102880000E94290880E20E947A06CE0183589F4F59
:1028900060E042E021E00E948F08D2C9FE01ED59BC
:1028A000FF4F8081833009F0E3C183E060E00E9444
:1028B00029088DE30E947A06FE01E459FF4F8081CA
:1028C0008F3209F04EC1FE01E259FF4F9E01285997
:1028D0003F4F80819181A281B381F90120813181B3
:1028E00042815381BC01CD010E947116DA01C901F8
:1028F0000097A105B10509F4B2C0FE01E259FF4FEE
:1029000080819181A281B38124E630E040E050E0F3
:10291000BC01CD010E943E16DC01CB01FE01E8594D
:10292000FF4F2081318142815381BC01CD010E9442
:102930007116DA01C901FE01EB59FF4F91838083C3
:1029400034C0FE01EC59FF4F8081082F112707FD8D
:102950001095FE01EB59FF4F808191812AE030E014
:10296000B9010E945D16282FCE018A589F4FFC01A5
:10297000E00FF11F2083DE01AC59BF4FFE01EC597F
:10298000FF4F80818F5F8C938E010B591F4FFE018B
:10299000EB59FF4F808191812AE030E0B9010E941C
:1029A0005D16CB01F80191838083FE01EB59FF4F47
:1029B00080819181009729F6FE01EC59FF4F8081BB
:1029C000992787FD90959C0121503040CE018A586F
:1029D0009F4FFC01E20FF31F8081882F90E0A0E061
:1029E000B0E0BC01CD010E9467078EE20E947A062A
:1029F000FE01EC59FF4F8081992787FD90959C013E
:102A000022503040CE018A589F4FFC01E20FF31F45
:102A10008081882F90E0A0E0B0E0BC01CD010E9451
:102A20006707FE01EC59FF4F8081992787FD90953C
:102A30009C0123503040CE018A589F4FFC01E20F89
:102A4000F31F8081882F90E0A0E0B0E0BC01CD01B1
:102A50000E946707FE01EC59FF4F1082F2C0FE0191
:102A6000E259FF4F80819181A281B38124E630E059
:102A700040E050E0BC01CD010E943E16DC01CB01DC
:102A8000FE01E859FF4F2081318142815381BC0111
:102A9000CD010E947116DA01C901FE01EB59FF4F09
:102AA0009183808334C0FE01EC59FF4F8081082F51
:102AB000112707FD1095FE01EB59FF4F8081918191
:102AC0002AE030E0B9010E945D16282FCE018A5815
:102AD0009F4FFC01E00FF11F2083DE01AC59BF4F77
:102AE000FE01EC59FF4F80818F5F8C938E010B5953
:102AF0001F4FFE01EB59FF4F808191812AE030E0AA
:102B0000B9010E945D16CB01F80191838083FE011B
:102B1000EB59FF4F80819181009729F680E30E9455
:102B20007A068EE20E947A06FE01EA58FF4F818102
:102B3000882F90E0A0E0B0E0BC01CD010E946707C3
:102B4000FE01EA58FF4F8081882F90E0A0E0B0E0BE
:102B5000BC01CD010E946707FE01EC59FF4F1082B6
:102B600070C0FE01E459FF4F80818B32D9F4FE0121
:102B7000E259FF4F9081FE01E859FF4F8081890F94
:102B8000FE01E959FF4F8083FE01E959FF4F808123
:102B9000992787FD9095A92FB92FBC01CD010E94DF
:102BA00067074FC0FE01E459FF4F80818D32E9F481
:102BB000FE01E259FF4F9081FE01E859FF4F8081ED
:102BC000F92FF81B8F2FFE01E959FF4F8083FE017B
:102BD000E959FF4F8081992787FD9095A92FB92F3B
:102BE000BC01CD010E9467072CC0FE01E459FF4FD4
:102BF00080818A3231F5FE01E259FF4F9E0128594A
:102C00003F4F80819181A281B381F901208131817F
:102C100042815381BC01CD010E943E16DC01CB01F3
:102C2000FE01E959FF4F8083FE01E959FF4F808182
:102C3000992787FD9095A92FB92FBC01CD010E943E
:102C4000670780E061E00E94290880E20E947A061E
:102C500081E061E00E94290880E20E947A0682E019
:102C600061E00E94290880E20E947A060C94200EFE
:102C7000FE01ED59FF4F10820C94200E629FD0018F
:102C8000739FF001829FE00DF11D649FE00DF11D27
:102C9000929FF00D839FF00D749FF00D659FF00DD6
:102CA0009927729FB00DE11DF91F639FB00DE11DC3
:102CB000F91FBD01CF0111240895AA1BBB1B51E1CF
:102CC00007C0AA1FBB1FA617B70710F0A61BB70B9C
:102CD000881F991F5A95A9F780959095BC01CD0141
:102CE000089597FB092E05260ED057FD04D014D069
:102CF0000AD0001C38F450954095309521953F4FEF
:102D00004F4F5F4F0895F6F79095809570956195B8
:102D10007F4F8F4F9F4F0895A1E21A2EAA1BBB1B16
:102D2000FD010DC0AA1FBB1FEE1FFF1FA217B30797
:102D3000E407F50720F0A21BB30BE40BF50B661FAD
:102D4000771F881F991F1A9469F760957095809571
:102D500090959B01AC01BD01CF0108952F923F9248
:102D60004F925F926F927F928F929F92AF92BF929B
:102D7000CF92DF92EF92FF920F931F93CF93DF9347
:102D8000CDB7DEB7CA1BDB0B0FB6F894DEBF0FBEA4
:102D9000CDBF09942A88398848885F846E847D84F1
:102DA0008C849B84AA84B984C884DF80EE80FD80F3
:102DB0000C811B81AA81B981CE0FD11D0FB6F89469
:0E2DC000DEBF0FBECDBFED010895F894FFCF2A
:102DCE002020202020202000000000000000000015
:082DDE00040A150404040400BA
:00000001FF
