:100000000C942A000C94E5100C9418110C944B11CC
:100010000C9447000C9447000C9447000C94470044
:100020000C9447000C9447000C9447000C94470034
:100030000C9447000C9447000C9447000C94470024
:100040000C9447000C9447000C9447000C94470014
:100050000C94470011241FBECFE5D8E0DEBFCDBF12
:1000600011E0A0E6B0E0ECE3F5E402C005900D92EB
:10007000A037B107D9F711E0A0E7B1E001C01D92A8
:10008000A737B107E1F70E94781A0C949C220C94D0
:100090000000EF92FF920F931F937B018C0120E0F1
:1000A00030E040E05FE40E94490388238CF0C801FF
:1000B000B70120E030E040E05FE40E94C1010E940F
:1000C000A9039B01AC01205030404040504806C07D
:1000D000C801B7010E94A9039B01AC01B901CA0183
:1000E0001F910F91FF90EF900895A0E0B0E0EBE733
:1000F000F0E00C946522DC012B01FA019C91923016
:1001000008F439C1EB018881823008F433C194309E
:1001100069F4843009F02FC111969C91119789815F
:10012000981709F428C1A8E3B1E025C1843009F487
:1001300021C18230A9F4923009F01DC19A01AD01AC
:1001400088E0EA010990AE01E90109929E0181501F
:10015000C1F7E201898111969C918923818308C1AD
:10016000923009F407C112962D903C901397EB0141
:100170008A819B811496AD90BD90CD90DC901797AD
:10018000EC80FD800E811F819101281B390BB90184
:1001900037FF04C066277727621B730B6032710537
:1001A0000CF061C0121613066CF537014801062EDB
:1001B00004C096948794779467940A94D2F721E0C8
:1001C00030E040E050E004C0220F331F441F551FB1
:1001D0006A95D2F721503040404050402E213F21B7
:1001E00040235123211531054105510521F021E01E
:1001F00030E040E050E079018A01E628F72808293C
:1002000019293CC0232BD1F1260E371E350146019A
:10021000062E04C096948794779467940A94D2F734
:1002200021E030E040E050E004C0220F331F441FC3
:10023000551F6A95D2F721503040404050402A2146
:100240003B214C215D21211531054105510521F04E
:1002500021E030E040E050E059016A01A628B728CB
:10026000C828D9280BC0821593052CF01C01AA249C
:10027000BB24650103C0EE24FF24870111969C91E5
:10028000D20111968C91981709F445C0992339F041
:10029000A80197012A193B094C095D0906C0A6016E
:1002A00095012E193F09400B510B57FD08C01182D3
:1002B0003382228224833583468357831DC081E0A5
:1002C00081833382228288279927DC01821B930B4A
:1002D000A40BB50B84839583A683B7830DC0220F2F
:1002E000331F441F551F24833583468357838281E0
:1002F000938101979383828324813581468157813D
:10030000DA01C9010197A109B1098F5F9F4FAF4F72
:10031000BF4328F30BC0918333822282EA0CFB1C7B
:100320000C1D1D1DE482F5820683178383E0808304
:10033000248135814681578157FF1AC0C901AA27F8
:1003400097FDA095BA2F81709070A070B0705695EF
:10035000479537952795822B932BA42BB52B848318
:100360009583A683B7838281938101969383828349
:10037000DF0101C0D201CD01CDB7DEB7E2E10C94BF
:100380008122A0E2B0E0E7ECF1E00C9471226983F5
:100390007A838B839C832D833E834F835887E9E048
:1003A000EE2EF12CEC0EFD1ECE010196B7010E943F
:1003B000D2048E010F5E1F4FCE010596B8010E9438
:1003C000D2048A8991E089278A8BC701B801AE01DE
:1003D000475E5F4F0E9475000E94FD03A096E6E015
:1003E0000C948D22A0E2B0E0E8EFF1E00C947122D1
:1003F00069837A838B839C832D833E834F835887C5
:10040000F9E0EF2EF12CEC0EFD1ECE010196B701A6
:100410000E94D2048E010F5E1F4FCE010596B801D7
:100420000E94D204C701B801AE01475E5F4F0E942F
:1004300075000E94FD03A096E6E00C948D22A0E2D8
:10044000B0E0E5E2F2E00C94652269837A838B8365
:100450009C832D833E834F835887CE010196BE0136
:10046000675F7F4F0E94D204CE010596BE016F5E8A
:100470007F4F0E94D2049985923088F0898982301A
:10048000C8F0943019F4823051F404C0843029F457
:10049000923081F488E391E0C6C0923049F420E0C4
:1004A0009A858A89981321E02A87CE010996BBC0D4
:1004B000823049F420E09A858A89981321E02A8BBA
:1004C000CE014196B0C02D843E844F8458886D88FB
:1004D0007E888F88988CEE24FF248701AA24BB2471
:1004E000650140E050E060E070E0E0E0F0E0C10174
:1004F00081709070892BE9F0E60CF71C081D191D1E
:100500009A01AB012A0D3B1D4C1D5D1D80E090E062
:10051000A0E0B0E0E614F7040805190520F481E036
:1005200090E0A0E0B0E0BA01A901480F591F6A1F8E
:100530007B1FAA0CBB1CCC1CDD1C97FE08C081E0F5
:1005400090E0A0E0B0E0A82AB92ACA2ADB2A3196B6
:10055000E032F10549F0660C771C881C991C569412
:10056000479437942794C3CFFA85EA892B893C892D
:100570008B859C85280F391F2E5F3F4F17C0CA01FE
:1005800081709070892B61F016950795F794E79428
:1005900080E090E0A0E0B0E8E82AF92A0A2B1B2BC3
:1005A00076956795579547952F5F3F4F77FDE7CF36
:1005B0000CC0440F551F661F771F17FD4160EE0CDE
:1005C000FF1C001F111F21503040403090E05907A0
:1005D00090E0690790E4790760F32B8F3C8FDB0193
:1005E000CA018F779070A070B07080349105A1051A
:1005F000B10561F447FD0AC0E114F10401051105DC
:1006000029F0405C5F4F6F4F7F4F40781A8EFE1786
:1006100011F081E08A8F4D8F5E8F6F8F78A383E01A
:10062000898FCE0149960E94FD03A096E2E10C94C9
:100630008122A8E1B0E0EFE1F3E00C94712269833C
:100640007A838B839C832D833E834F83588789E0F5
:10065000E82EF12CEC0EFD1ECE010196B7010E9492
:10066000D2048E010F5E1F4FCE010596B8010E9485
:10067000D2048985823040F08989823028F0C70110
:10068000B8010E944A0501C08FEF6896E6E00C941D
:100690008D22A8E1B0E0EFE4F3E00C9471226983CD
:1006A0007A838B839C832D833E834F83588789E095
:1006B000E82EF12CEC0EFD1ECE010196B7010E9432
:1006C000D2048E010F5E1F4FCE010596B8010E9425
:1006D000D2048985823040F08989823028F0C701B0
:1006E000B8010E944A0501C08FEF6896E6E00C94BD
:1006F0008D22A8E1B0E0EFE7F3E00C94712269836A
:100700007A838B839C832D833E834F83588789E034
:10071000E82EF12CEC0EFD1ECE010196B7010E94D1
:10072000D2048E010F5E1F4FCE010596B8010E94C4
:10073000D2048985823040F08989823028F0C7014F
:10074000B8010E944A0501C081E06896E6E00C9479
:100750008D22ACE0B0E0EFEAF3E00C9475226983FF
:100760007A838B839C83CE010196BE016B5F7F4FA2
:100770000E94D2048D81823061F1823050F1843048
:1007800021F48E81882351F12EC02F81388537FDC9
:1007900020C06E812F3131051CF06623F9F023C093
:1007A0008EE190E0821B930B29853A854B855C8511
:1007B00004C056954795379527958A95D2F76623B5
:1007C000B1F050954095309521953F4F4F4F5F4F79
:1007D0000EC020E030E040E050E009C02FEF3FEFD6
:1007E0004FEF5FE704C020E030E040E050E8B9019F
:1007F000CA012C96E2E00C949122DF92EF92FF92D4
:100800000F931F93FC01E480F58006811781D1804E
:100810008081823048F480E090E0A0E1B0E0E82AF6
:10082000F92A0A2B1B2BA5C0843009F49FC0823003
:1008300021F4EE24FF24870105C0E114F104010531
:10084000110519F4E0E0F0E096C0628173819FEF3A
:10085000623879070CF05BC022E83FEF261B370BAC
:100860002A3131052CF020E030E040E050E02AC091
:10087000B801A701022E04C0769567955795479554
:100880000A94D2F781E090E0A0E0B0E004C0880FC5
:10089000991FAA1FBB1F2A95D2F70197A109B10979
:1008A0008E219F21A023B1230097A105B10521F03E
:1008B00081E090E0A0E0B0E09A01AB01282B392B59
:1008C0004A2B5B2BDA01C9018F779070A070B07052
:1008D00080349105A105B10539F427FF09C0205CDA
:1008E0003F4F4F4F5F4F04C0215C3F4F4F4F5F4F13
:1008F000E0E0F0E02030A0E03A07A0E04A07A0E402
:100900005A0710F0E1E0F0E079018A0127C0603871
:10091000710564F5FB01E158FF4FD801C7018F77DE
:100920009070A070B07080349105A105B10539F4C4
:10093000E7FE0DC080E490E0A0E0B0E004C08FE3EB
:1009400090E0A0E0B0E0E80EF91E0A1F1B1F17FFA1
:1009500005C016950795F794E794319687E01695AC
:100960000795F794E7948A95D1F705C0EE24FF2404
:100970008701EFEFF0E06E2F679566276795902F60
:100980009F77D794DD24D7948E2F8695492F462BB9
:10099000582F5D29B701CA011F910F91FF90EF9069
:1009A000DF900895FC01DB01408151812281622F9B
:1009B0006F7770E0221F2227221F9381892F880FD3
:1009C000822B282F30E0991F9927991F11969C930D
:1009D000119721153105A9F54115510561057105DD
:1009E00011F482E037C082E89FEF13969C938E93B8
:1009F00012979A01AB0167E0220F331F441F551F66
:100A00006A95D1F783E08C930DC0220F331F441FEA
:100A1000551F12968D919C911397019713969C9355
:100A20008E931297203080E0380780E0480780E4FA
:100A3000580758F314962D933D934D935C93179755
:100A400008952F3F310579F4411551056105710570
:100A500019F484E08C93089564FF03C081E08C93C3
:100A600012C01C9210C02F57304013963C932E9307
:100A7000129783E08C9387E0440F551F661F771F02
:100A80008A95D1F7706414964D935D936D937C9322
:100A9000179708951F93DC01FB019C91923008F495
:100AA00047C08081823008F443C0943051F41196DD
:100AB0001C91843099F58181682F70E0611B710968
:100AC0003FC0843021F0923031F48230B9F181811D
:100AD000882389F12DC011961C9111978230F1F075
:100AE00081811817D9F412962D913C911397828128
:100AF00093818217930794F028173907BCF0149656
:100B00008D919D910D90BC91A02D248135814681C0
:100B10005781281739074A075B0718F4112341F05A
:100B20000AC082179307A407B50740F4112319F0F0
:100B300061E070E005C06FEF7FEF02C060E070E041
:100B4000CB011F910895DF93CF93CDB7DEB72E97DA
:100B50000FB6F894DEBF0FBECDBF80E063E041E08A
:100B60000E94800B80E090E0A0E0B0E48B879C873F
:100B7000AD87BE876B857C858D859E8520E030E0C6
:100B80004AE755E40E941F02DC01CB018F8398875E
:100B9000A987BA876F81788589859A8520E030E0BA
:100BA00040E85FE30E94790388232CF481E090E021
:100BB0009E838D833FC06F81788589859A8520E0EB
:100BC0003FEF4FE757E40E94190318164CF56B8569
:100BD0007C858D859E8520E030E040E251E40E94D6
:100BE0001F02DC01CB01BC01CD010E944900DC01E8
:100BF000CB019E838D830FC080E991E09C838B8322
:100C00008B819C810197F1F79C838B838D819E81E1
:100C100001979E838D838D819E81009769F714C013
:100C20006F81788589859A850E944900DC01CB0116
:100C30009E838D838D819E819A83898389819A8108
:100C40000197F1F79A83898380E063E040E00E9496
:100C5000800B2E960FB6F894DEBF0FBECDBFCF919E
:100C6000DF910895DF93CF930F92CDB7DEB78983DD
:100C70008981982F917081E064E0492F0E94800B58
:100C800089818695982F917081E065E0492F0E94B7
:100C9000800B898186958695982F917081E066E01A
:100CA000492F0E94800B8981869586958695982F7D
:100CB000917081E067E0492F0E94800B0F90CF91E7
:100CC000DF910895DF93CF930F92CDB7DEB789837D
:100CD00080E060E040E00E94800B80E061E040E066
:100CE0000E94800B898182958F700E9432060E943B
:100CF000A30589810E9432060E94A3050F90CF911F
:100D0000DF910895DF93CF930F92CDB7DEB789833C
:100D100080E060E041E00E94800B80E061E040E024
:100D20000E94800B898182958F700E9432060E94FA
:100D3000A30589810E9432060E94A3050F90CF91DE
:100D4000DF910895DF93CF93CDB7DEB72E970FB61F
:100D5000F894DEBF0FBECDBF80E090E0A0E2B2E429
:100D60008B879C87AD87BE876B857C858D859E85AF
:100D700020E030E04AE755E40E941F02DC01CB018D
:100D80008F839887A987BA876F81788589859A85A7
:100D900020E030E040E85FE30E94790388232CF4F0
:100DA00081E090E09E838D833FC06F817885898547
:100DB0009A8520E03FEF4FE757E40E941903181689
:100DC0004CF56B857C858D859E8520E030E040E28A
:100DD00051E40E941F02DC01CB01BC01CD010E9445
:100DE0004900DC01CB019E838D830FC080E991E037
:100DF0009C838B838B819C810197F1F79C838B83F0
:100E00008D819E8101979E838D838D819E81009728
:100E100069F714C06F81788589859A850E94490099
:100E2000DC01CB019E838D838D819E819A83898392
:100E300089819A810197F1F79A83898382E00E94E0
:100E400032060E94A30582E00E9432060E94A3059A
:100E500088E00E9432060E94A3058CE00E94620690
:100E600081E00E9462062E960FB6F894DEBF0FBE98
:100E7000CDBFCF91DF910895DF93CF9300D000D005
:100E8000CDB7DEB79C838B831A828B819C810097C0
:100E9000E1F019820EC08981282F30E08B819C817E
:100EA000FC01E20FF31F80810E94820689818F5F1F
:100EB00089838981282F30E08B819C81FC01E20F9E
:100EC000F31F8081882339F702C082E08A838A81F8
:100ED0000F900F900F900F90CF91DF910895DF93B7
:100EE000CF93CDB7DEB761970FB6F894DEBF0FBED4
:100EF000CDBF6E877F87888B998B1A828E859F8561
:100F0000A889B9890097A105B10521F480E30E9461
:100F1000820686C08E859F85A889B989181619060C
:100F20001A061B06D4F530C08E859F85A889B9891D
:100F30002AE030E040E050E0BC01CD010E944A22AE
:100F4000DC01CB018B838A81282F332727FD309545
:100F50004B81CE010496FC01E20FF31F40838A818E
:100F60008F5F8A838E859F85A889B9892AE030E0C2
:100F700040E050E0BC01CD010E944A22DA01C901E3
:100F80008E879F87A88BB98B8E859F85A889B98905
:100F90000097A105B10541F643C08DE20E9482068B
:100FA00037C08E859F85A889B989B095A095909501
:100FB00081959F4FAF4FBF4F2AE030E040E050E0B7
:100FC000BC01CD010E944A22DC01CB018B838A81C6
:100FD000282F332727FD30954B81CE010496FC0145
:100FE000E20FF31F40838A818F5F8A838E859F85FE
:100FF000A889B9892AE030E040E050E0BC01CD0189
:101000000E944A22DA01C9018E879F87A88BB98B7B
:101010008E859F85A889B9890097A105B10509F634
:101020008A818150898311C08981282F332727FD28
:101030003095CE010496FC01E20FF31F8081805DA4
:101040000E9482068981815089838981882364F77F
:1010500061960FB6F894DEBF0FBECDBFCF91DF9182
:101060000895DF93CF9300D00F92CDB7DEB78A8378
:101070006B838B81882319F48A81898306C08B81D5
:10108000813019F48A81805C8983898180688983B1
:1010900089810E9462060F900F900F90CF91DF918F
:1010A0000895DF93CF9300D000D000D0CDB7DEB746
:1010B0009E838D831C821B821A828D819E81009764
:1010C00051F119821CC08B816A810E94310889818B
:1010D000282F30E08D819E81FC01E20FF31F80817B
:1010E0000E9482068A81882319F481E08A8301C0E4
:1010F0001A8289818F5F89838B818F5F8B8389813E
:10110000282F30E08D819E81FC01E20FF31F80814A
:101110008823C9F602C082E08C838C8126960FB6A4
:10112000F894DEBF0FBECDBFCF91DF910895DF935E
:10113000CF93CDB7DEB727970FB6F894DEBF0FBEBB
:10114000CDBF9C838B836D834E832F838D81882FAE
:1011500090E0880F991F880F991F880F991F8A8325
:101160008A8180648A838A810E94620619820EC005
:101170008981282F30E08B819C81FC01E20FF31FD5
:1011800080810E94820689818F5F8983898188306E
:1011900078F38E816F810E9431088D810E948206D2
:1011A00027960FB6F894DEBF0FBECDBFCF91DF916B
:1011B0000895DF93CF9300D000D000D0CDB7DEB735
:1011C0006B837C838D839E838FE18A8329C09A8180
:1011D0008FE1891B60E00E9431088A81282F332724
:1011E00027FD30958B819C81AD81BE81022E04C08C
:1011F000B595A795979587950A94D2F781709070C9
:10120000A070B0700097A105B10521F480E30E94A1
:10121000820603C081E30E9482068A8181508A830C
:101220008A818031A4F68FE08A8329C09A818FE079
:10123000891B61E00E9431088A81282F332727FD0E
:1012400030958B819C81AD81BE81022E04C0B59505
:10125000A795979587950A94D2F781709070A070A2
:10126000B0700097A105B10521F480E30E948206C9
:1012700003C081E30E9482068A8181508A838A8129
:101280008823A4F626960FB6F894DEBF0FBECDBF16
:10129000CF91DF910895DF93CF93CDB7DEB72E972F
:1012A0000FB6F894DEBF0FBECDBF6B877C878D87EE
:1012B0009E8787E0898336C08B858F708A838A8179
:1012C0008A3078F48981282F332727FD30958A8149
:1012D000482F405DCE010396FC01E20FF31F4083CF
:1012E0000EC08981282F332727FD30958A81482F0A
:1012F000495CCE010396FC01E20FF31F40838B850E
:101300009C85AD85BE85689413F8B695A79597958D
:1013100087951694D1F78B879C87AD87BE87898187
:1013200081508983898188233CF6198214C0898180
:1013300060E00E9431088981282F332727FD3095EE
:10134000CE010396FC01E20FF31F80810E9482060A
:1013500089818F5F8983898188304CF32E960FB6FF
:10136000F894DEBF0FBECDBFCF91DF910895DF931C
:10137000CF9300D00F92CDB7DEB79B838A831982BB
:101380008A819B81009739F1EA81FB8180818430D9
:1013900050F0EA81FB818181883028F0EA81FB816D
:1013A00082818830A8F4EA81FB818081EA81FB8117
:1013B0009181692F40E00E94800BEA81FB8180814E
:1013C000EA81FB819281692F41E00E94800B05C078
:1013D00081E0898302C082E0898389810F900F9028
:1013E0000F90CF91DF910895DF93CF9300D00F92AC
:1013F000CDB7DEB79B838A8319828A819B81009750
:1014000039F1EA81FB818081843050F0EA81FB81EF
:101410008181883028F0EA81FB8182818830A8F4BC
:10142000EA81FB818081EA81FB819281692F40E022
:101430000E94800BEA81FB818081EA81FB8191819E
:10144000692F41E00E94800B05C081E0898302C0C2
:1014500082E0898389810F900F900F90CF91DF9167
:101460000895DF93CF9300D00F92CDB7DEB79B8363
:101470008A8319828A819B81009739F1EA81FB81F5
:101480008081843050F0EA81FB818181883028F0AE
:10149000EA81FB8182818830A8F4EA81FB81808126
:1014A000EA81FB819281692F40E00E94800BEA81F2
:1014B000FB818081EA81FB819181692F40E00E945C
:1014C000800B05C081E0898302C082E08983898125
:1014D0000F900F900F90CF91DF910895DF93CF93EE
:1014E000CDB7DEB728970FB6F894DEBF0FBECDBFDD
:1014F0008A836B834C8319828B81883008F0F4C017
:101500008C81882309F077C08A81282F30E03887C2
:101510002F838F8198858130910559F12F813885EE
:10152000223031052CF48F819885009769F060C0D6
:101530002F8138852230310589F18F81988583305C
:10154000910509F440C054C0AAE3B0E0EAE3F0E03A
:101550008081482F8B81282F30E081E090E0022E9F
:1015600002C0880F991F0A94E2F7809584238C9318
:10157000BDC0A7E3B0E0E7E3F0E08081482F8B81B6
:10158000282F30E081E090E0022E02C0880F991FE2
:101590000A94E2F7809584238C93A8C0A4E3B0E07A
:1015A000E4E3F0E08081482F8B81282F30E081E058
:1015B00090E0022E02C0880F991F0A94E2F78095EE
:1015C00084238C9393C0A1E3B0E0E1E3F0E0808159
:1015D000482F8B81282F30E081E090E0022E02C05E
:1015E000880F991F0A94E2F7809584238C937EC01C
:1015F00081E089837BC08C81813009F072C08A814F
:10160000282F30E03E832D838D819E81813091058E
:1016100049F12D813E81223031052CF48D819E814E
:10162000009761F05BC02D813E812230310571F160
:101630008D819E8183309105E9F150C0AAE3B0E02D
:10164000EAE3F0E08081482F8B81282F30E081E0B1
:1016500090E0022E02C0880F991F0A94E2F7842BB3
:101660008C9344C0A7E3B0E0E7E3F0E08081482F2B
:101670008B81282F30E081E090E0022E02C0880F9D
:10168000991F0A94E2F7842B8C9330C0A4E3B0E056
:10169000E4E3F0E08081482F8B81282F30E081E067
:1016A00090E0022E02C0880F991F0A94E2F7842B63
:1016B0008C931CC0A1E3B0E0E1E3F0E08081482F0F
:1016C0008B81282F30E081E090E0022E02C0880F4D
:1016D000991F0A94E2F7842B8C9308C081E08983D8
:1016E00005C081E0898302C081E0898389812896D1
:1016F0000FB6F894DEBF0FBECDBFCF91DF91089536
:10170000DF93CF93CDB7DEB728970FB6F894DEBF3F
:101710000FBECDBF8A836B834C8319828B81883047
:1017200008F0F4C08C81813009F072C08A81282FC2
:1017300030E038872F838F8198858130910549F17A
:101740002F813885223031052CF48F8198850097C0
:1017500061F05BC02F8138852230310571F18F81B6
:10176000988583309105E9F150C0ABE3B0E0EBE33D
:10177000F0E08081482F8B81282F30E081E090E0DD
:10178000022E02C0880F991F0A94E2F7842B8C93D3
:10179000BFC0A8E3B0E0E8E3F0E08081482F8B8190
:1017A000282F30E081E090E0022E02C0880F991FC0
:1017B0000A94E2F7842B8C93ABC0A5E3B0E0E5E399
:1017C000F0E08081482F8B81282F30E081E090E08D
:1017D000022E02C0880F991F0A94E2F7842B8C9383
:1017E00097C0A2E3B0E0E2E3F0E08081482F8B8174
:1017F000282F30E081E090E0022E02C0880F991F70
:101800000A94E2F7842B8C9383C081E0898380C0A3
:101810008C81882309F077C08A81282F30E03E83AD
:101820002D838D819E818130910559F12D813E81DD
:10183000223031052CF48D819E81009769F060C0C3
:101840002D813E812230310589F18D819E81833049
:10185000910509F440C054C0ABE3B0E0EBE3F0E025
:101860008081482F8B81282F30E081E090E0022E8C
:1018700002C0880F991F0A94E2F7809584238C9305
:1018800047C0A8E3B0E0E8E3F0E08081482F8B8117
:10189000282F30E081E090E0022E02C0880F991FCF
:1018A0000A94E2F7809584238C9332C0A5E3B0E0DC
:1018B000E5E3F0E08081482F8B81282F30E081E044
:1018C00090E0022E02C0880F991F0A94E2F78095DB
:1018D00084238C931DC0A2E3B0E0E2E3F0E08081BA
:1018E000482F8B81282F30E081E090E0022E02C04B
:1018F000880F991F0A94E2F7809584238C9308C07F
:1019000081E0898305C081E0898302C081E0898309
:10191000898128960FB6F894DEBF0FBECDBFCF9158
:10192000DF910895DF93CF93CDB7DEB727970FB63A
:10193000F894DEBF0FBECDBF8A836B835D834C837B
:1019400019828C819D81009709F47BC08B8188303E
:1019500008F074C08A81282F30E03F832E834E81A7
:101960005F814130510559F18E819F81823091050F
:1019700034F42E813F812115310569F05CC04E8120
:101980005F814230510579F18E819F8183309105CD
:1019900009F43DC050C0E9E3F0E08081282F30E039
:1019A0008B81882F90E0A90102C0559547958A95B3
:1019B000E2F7CA018170EC81FD81808344C0E6E3D7
:1019C000F0E08081282F30E08B81882F90E0A90102
:1019D00002C0559547958A95E2F7CA018170EC815E
:1019E000FD81808330C0E3E3F0E08081282F30E088
:1019F0008B81882F90E0A90102C0559547958A9563
:101A0000E2F7CA018170EC81FD8180831CC0E0E3B4
:101A1000F0E08081282F30E08B81882F90E0A901B1
:101A200002C0559547958A95E2F7CA018170EC810D
:101A3000FD81808308C081E0898305C081E08983BE
:101A400002C082E08983898127960FB6F894DEBFB1
:101A50000FBECDBFCF91DF910895DF93CF9300D01C
:101A600000D00F92CDB7DEB78A836B8319828A814B
:101A7000282F30E03D832C838C819D81813091051E
:101A8000D1F02C813D81223031052CF48C819D8157
:101A9000009761F01FC02C813D812230310581F01B
:101AA0008C819D818330910581F014C0EAE3F0E0E0
:101AB0008B81808311C0E7E3F0E08B8180830CC0D1
:101AC000E4E3F0E08B81808307C0E1E3F0E08B8109
:101AD000808302C081E0898389810F900F900F90ED
:101AE0000F900F90CF91DF910895DF93CF9300D0A7
:101AF00000D00F92CDB7DEB78A836B8319828A81BB
:101B0000282F30E03D832C838C819D81813091058D
:101B1000D1F02C813D81223031052CF48C819D81C6
:101B2000009761F01FC02C813D812230310581F08A
:101B30008C819D818330910581F014C0EBE3F0E04E
:101B40008B81808311C0E8E3F0E08B8180830CC03F
:101B5000E5E3F0E08B81808307C0E2E3F0E08B8176
:101B6000808302C081E0898389810F900F900F905C
:101B70000F900F90CF91DF910895DF93CF9300D016
:101B800000D000D0CDB7DEB78B836C831A828C81F6
:101B9000883008F01AC18B81282F30E03E832D83D6
:101BA0004D815E814130510509F455C08D819E8182
:101BB0008230910534F42D813E812115310571F07B
:101BC00001C14D815E814230510509F481C08D8192
:101BD0009E818330910509F4B8C0F4C0EBE3F0E0D6
:101BE0008081282F30E08C81882F90E0A90102C0ED
:101BF000559547958A95E2F7CA0181708983898155
:101C00008130A9F4ABE3B0E0EBE3F0E08081482F52
:101C10008C81282F30E081E090E0022E02C0880FF6
:101C2000991F0A94E2F7809584238C93D0C0ABE38C
:101C3000B0E0EBE3F0E08081482F8C81282F30E08A
:101C400081E090E0022E02C0880F991F0A94E2F70B
:101C5000842B8C93BCC0E8E3F0E08081282F30E037
:101C60008C81882F90E0A90102C0559547958A95EF
:101C7000E2F7CA018170898389818130A9F4A8E3E0
:101C8000B0E0E8E3F0E08081482F8C81282F30E03D
:101C900081E090E0022E02C0880F991F0A94E2F7BB
:101CA000809584238C9393C0A8E3B0E0E8E3F0E050
:101CB0008081482F8C81282F30E081E090E0022E37
:101CC00002C0880F991F0A94E2F7842B8C937FC07F
:101CD000E5E3F0E08081282F30E08C81882F90E0D0
:101CE000A90102C0559547958A95E2F7CA0181700E
:101CF000898389818130A9F4A5E3B0E0E5E3F0E0D0
:101D00008081482F8C81282F30E081E090E0022EE6
:101D100002C0880F991F0A94E2F7809584238C9360
:101D200056C0A5E3B0E0E5E3F0E08081482F8C8168
:101D3000282F30E081E090E0022E02C0880F991F2A
:101D40000A94E2F7842B8C9342C0E2E3F0E08081B6
:101D5000282F30E08C81882F90E0A90102C0559592
:101D600047958A95E2F7CA0181708983898181301C
:101D7000A9F4A2E3B0E0E2E3F0E08081482F8C8197
:101D8000282F30E081E090E0022E02C0880F991FDA
:101D90000A94E2F7809584238C9319C0A2E3B0E003
:101DA000E2E3F0E08081482F8C81282F30E081E051
:101DB00090E0022E02C0880F991F0A94E2F7842B4C
:101DC0008C9305C081E08A8302C081E08A838A8186
:101DD00026960FB6F894DEBF0FBECDBFCF91DF9130
:101DE0000895DF93CF93CDB7DEB7A5E5B0E0E5E585
:101DF000F0E080818E7F8C93A5E5B0E0E5E5F0E032
:101E0000808182608C93ABE5B0E0EBE5F0E080810F
:101E100080648C93A5E5B0E0E5E5F0E080818B7F00
:101E20008C93A5E5B0E0E5E5F0E0808188608C93D7
:101E3000ABE5B0E0EBE5F0E0808180688C93A4E551
:101E4000B0E0E4E5F0E080818F7B8C93ABE5B0E01F
:101E5000EBE5F0E0808180628C93CF91DF91089573
:101E6000DF93CF93CDB7DEB72B970FB6F894DEBFD5
:101E70000FBECDBF8A836B8319828A81282F30E001
:101E80003B872A878A859B858130910509F46AC042
:101E90002A853B852230310509F4C3C08A859B859C
:101EA000009709F0E1C08B81282F30E0398728871F
:101EB000888599858230910529F1288539852330D7
:101EC000310534F4888599858130910561F047C0EA
:101ED000288539852330310521F18885998584301D
:101EE000910571F13CC0A5E5B0E0E5E5F0E0808149
:101EF00081608C93A5E5B0E0E5E5F0E0808182604B
:101F00008C93B4C0A5E5B0E0E5E5F0E080818E7F7C
:101F10008C93A5E5B0E0E5E5F0E0808182608C93EC
:101F2000A5C0A5E5B0E0E5E5F0E080818E7F8C936B
:101F3000A5E5B0E0E5E5F0E080818D7F8C9396C06B
:101F4000A5E5B0E0E5E5F0E0808181608C93A5E552
:101F5000B0E0E5E5F0E080818D7F8C9387C081E083
:101F6000898384C08B81282F30E03F832E838E812C
:101F70009F818230910529F12E813F8123303105E7
:101F800034F48E819F818130910561F047C02E81AC
:101F90003F812330310521F18E819F81843091056D
:101FA00071F13CC0A5E5B0E0E5E5F0E0808184603A
:101FB0008C93A5E5B0E0E5E5F0E0808188608C9346
:101FC00055C0A5E5B0E0E5E5F0E080818B7F8C931E
:101FD000A5E5B0E0E5E5F0E0808188608C9346C03F
:101FE000A5E5B0E0E5E5F0E080818B7F8C93A5E589
:101FF000B0E0E5E5F0E08081877F8C9337C0A5E510
:10200000B0E0E5E5F0E0808184608C93A5E5B0E088
:10201000E5E5F0E08081877F8C9328C081E08983AB
:1020200025C08B81282F30E03D832C838C819D81BE
:102030008130910531F02C813D812230310549F00C
:1020400010C0A4E5B0E0E4E5F0E0808180648C930A
:102050000DC0A4E5B0E0E4E5F0E080818F7B8C93D7
:1020600005C081E0898302C081E0898389812B9644
:102070000FB6F894DEBF0FBECDBFCF91DF910895AC
:10208000DF93CF9300D000D0CDB7DEB78A8319821B
:102090008A81282F30E03C832B838B819C81813087
:1020A000910589F02B813C8122303105A1F08B8193
:1020B0009C810097C1F4ABE5B0E0EBE5F0E08081F6
:1020C00080648C9312C0ABE5B0E0EBE5F0E080817A
:1020D00080688C930AC0ABE5B0E0EBE5F0E080816E
:1020E00080628C9302C081E0898389810F900F9078
:1020F0000F900F90CF91DF910895DF93CF9300D091
:1021000000D0CDB7DEB78A8319828A81282F30E0CC
:102110003C832B838B819C818130910589F02B81BD
:102120003C8122303105A1F08B819C810097C1F464
:10213000ABE5B0E0EBE5F0E080818F7B8C9312C0E3
:10214000ABE5B0E0EBE5F0E080818F778C930AC0DF
:10215000ABE5B0E0EBE5F0E080818F7D8C9302C0D1
:1021600081E0898389810F900F900F900F90CF911C
:10217000DF910895DF93CF9300D000D0CDB7DEB7C5
:102180008A837C836B8319828B819C81009799F071
:102190008A81833068F48A81882F90E0880F991FA4
:1021A000FC01E059FE4F8B819C819183808305C0A7
:1021B00081E0898302C082E0898389810F900F903A
:1021C0000F900F90CF91DF9108951F920F920FB64D
:1021D0000F9211242F933F934F935F936F937F93AD
:1021E0008F939F93AF93BF93EF93FF93DF93CF931F
:1021F000CDB7DEB78091700190917101009729F001
:10220000E0917001F09171010995CF91DF91FF91FB
:10221000EF91BF91AF919F918F917F916F915F915E
:102220004F913F912F910F900FBE0F901F901895D7
:102230001F920F920FB60F9211242F933F934F933B
:102240005F936F937F938F939F93AF93BF93EF931E
:10225000FF93DF93CF93CDB7DEB78091720190915A
:102260007301009729F0E0917201F09173010995D3
:10227000CF91DF91FF91EF91BF91AF919F918F919E
:102280007F916F915F914F913F912F910F900FBE72
:102290000F901F9018951F920F920FB60F92112456
:1022A0002F933F934F935F936F937F938F939F935E
:1022B000AF93BF93EF93FF93DF93CF93CDB7DEB789
:1022C0008091740190917501009729F0E09174015B
:1022D000F09175010995CF91DF91FF91EF91BF9139
:1022E000AF919F918F917F916F915F914F913F91AE
:1022F0002F910F900FBE0F901F901895DF93CF93E3
:10230000CDB7DEB77894CF91DF910895DF93CF9367
:10231000CDB7DEB7F894CF91DF910895DF93CF93D7
:1023200000D000D00F92CDB7DEB78FEF8B8319822C
:102330005EC08981882F90E0FC01EC5AFE4F9081AD
:1023400082E0692F40E00E94800B1A823DC08A81A2
:10235000882F90E0FC01E05BFE4F90819E012C5F96
:102360003F4F82E0692FA9010E94920C8C81882343
:1023700041F58A81482F50E08981282F30E0CA0139
:10238000880F991F880F991F820F931FFC01E05C33
:10239000FE4F80818B830FC08A81882F90E0FC01E3
:1023A000E05BFE4F90819E012C5F3F4F82E0692FE2
:1023B000A9010E94920C8C81882371F38B818D83FB
:1023C0001CC08A818F5F8A838A81843008F4BFCFE2
:1023D0008981882F90E0FC01EC5AFE4F908182E0C9
:1023E000692F41E00E94800B89818F5F89838981F9
:1023F000843008F49ECF8B818D838D810F900F9058
:102400000F900F900F90CF91DF910895DF93CF93AE
:10241000CDB7DEB7EAE3F0E08FEF8083E7E3F0E0EB
:102420008BEF8083E4E3F0E080EF8083E1E3F0E092
:1024300080EB8083EBE3F0E01082E8E3F0E01082D1
:10244000E5E3F0E08FE08083E2E3F0E08CE080837E
:10245000CF91DF910895DF93CF9300D000D0CDB717
:10246000DEB79B838A836C8319828A819B81009764
:1024700009F445C08C818A3008F041C0EA81FB81B3
:1024800080818823D9F4EA81FB8121818C81882F86
:1024900090E0FC01E85AFE4F8081982F9095822FA2
:1024A000692F0E94750DEA81FB818381EA81FB819E
:1024B0009481692F41E00E94800B23C0EA81FB8157
:1024C00080818130C9F4EA81FB8121818C81882F50
:1024D00090E0FC01E85AFE4F9081822F692F0E9404
:1024E000750DEA81FB818381EA81FB819481692FEB
:1024F00040E00E94800B05C081E0898302C082E039
:10250000898389810F900F900F900F90CF91DF9169
:1025100008950F931F93DF93CF93CDB7DEB7CA57BC
:10252000D0400FB6F894DEBF0FBECDBFFE01EA5813
:10253000FF4F91838083FE01E858FF4F71836083D2
:10254000FE01E658FF4F4083FE01EB58FF4F10821B
:10255000FE01EA58FF4F80819181009709F4B3C7CB
:10256000FE01EA58FF4F0190F081E02D8081843018
:1025700008F0A3C7FE01EA58FF4F0190F081E02D5B
:102580008181883008F099C7FE01EA58FF4F019019
:10259000F081E02D8281883008F08FC7FE01EA5873
:1025A000FF4F0190F081E02D8381883008F085C7CE
:1025B000FE01EA58FF4F0190F081E02D84818830C0
:1025C00008F07BC7FE01E858FF4F80819181CC0164
:1025D000A0E0B0E0072E7AE0880F991FAA1FBB1F6A
:1025E0007A95D1F7702D24EB30E040E050E0BC014B
:1025F000CD010E942822DA01C901FE01EF58FF4FE8
:1026000091838083FE01E658FF4F8081882309F083
:1026100010C4FE01ED58FF4F11821082FAC3FE0173
:10262000ED58FF4F8081918183709070009709F081
:10263000FDC0FE01EA58FF4F0190F081E02D80813E
:10264000FE01EA58FF4F0190F081E02D9281692F41
:1026500041E00E94800BFE01EA58FF4F0190F0819B
:10266000E02D8081FE01EA58FF4F0190F081E02DBE
:102670009481692F41E00E94800BFE01EA58FF4FD0
:102680000190F081E02D8081FE01EA58FF4F01901A
:10269000F081E02D9381692F41E00E94800BFE01C3
:1026A000EA58FF4F0190F081E02D8081FE01EA5849
:1026B000FF4F0190F081E02D9181692F40E00E9451
:1026C000800BFE01E359FF4F80E090E0A0E0B0E412
:1026D00080839183A283B3838E0107591F4FFE012C
:1026E000E359FF4F608171818281938120E030E066
:1026F0004AE755E40E941F02DC01CB01F801808308
:102700009183A283B383FE01E759FF4F60817181FA
:102710008281938120E030E040E85FE30E9479030A
:10272000882344F4FE01E959FF4F81E090E0918352
:10273000808364C0FE01E759FF4F6081718182810F
:10274000938120E03FEF4FE757E40E9419031816EA
:102750000CF043C0FE01E359FF4F6081718182811B
:10276000938120E030E040E251E40E941F02DC014E
:10277000CB018E0109591F4FBC01CD010E944900B8
:10278000DC01CB01F801918380831FC0FE01EB596E
:10279000FF4F80E991E091838083FE01EB59FF4F69
:1027A000808191810197F1F7FE01EB59FF4F9183F1
:1027B0008083DE01A959BF4FFE01E959FF4F808197
:1027C0009181019711969C938E93FE01E959FF4FD9
:1027D000808191810097D1F611C38E0109591F4F55
:1027E000FE01E759FF4F60817181828193810E94D0
:1027F0004900DC01CB01F80191838083DE01AD59F2
:10280000BF4FFE01E959FF4F8081918111969C9342
:102810008E93FE01ED59FF4F808191810197F1F771
:10282000FE01ED59FF4F91838083E8C2FE01ED5810
:10283000FF4F80819181837090708130910509F004
:10284000FDC0FE01EA58FF4F0190F081E02D80812C
:10285000FE01EA58FF4F0190F081E02D9181692F30
:1028600041E00E94800BFE01EA58FF4F0190F08189
:10287000E02D8081FE01EA58FF4F0190F081E02DAC
:102880009481692F41E00E94800BFE01EA58FF4FBE
:102890000190F081E02D8081FE01EA58FF4F019008
:1028A000F081E02D9381692F41E00E94800BFE01B1
:1028B000EA58FF4F0190F081E02D8081FE01EA5837
:1028C000FF4F0190F081E02D9281692F40E00E943E
:1028D000800BFE01E15AFF4F80E090E0A0E0B0E401
:1028E00080839183A283B3838E01055A1F4FFE011B
:1028F000E15AFF4F608171818281938120E030E055
:102900004AE755E40E941F02DC01CB01F8018083F5
:102910009183A283B383FE01E55AFF4F60817181E9
:102920008281938120E030E040E85FE30E947903F8
:10293000882344F4FE01E75AFF4F81E090E0918341
:10294000808364C0FE01E55AFF4F608171818281FE
:10295000938120E03FEF4FE757E40E9419031816D8
:102960000CF043C0FE01E15AFF4F6081718182810A
:10297000938120E030E040E251E40E941F02DC013C
:10298000CB018E01075A1F4FBC01CD010E944900A7
:10299000DC01CB01F801918380831FC0FE01E95A5D
:1029A000FF4F80E991E091838083FE01E95AFF4F58
:1029B000808191810197F1F7FE01E95AFF4F9183E0
:1029C0008083DE01A75ABF4FFE01E75AFF4F808187
:1029D0009181019711969C938E93FE01E75AFF4FC8
:1029E000808191810097D1F609C28E01075A1F4F4D
:1029F000FE01E55AFF4F60817181828193810E94BF
:102A00004900DC01CB01F80191838083DE01AB5AE0
:102A1000BF4FFE01E75AFF4F8081918111969C9331
:102A20008E93FE01EB5AFF4F808191810197F1F760
:102A3000FE01EB5AFF4F91838083E0C1FE01ED5808
:102A4000FF4F80819181837090708230910509F0F1
:102A5000FDC0FE01EA58FF4F0190F081E02D80811A
:102A6000FE01EA58FF4F0190F081E02D9281692F1D
:102A700041E00E94800BFE01EA58FF4F0190F08177
:102A8000E02D8081FE01EA58FF4F0190F081E02D9A
:102A90009481692F41E00E94800BFE01EA58FF4FAC
:102AA0000190F081E02D8081FE01EA58FF4F0190F6
:102AB000F081E02D9181692F41E00E94800BFE01A1
:102AC000EA58FF4F0190F081E02D8081FE01EA5825
:102AD000FF4F0190F081E02D9381692F40E00E942B
:102AE000800BFE01EF5AFF4F80E090E0A0E0B0E4E1
:102AF00080839183A283B3838E01035B1F4FFE010A
:102B0000EF5AFF4F608171818281938120E030E034
:102B10004AE755E40E941F02DC01CB01F8018083E3
:102B20009183A283B383FE01E35BFF4F60817181D8
:102B30008281938120E030E040E85FE30E947903E6
:102B4000882344F4FE01E55BFF4F81E090E0918330
:102B5000808364C0FE01E35BFF4F608171818281ED
:102B6000938120E03FEF4FE757E40E9419031816C6
:102B70000CF043C0FE01EF5AFF4F608171818281EA
:102B8000938120E030E040E251E40E941F02DC012A
:102B9000CB018E01055B1F4FBC01CD010E94490096
:102BA000DC01CB01F801918380831FC0FE01E75B4C
:102BB000FF4F80E991E091838083FE01E75BFF4F47
:102BC000808191810197F1F7FE01E75BFF4F9183CF
:102BD0008083DE01A55BBF4FFE01E55BFF4F808177
:102BE0009181019711969C938E93FE01E55BFF4FB7
:102BF000808191810097D1F601C18E01055B1F4F45
:102C0000FE01E35BFF4F60817181828193810E94AD
:102C10004900DC01CB01F80191838083DE01A95BCF
:102C2000BF4FFE01E55BFF4F8081918111969C9320
:102C30008E93FE01E95BFF4F808191810197F1F74F
:102C4000FE01E95BFF4F91838083D8C0FE01ED5800
:102C5000FF4F80819181837090708330910509F0DE
:102C6000CDC0FE01EA58FF4F0190F081E02D808138
:102C7000FE01EA58FF4F0190F081E02D9181692F0C
:102C800041E00E94800BFE01EA58FF4F0190F08165
:102C9000E02D8081FE01EA58FF4F0190F081E02D88
:102CA0009281692F41E00E94800BFE01EA58FF4F9C
:102CB0000190F081E02D8081FE01EA58FF4F0190E4
:102CC000F081E02D9381692F41E00E94800BFE018D
:102CD000EA58FF4F0190F081E02D8081FE01EA5813
:102CE000FF4F0190F081E02D9481692F40E00E9418
:102CF000800BFE01ED5BFF4F80E090E0A0E0B0E4D0
:102D000080839183A283B3838E01015C1F4FFE01F8
:102D1000ED5BFF4F608171818281938120E030E023
:102D20004AE755E40E941F02DC01CB01F8018083D1
:102D30009183A283B383FE01FF96608171818281BA
:102D4000938120E030E040E85FE30E94790388232C
:102D50002CF481E090E09EAF8DAF46C0FE01FF965F
:102D6000608171818281938120E03FEF4FE757E4DA
:102D70000E941903181664F5FE01ED5BFF4F608198
:102D800071818281938120E030E040E251E40E9431
:102D90001F02DC01CB01BC01CD010E944900DC0116
:102DA000CB019EAF8DAF0FC080E991E09CAF8BAFA0
:102DB0008BAD9CAD0197F1F79CAF8BAF8DAD9EAD08
:102DC00001979EAF8DAF8DAD9EAD009769F716C090
:102DD000FE01FF9660817181828193810E9449008A
:102DE000DC01CB019EAF8DAF8DAD9EAD9AAF89AFAB
:102DF00089AD9AAD0197F1F79AAF89AFDE01AD5871
:102E0000BF4FFE01ED58FF4F8081918101968D9358
:102E10009C93FE01ED58FF4FDE01AF58BF4F20815C
:102E200031818D919C9111978217930708F0F7CB10
:102E30004FC3FE01E658FF4F8081813009F037C350
:102E4000FE01ED58FF4F1182108221C3FE01ED58A3
:102E5000FF4F8081918183709070009709F0BBC013
:102E6000FE01EA58FF4F0190F081E02D8081FE01C4
:102E7000EA58FF4F0190F081E02D9181692F41E0E8
:102E80000E94800BFE01EA58FF4F0190F081E02D77
:102E90008081FE01EA58FF4F0190F081E02D94817E
:102EA000692F41E00E94800BFE01EA58FF4F01901C
:102EB000F081E02D8081FE01EA58FF4F0190F08102
:102EC000E02D9381692F41E00E94800BFE01EA58BA
:102ED000FF4F0190F081E02D8081FE01EA58FF4F05
:102EE0000190F081E02D9481692F40E00E94800BD9
:102EF00080E090E0A0E0B0E48DAB9EABAFABB8AFAC
:102F00006DA97EA98FA998AD20E030E04AE755E48D
:102F10000E941F02DC01CB0189AB9AABABABBCAB0F
:102F200069A97AA98BA99CA920E030E040E85FE379
:102F30000E94790388232CF481E090E098AB8FA75E
:102F40003FC069A97AA98BA99CA920E03FEF4FE770
:102F500057E40E94190318164CF56DA97EA98FA994
:102F600098AD20E030E040E251E40E941F02DC0115
:102F7000CB01BC01CD010E944900DC01CB0198AB23
:102F80008FA70FC080E991E09EA78DA78DA59EA574
:102F90000197F1F79EA78DA78FA598A9019798ABE8
:102FA0008FA78FA598A9009769F766C269A97AA922
:102FB0008BA99CA90E944900DC01CB0198AB8FA78B
:102FC0008FA598A99CA78BA78BA59CA50197F1F726
:102FD0009CA78BA751C2FE01ED58FF4F80819181C4
:102FE000837090708130910509F0BBC0FE01EA58F2
:102FF000FF4F0190F081E02D8081FE01EA58FF4FE4
:103000000190F081E02D9181692F41E00E94800BB9
:10301000FE01EA58FF4F0190F081E02D8081FE0112
:10302000EA58FF4F0190F081E02D9481692F41E033
:103030000E94800BFE01EA58FF4F0190F081E02DC5
:103040008081FE01EA58FF4F0190F081E02D9281CE
:10305000692F41E00E94800BFE01EA58FF4F01906A
:10306000F081E02D8081FE01EA58FF4F0190F08150
:10307000E02D9381692F40E00E94800B80E090E07A
:10308000A0E0B0E48FA398A7A9A7BAA76FA178A5DD
:1030900089A59AA520E030E04AE755E40E941F0286
:1030A000DC01CB018BA39CA3ADA3BEA36BA17CA130
:1030B0008DA19EA120E030E040E85FE30E9479030B
:1030C00088232CF481E090E09AA389A33FC06BA1F0
:1030D0007CA18DA19EA120E03FEF4FE757E40E9425
:1030E000190318164CF56FA178A589A59AA520E0BB
:1030F00030E040E251E40E941F02DC01CB01BC0140
:10310000CD010E944900DC01CB019AA389A30FC025
:1031100080E991E098A38F8F8F8D98A10197F1F7A7
:1031200098A38F8F89A19AA101979AA389A389A1B6
:103130009AA1009769F7A0C16BA17CA18DA19EA166
:103140000E944900DC01CB019AA389A389A19AA11D
:103150009E8F8D8F8D8D9E8D0197F1F79E8F8D8F18
:103160008BC1FE01ED58FF4F80819181837090707B
:103170008230910509F0BBC0FE01EA58FF4F019073
:10318000F081E02D8081FE01EA58FF4F0190F0812F
:10319000E02D9381692F41E00E94800BFE01EA58E7
:1031A000FF4F0190F081E02D8081FE01EA58FF4F32
:1031B0000190F081E02D9481692F41E00E94800B05
:1031C000FE01EA58FF4F0190F081E02D8081FE0161
:1031D000EA58FF4F0190F081E02D9181692F41E085
:1031E0000E94800BFE01EA58FF4F0190F081E02D14
:1031F0008081FE01EA58FF4F0190F081E02D92811D
:10320000692F40E00E94800B80E090E0A0E0B0E4F5
:10321000898F9A8FAB8FBC8F698D7A8D8B8D9C8DAA
:1032200020E030E04AE755E40E941F02DC01CB01B8
:103230008D8B9E8BAF8BB88F6D897E898F89988D92
:1032400020E030E040E85FE30E94790388232CF41B
:1032500081E090E09C8B8B8B3FC06D897E898F894C
:10326000988D20E03FEF4FE757E40E9419031816AE
:103270004CF5698D7A8D8B8D9C8D20E030E040E29D
:1032800051E40E941F02DC01CB01BC01CD010E9470
:103290004900DC01CB019C8B8B8B0FC080E991E056
:1032A0009A8B898B89899A890197F1F79A8B898BF7
:1032B0008B899C8901979C8B8B8B8B899C89009730
:1032C00069F7DAC06D897E898F89988D0E944900DF
:1032D000DC01CB019C8B8B8B8B899C89988B8F8796
:1032E0008F8598890197F1F7988B8F87C5C0FE016C
:1032F000ED58FF4F808191818370907083309105EC
:1033000009F0BAC0FE01EA58FF4F0190F081E02DAC
:103310008081FE01EA58FF4F0190F081E02D9481F9
:10332000692F41E00E94800BFE01EA58FF4F019097
:10333000F081E02D8081FE01EA58FF4F0190F0817D
:10334000E02D9281692F41E00E94800BFE01EA5836
:10335000FF4F0190F081E02D8081FE01EA58FF4F80
:103360000190F081E02D9381692F41E00E94800B54
:10337000FE01EA58FF4F0190F081E02D8081FE01AF
:10338000EA58FF4F0190F081E02D9181692F40E0D4
:103390000E94800B80E090E0A0E0B0E48B879C87E7
:1033A000AD87BE876B857C858D859E8520E030E06E
:1033B0004AE755E40E941F02DC01CB018F83988706
:1033C000A987BA876F81788589859A8520E030E062
:1033D00040E85FE30E94790388232CF481E090E0C9
:1033E0009E838D833FC06F81788589859A8520E093
:1033F0003FEF4FE757E40E94190318164CF56B8511
:103400007C858D859E8520E030E040E251E40E947D
:103410001F02DC01CB01BC01CD010E944900DC018F
:10342000CB019E838D830FC080E991E09C838B83C9
:103430008B819C810197F1F79C838B838D819E8189
:1034400001979E838D838D819E81009769F714C0BB
:103450006F81788589859A850E944900DC01CB01BE
:103460009E838D838D819E819A83898389819A81B0
:103470000197F1F79A838983DE01AD58BF4FFE01B2
:10348000ED58FF4F8081918101968D939C93FE01B1
:10349000ED58FF4FDE01AF58BF4F208131818D9134
:1034A0009C9111978217930708F0D0CC11C0FE01B0
:1034B000EB58FF4F81E080830BC0FE01EB58FF4FBC
:1034C00081E0808305C0FE01EB58FF4F82E08083DE
:1034D000FE01EB58FF4F8081C658DF4F0FB6F894BE
:1034E000DEBF0FBECDBFCF91DF911F910F91089529
:1034F000DF93CF93CDB7DEB7C459D0400FB6F89461
:10350000DEBF0FBECDBFFE01EB5AFF4F1082FE01A2
:10351000EC5AFF4F1082FE01E05BFF4F10821182D8
:1035200012821382FE01E45BFF4F81E090E0A0E095
:10353000B0E080839183A283B383FE01E85BFF4FF9
:1035400081E090E0A0E0B0E080839183A283B38328
:10355000FE01EC5BFF4F1082118212821382FE018A
:10356000ED5BFF4F1082FE01EE5BFF4F1082FE010C
:10357000EF5BFF4F1082FE01FD96108211821282D6
:10358000138283E08BAFCE018F579F4FC557DF4F1C
:1035900099838883CB58D0408AE691E0C357DF4FA8
:1035A00099838883CD58D04095E0C157DF4F9883E9
:1035B000CF58D040C357DF4FE881F981CD58D04074
:1035C0000080C357DF4F88819981CD58D040019644
:1035D000C357DF4F99838883CD58D040C557DF4FFD
:1035E000E881F981CB58D0400082C557DF4F8881F0
:1035F0009981CB58D0400196C557DF4F9983888376
:10360000CB58D040C157DF4F9881CF58D040915010
:10361000C157DF4F9883CF58D040C157DF4FE88163
:10362000CF58D040EE2331F6CE018A579F4FC05776
:10363000DF4F99838883C059D04085E691E0CE560C
:10364000DF4F99838883C259D04095E0CC56DF4F35
:103650009883C459D040CE56DF4FE881F981C259D2
:10366000D0400080CE56DF4F88819981C259D0402A
:103670000196CE56DF4F99838883C259D040C057F8
:10368000DF4FE881F981C059D0400082C057DF4F39
:1036900088819981C059D0400196C057DF4F9983E6
:1036A0008883C059D040CC56DF4F9881C459D04050
:1036B0009150CC56DF4F9883C459D040CC56DF4F41
:1036C000E881C459D040EE2331F60E9406120E94D0
:1036D000A20680E060E00E94310880E690E00E944F
:1036E0003C0780E090E0AAE7B4E48DAB9EABAFABC3
:1036F000B8AF6DA97EA98FA998AD20E030E04AE768
:1037000055E40E941F02DC01CB0189AB9AABABAB45
:10371000BCAB69A97AA98BA99CA920E030E040E85C
:103720005FE30E94790388232CF481E090E098AB5A
:103730008FA73FC069A97AA98BA99CA920E03FEF78
:103740004FE757E40E94190318164CF56DA97EA99E
:103750008FA998AD20E030E040E251E40E941F02C2
:10376000DC01CB01BC01CD010E944900DC01CB0191
:1037700098AB8FA70FC080E991E09EA78DA78DA57C
:103780009EA50197F1F79EA78DA78FA598A90197F0
:1037900098AB8FA78FA598A9009769F714C069A95E
:1037A0007AA98BA99CA90E944900DC01CB0198ABA6
:1037B0008FA78FA598A99CA78BA78BA59CA50197E0
:1037C000F1F79CA78BA781E00E9462060E947E1100
:1037D0000E94F10E2BEF31E280E0B9010E94BA1095
:1037E00010927601FE01E05BFF4F1082118212827F
:1037F0001382FE01EC5BFF4F108211821282138252
:10380000FE01EB5AFF4F1082FE01EC5AFF4F10826F
:10381000ECC58BAD18160CF0D7C580E060E00E94B7
:10382000310889E690E00E943C072BADCE018A5713
:103830009F4F622F0E942B120E948E11FE01EA5AA6
:10384000FF4F8083FE01EB5AFF4F108238C0FE010C
:10385000EA5AFF4F80818F3F61F10E948E118F3FA6
:1038600011F00E948E11FE01EA5AFF4F8081882FCD
:1038700090E0A0E0B0E0BC01CD010E946F07FE0126
:10388000EB5AFF4F8081282F30E0CE01895A9F4F9D
:10389000DC01A20FB31FFE01EA5AFF4F80818C9317
:1038A000DE01AB5ABF4FFE01EB5AFF4F80818F5FA5
:1038B0008C930E948E11FE01EA5AFF4F8083FE0115
:1038C000EA5AFF4F8081853629F08091760188235E
:1038D00009F4BDCFFE01EB5AFF4F8081882379F0B8
:1038E000FE01E95AFF4F8081FE01E05BFF4F882F08
:1038F00090E0A0E0B0E080839183A283B383FE01D7
:10390000EC5AFF4F81E0808336C0FE01E05BFF4F41
:1039100080819181A281B3812AE030E040E050E0D3
:10392000BC01CD010E940922AB01BC01FE01EC5A91
:10393000FF4F8081282F30E0CE01895A9F4FFC0134
:10394000E20FF31F8081882F90E0A0E0B0E0FE013D
:10395000E05BFF4F840F951FA61FB71F80839183E5
:10396000A283B383DE01AC5ABF4FFE01EC5AFF4F76
:1039700080818F5F8C93FE01EC5AFF4FDE01AB5AC2
:10398000BF4F90818C91981708F4BFCF81E00E94BF
:103990006206FE01EB5AFF4F108280E060E00E9459
:1039A000310883E790E00E943C070E948E11FE01DF
:1039B000EA5AFF4F808338C0FE01EA5AFF4F8081E8
:1039C0008F3F61F10E948E118F3F11F00E948E1186
:1039D000FE01EA5AFF4F8081882F90E0A0E0B0E01E
:1039E000BC01CD010E946F07FE01EB5AFF4F8081A1
:1039F000282F30E0CE0189599F4FDC01A20FB31F61
:103A0000FE01EA5AFF4F80818C93DE01AB5ABF4F13
:103A1000FE01EB5AFF4F80818F5F8C930E948E11C5
:103A2000FE01EA5AFF4F8083FE01EA5AFF4F808170
:103A3000853629F080917601882309F4BDCFFE01F7
:103A4000EB5AFF4F8081882379F0FE01E959FF4F3F
:103A50008081FE01EC5BFF4F882F90E0A0E0B0E09A
:103A600080839183A283B383FE01EC5AFF4F81E0F0
:103A7000808336C0FE01EC5BFF4F80819181A28183
:103A8000B3812AE030E040E050E0BC01CD010E946B
:103A90000922AB01BC01FE01EC5AFF4F8081282FA7
:103AA00030E0CE0189599F4FFC01E20FF31F808166
:103AB000882F90E0A0E0B0E0FE01EC5BFF4F840FA8
:103AC000951FA61FB71F80839183A283B383DE0156
:103AD000AC5ABF4FFE01EC5AFF4F80818F5F8C9331
:103AE000FE01EC5AFF4FDE01AB5ABF4F90818C9123
:103AF000981708F4BFCF81E00E946206FE01EC5BDC
:103B0000FF4FDE01A45BBF4F208131814281538191
:103B10008D919D910D90BC91A02D281739074A07D2
:103B20005B0709F0CCC3FE01E05BFF4FDE01A85B41
:103B3000BF4F20813181428153818D919D910D90A4
:103B4000BC91A02D281739074A075B0709F0B7C3B6
:103B500083E08BAFABC31CAEFE01EF5BFF4F108267
:103B6000FE01FD96108211821282138280E060E0D5
:103B70000E9431088FE790E00E943C0780E061E0FE
:103B80000E9431088BE890E00E943C070E948E1151
:103B9000FE01EA5AFF4F8083FE01EA5AFF4F8081FF
:103BA0008F3F09F483C381E00E9462060E948E1158
:103BB0008F3FE1F7FE01EA5AFF4F8081813051F4D7
:103BC000FE01ED5BFF4F81E08083FE01EE5BFF4F66
:103BD00010829DC0FE01EA5AFF4F8081823051F46D
:103BE000FE01ED5BFF4F1082FE01EE5BFF4F81E0B7
:103BF00080838DC0FE01EA5AFF4F8081833009F037
:103C000086C0FE01ED5BFF4F1082FE01EE5BFF4FB1
:103C100010827DC080E060E00E943108FE01EF5B11
:103C2000FF4F80818823A9F48CE990E00E943C0733
:103C300080E061E00E94310882EA90E00E943C0747
:103C4000DE01AF5BBF4FFE01EF5BFF4F80818F5FF7
:103C50008C930E948E11FE01EA5AFF4F8083FE0171
:103C6000EA5AFF4F80818F3F09F451C00E948E11A4
:103C70008F3FE1F7FE01EA5AFF4F80818130C1F4A6
:103C800082E691E00E94B70981E00E94620680E02E
:103C900060E00E94310889EA90E00E943C0780E0E1
:103CA00061E00E94310889EB90E00E943C072FC040
:103CB000FE01EA5AFF4F80818230C1F482E691E032
:103CC0000E94F40981E00E94620680E060E00E94A8
:103CD000310888EC90E00E943C0780E061E00E949F
:103CE000310889ED90E00E943C0711C0FE01EA5ABC
:103CF000FF4F8081833059F482E691E00E94310ABF
:103D0000FE01ED5BFF4F108281E00E946206FE0122
:103D1000ED5BFF4F8081813009F0BDC2809176015B
:103D2000882309F477CFB7C280E060E00E943108B1
:103D3000FE01EF5BFF4F80818823A9F48CE990E0BE
:103D40000E943C0780E061E00E94310882EA90E036
:103D50000E943C07DE01AF5BBF4FFE01EF5BFF4FF0
:103D600080818F5F8C930E948E11FE01EA5AFF4F73
:103D70008083FE01EA5AFF4F80818F3F09F48BC296
:103D80000E948E118F3FE1F7FE01EA5AFF4F8081BA
:103D9000813009F036C181E00E94620687EE90E032
:103DA0000E943C0735C00E948E11FE01EA5AFF4F67
:103DB0008083FE01EA5AFF4F80818F3F49F1FE0167
:103DC000EA5AFF4F8081853619F180917601882368
:103DD000F9F48CAD282F332727FD3095CE01895873
:103DE0009F4FDC01A20FB31FFE01EA5AFF4F8081F3
:103DF0008C93FE01EA5AFF4F8081882F90E0A0E06B
:103E0000B0E0BC01CD010E946F078CAD8F5F8CAF1D
:103E1000FE01EA5AFF4F8081853621F080917601BC
:103E2000882309F2FE01E958FF4F8081882F90E036
:103E3000A0E0B0E0FE01FD9680839183A283B3836E
:103E400081E08AAF2DC0FE01FD9680819181A28123
:103E5000B3812AE030E040E050E0BC01CD010E9497
:103E60000922AB01BC018AAD282F332727FD3095ED
:103E7000CE0189589F4FFC01E20FF31F8081882FEC
:103E800090E0A0E0B0E0840F951FA61FB71FFE01D1
:103E9000FD9680839183A283B3838AAD8F5F8AAFBF
:103EA0009AAD8CAD98177CF280917601882309F049
:103EB000A3C081E00E94620680E060E00E943108B9
:103EC0008EEE90E00E943C0780E061E00E943108A5
:103ED00087EE90E00E943C07FE01FD968081918173
:103EE000A281B381BC01CD010E946F072DAD3EAD13
:103EF000CE018F579F4FB90141E00E94891281E0A6
:103F00000E94620680E060E00E9431088DEF90E040
:103F10000E943C0780E090E0AAE7B4E48FA398A752
:103F2000A9A7BAA76FA178A589A59AA520E030E036
:103F30004AE755E40E941F02DC01CB018BA39CA33E
:103F4000ADA3BEA36BA17CA18DA19EA120E030E01A
:103F500040E85FE30E94790388232CF481E090E03D
:103F60009AA389A33FC06BA17CA18DA19EA120E053
:103F70003FEF4FE757E40E94190318164CF56FA165
:103F800078A589A59AA520E030E040E251E40E949E
:103F90001F02DC01CB01BC01CD010E944900DC0104
:103FA000CB019AA389A30FC080E991E098A38F8FDA
:103FB0008F8D98A10197F1F798A38F8F89A19AA16E
:103FC00001979AA389A389A19AA1009769F714C0C0
:103FD0006BA17CA18DA19EA10E944900DC01CB01B7
:103FE0009AA389A389A19AA19E8F8D8F8D8D9E8D75
:103FF0000197F1F79E8F8D8FFE01EE5BFF4F1082D0
:104000004AC1FE01EA5AFF4F8081823009F036C171
:1040100081E00E94620687EE90E00E943C0731C07A
:104020000E948E11FE01EA5AFF4F8083FE01EA5A78
:10403000FF4F80818F3F29F1FE01EA5AFF4F8081B7
:104040008536F9F08CAD282F332727FD3095CE012A
:1040500089589F4FDC01A20FB31FFE01EA5AFF4FA0
:1040600080818C93FE01EA5AFF4F8081882F90E077
:10407000A0E0B0E0BC01CD010E946F078CAD8F5F66
:104080008CAFFE01EA5AFF4F8081853621F0809186
:104090007601882329F2FE01E958FF4F8081882F9D
:1040A00090E0A0E0B0E0FE01FD9680839183A283C2
:1040B000B38381E089AF2DC0FE01FD96808191819F
:1040C000A281B3812AE030E040E050E0BC01CD01A4
:1040D0000E940922AB01BC0189AD282F332727FD9F
:1040E0003095CE0189589F4FFC01E20FF31F80816C
:1040F000882F90E0A0E0B0E0840F951FA61FB71FA7
:10410000FE01FD9680839183A283B38389AD8F5F87
:1041100089AF99AD8CAD981724F4809176018823EE
:1041200059F280917601882309F0A3C081E00E94B2
:10413000620680E060E00E94310887E091E00E9422
:104140003C0780E061E00E94310887EE90E00E9429
:104150003C07FE01FD9680819181A281B381BC0163
:10416000CD010E946F072DAD3EADCE018F579F4F01
:10417000B90140E00E94891281E00E94620680E05D
:1041800060E00E9431088DEF90E00E943C0780E0E3
:1041900090E0AAE7B4E4898F9A8FAB8FBC8F698DCA
:1041A0007A8D8B8D9C8D20E030E04AE755E40E94AB
:1041B0001F02DC01CB018D8B9E8BAF8BB88F6D897D
:1041C0007E898F89988D20E030E040E85FE30E948F
:1041D000790388232CF481E090E09C8B8B8B3FC08B
:1041E0006D897E898F89988D20E03FEF4FE757E4F6
:1041F0000E94190318164CF5698D7A8D8B8D9C8D54
:1042000020E030E040E251E40E941F02DC01CB01DB
:10421000BC01CD010E944900DC01CB019C8B8B8B42
:104220000FC080E991E09A8B898B89899A890197DF
:10423000F1F79A8B898B8B899C8901979C8B8B8B4F
:104240008B899C89009769F714C06D897E898F8955
:10425000988D0E944900DC01CB019C8B8B8B8B8954
:104260009C89988B8F878F8598890197F1F7988B18
:104270008F87FE01EE5BFF4F10820DC0FE01EA5AF0
:10428000FF4F8081833039F4FE01EE5BFF4F1082D7
:1042900081E00E946206FE01EE5BFF4F808181306B
:1042A00029F480917601882309F43ECD809176012E
:1042B000882309F450CC81E00E94620681C080917D
:1042C0007601882309F07CC087E191E00E943C07D9
:1042D00080E090E0AAE7B4E48B879C87AD87BE8737
:1042E0006B857C858D859E8520E030E04AE755E42E
:1042F0000E941F02DC01CB018F839887A987BA87B0
:104300006F81788589859A8520E030E040E85FE319
:104310000E94790388232CF481E090E09E838D83B2
:104320003FC06F81788589859A8520E03FEF4FE710
:1043300057E40E94190318164CF56B857C858D8512
:104340009E8520E030E040E251E40E941F02DC0143
:10435000CB01BC01CD010E944900DC01CB019E8351
:104360008D830FC080E991E09C838B838B819C813E
:104370000197F1F79C838B838D819E8101979E83AA
:104380008D838D819E81009769F714C06F81788538
:1043900089859A850E944900DC01CB019E838D832B
:1043A0008D819E819A83898389819A810197F1F712
:1043B0009A8389838BAD81508BAF81E00E94620626
:1043C00081E00E94620611C08BAD882371F42BAD91
:1043D000CE018A579F4F622F0E942B1288E291E0F4
:1043E0000E943C078BAD81508BAF80917601882372
:1043F00009F40FCAF5C9DF93CF93CDB7DEB781E0DB
:104400008093760182E691E00E94310ACF91DF919C
:104410000895629FD001739FF001829FE00DF11D0E
:10442000649FE00DF11D929FF00D839FF00D749F2E
:10443000F00D659FF00D9927729FB00DE11DF91FDA
:10444000639FB00DE11DF91FBD01CF011124089537
:10445000A1E21A2EAA1BBB1BFD010DC0AA1FBB1F88
:10446000EE1FFF1FA217B307E407F50720F0A21BFA
:10447000B30BE40BF50B661F771F881F991F1A9467
:1044800069F760957095809590959B01AC01BD0191
:10449000CF01089597FB092E05260ED057FD04D0B5
:1044A000D7DF0AD0001C38F45095409530952195FF
:1044B0003F4F4F4F5F4F0895F6F790958095709559
:1044C00061957F4F8F4F9F4F08952F923F924F924C
:1044D0005F926F927F928F929F92AF92BF92CF9294
:1044E000DF92EF92FF920F931F93CF93DF93CDB79D
:1044F000DEB7CA1BDB0B0FB6F894DEBF0FBECDBF15
:1045000009942A88398848885F846E847D848C84E5
:104510009B84AA84B984C884DF80EE80FD800C81EE
:104520001B81AA81B981CE0FD11D0FB6F894DEBFD1
:0C4530000FBECDBFED010895F894FFCF41
:10453C0057656C636F6D652100456E74657220491B
:10454C00443A00456E74657220506173733A0031C1
:10455C002D3E4443204D4F544F5200322D3E535468
:10456C004550504552204D4F544F5200312D3E4333
:10457C005700322D3E434357004443204D4F544F78
:10458C0052204357204F4E2100322D3E4343572C8F
:10459C00332D3E53746F70004443204D4F544F5293
:1045AC0020434357204F4E2100312D3E43572C338F
:1045BC002D3E53746F7000616E676C653D005374D3
:1045CC006570204D4F544F52204357210046494EA1
:1045DC004953484544210053746570204D4F544F46
:1045EC005220434357210057726F6E672049442075
:1045FC006F7220506173730053797374656D204230
:10460C006C6F636B6564210000000000000000000B
:10461C00070809FF040506FF010203FF6500FFFF01
:10462C0000010203040506073F065B4F666D7D071C
:10463C007F6F030504010000030703040506070050
:00000001FF
