:100000000C942A000C942E100C9461100C949410F3
:100010000C9447000C9447000C9447000C94470044
:100020000C9447000C9447000C9447000C94470034
:100030000C9447000C9447000C9447000C94470024
:100040000C9447000C9447000C9447000C94470014
:100050000C94470011241FBECFE5D8E0DEBFCDBF12
:1000600010E0A0E6B0E0E4E2F8E202C005900D92F4
:10007000AA39B107D9F710E0AAE9B0E001C01D9292
:10008000A43AB107E1F70E94F9100C9410140C94F3
:100090000000EF92FF920F931F937B018C0120E0F1
:1000A00030E040E05FE40E94490388238CF0C801FF
:1000B000B70120E030E040E05FE40E94C1010E940F
:1000C000A9039B01AC01205030404040504806C07D
:1000D000C801B7010E94A9039B01AC01B901CA0183
:1000E0001F910F91FF90EF900895A0E0B0E0EBE733
:1000F000F0E00C94D913DC012B01FA019C919230B1
:1001000008F439C1EB018881823008F433C194309E
:1001100069F4843009F02FC111969C91119789815F
:10012000981709F428C1A2E9B0E025C1843009F488
:1001300021C18230A9F4923009F01DC19A01AD01AC
:1001400088E0EA010990AE01E90109929E0181501F
:10015000C1F7E201898111969C918923818308C1AD
:10016000923009F407C112962D903C901397EB0141
:100170008A819B811496AD90BD90CD90DC901797AD
:10018000EC80FD800E811F819101281B390BB90184
:1001900037FF04C066277727621B730B6032710537
:1001A0000CF061C0121613066CF537014801062EDB
:1001B00004C096948794779467940A94D2F721E0C8
:1001C00030E040E050E004C0220F331F441F551FB1
:1001D0006A95D2F721503040404050402E213F21B7
:1001E00040235123211531054105510521F021E01E
:1001F00030E040E050E079018A01E628F72808293C
:1002000019293CC0232BD1F1260E371E350146019A
:10021000062E04C096948794779467940A94D2F734
:1002200021E030E040E050E004C0220F331F441FC3
:10023000551F6A95D2F721503040404050402A2146
:100240003B214C215D21211531054105510521F04E
:1002500021E030E040E050E059016A01A628B728CB
:10026000C828D9280BC0821593052CF01C01AA249C
:10027000BB24650103C0EE24FF24870111969C91E5
:10028000D20111968C91981709F445C0992339F041
:10029000A80197012A193B094C095D0906C0A6016E
:1002A00095012E193F09400B510B57FD08C01182D3
:1002B0003382228224833583468357831DC081E0A5
:1002C00081833382228288279927DC01821B930B4A
:1002D000A40BB50B84839583A683B7830DC0220F2F
:1002E000331F441F551F24833583468357838281E0
:1002F000938101979383828324813581468157813D
:10030000DA01C9010197A109B1098F5F9F4FAF4F72
:10031000BF4328F30BC0918333822282EA0CFB1C7B
:100320000C1D1D1DE482F5820683178383E0808304
:10033000248135814681578157FF1AC0C901AA27F8
:1003400097FDA095BA2F81709070A070B0705695EF
:10035000479537952795822B932BA42BB52B848318
:100360009583A683B7838281938101969383828349
:10037000DF0101C0D201CD01CDB7DEB7E2E10C94BF
:10038000F513A0E2B0E0E7ECF1E00C94E51369832B
:100390007A838B839C832D833E834F835887E9E048
:1003A000EE2EF12CEC0EFD1ECE010196B7010E943F
:1003B000D2048E010F5E1F4FCE010596B8010E9438
:1003C000D2048A8991E089278A8BC701B801AE01DE
:1003D000475E5F4F0E9475000E94FD03A096E6E015
:1003E0000C940114A0E2B0E0E8EFF1E00C94E51306
:1003F00069837A838B839C832D833E834F835887C5
:10040000F9E0EF2EF12CEC0EFD1ECE010196B701A6
:100410000E94D2048E010F5E1F4FCE010596B801D7
:100420000E94D204C701B801AE01475E5F4F0E942F
:1004300075000E94FD03A096E6E00C940114A0E272
:10044000B0E0E5E2F2E00C94D91369837A838B8300
:100450009C832D833E834F835887CE010196BE0136
:10046000675F7F4F0E94D204CE010596BE016F5E8A
:100470007F4F0E94D2049985923088F0898982301A
:10048000C8F0943019F4823051F404C0843029F457
:10049000923081F482E990E0C6C0923049F420E0C5
:1004A0009A858A89981321E02A87CE010996BBC0D4
:1004B000823049F420E09A858A89981321E02A8BBA
:1004C000CE014196B0C02D843E844F8458886D88FB
:1004D0007E888F88988CEE24FF248701AA24BB2471
:1004E000650140E050E060E070E0E0E0F0E0C10174
:1004F00081709070892BE9F0E60CF71C081D191D1E
:100500009A01AB012A0D3B1D4C1D5D1D80E090E062
:10051000A0E0B0E0E614F7040805190520F481E036
:1005200090E0A0E0B0E0BA01A901480F591F6A1F8E
:100530007B1FAA0CBB1CCC1CDD1C97FE08C081E0F5
:1005400090E0A0E0B0E0A82AB92ACA2ADB2A3196B6
:10055000E032F10549F0660C771C881C991C569412
:10056000479437942794C3CFFA85EA892B893C892D
:100570008B859C85280F391F2E5F3F4F17C0CA01FE
:1005800081709070892B61F016950795F794E79428
:1005900080E090E0A0E0B0E8E82AF92A0A2B1B2BC3
:1005A00076956795579547952F5F3F4F77FDE7CF36
:1005B0000CC0440F551F661F771F17FD4160EE0CDE
:1005C000FF1C001F111F21503040403090E05907A0
:1005D00090E0690790E4790760F32B8F3C8FDB0193
:1005E000CA018F779070A070B07080349105A1051A
:1005F000B10561F447FD0AC0E114F10401051105DC
:1006000029F0405C5F4F6F4F7F4F40781A8EFE1786
:1006100011F081E08A8F4D8F5E8F6F8F78A383E01A
:10062000898FCE0149960E94FD03A096E2E10C94C9
:10063000F513A8E1B0E0EFE1F3E00C94E513698372
:100640007A838B839C832D833E834F83588789E0F5
:10065000E82EF12CEC0EFD1ECE010196B7010E9492
:10066000D2048E010F5E1F4FCE010596B8010E9485
:10067000D2048985823040F08989823028F0C70110
:10068000B8010E944A0501C08FEF6896E6E00C941D
:100690000114A8E1B0E0EFE4F3E00C94E513698302
:1006A0007A838B839C832D833E834F83588789E095
:1006B000E82EF12CEC0EFD1ECE010196B7010E9432
:1006C000D2048E010F5E1F4FCE010596B8010E9425
:1006D000D2048985823040F08989823028F0C701B0
:1006E000B8010E944A0501C08FEF6896E6E00C94BD
:1006F0000114A8E1B0E0EFE7F3E00C94E51369839F
:100700007A838B839C832D833E834F83588789E034
:10071000E82EF12CEC0EFD1ECE010196B7010E94D1
:10072000D2048E010F5E1F4FCE010596B8010E94C4
:10073000D2048985823040F08989823028F0C7014F
:10074000B8010E944A0501C081E06896E6E00C9479
:100750000114ACE0B0E0EFEAF3E00C94E913698334
:100760007A838B839C83CE010196BE016B5F7F4FA2
:100770000E94D2048D81823061F1823050F1843048
:1007800021F48E81882351F12EC02F81388537FDC9
:1007900020C06E812F3131051CF06623F9F023C093
:1007A0008EE190E0821B930B29853A854B855C8511
:1007B00004C056954795379527958A95D2F76623B5
:1007C000B1F050954095309521953F4F4F4F5F4F79
:1007D0000EC020E030E040E050E009C02FEF3FEFD6
:1007E0004FEF5FE704C020E030E040E050E8B9019F
:1007F000CA012C96E2E00C940514DF92EF92FF926E
:100800000F931F93FC01E480F58006811781D1804E
:100810008081823048F480E090E0A0E1B0E0E82AF6
:10082000F92A0A2B1B2BA5C0843009F49FC0823003
:1008300021F4EE24FF24870105C0E114F104010531
:10084000110519F4E0E0F0E096C0628173819FEF3A
:10085000623879070CF05BC022E83FEF261B370BAC
:100860002A3131052CF020E030E040E050E02AC091
:10087000B801A701022E04C0769567955795479554
:100880000A94D2F781E090E0A0E0B0E004C0880FC5
:10089000991FAA1FBB1F2A95D2F70197A109B10979
:1008A0008E219F21A023B1230097A105B10521F03E
:1008B00081E090E0A0E0B0E09A01AB01282B392B59
:1008C0004A2B5B2BDA01C9018F779070A070B07052
:1008D00080349105A105B10539F427FF09C0205CDA
:1008E0003F4F4F4F5F4F04C0215C3F4F4F4F5F4F13
:1008F000E0E0F0E02030A0E03A07A0E04A07A0E402
:100900005A0710F0E1E0F0E079018A0127C0603871
:10091000710564F5FB01E158FF4FD801C7018F77DE
:100920009070A070B07080349105A105B10539F4C4
:10093000E7FE0DC080E490E0A0E0B0E004C08FE3EB
:1009400090E0A0E0B0E0E80EF91E0A1F1B1F17FFA1
:1009500005C016950795F794E794319687E01695AC
:100960000795F794E7948A95D1F705C0EE24FF2404
:100970008701EFEFF0E06E2F679566276795902F60
:100980009F77D794DD24D7948E2F8695492F462BB9
:10099000582F5D29B701CA011F910F91FF90EF9069
:1009A000DF900895FC01DB01408151812281622F9B
:1009B0006F7770E0221F2227221F9381892F880FD3
:1009C000822B282F30E0991F9927991F11969C930D
:1009D000119721153105A9F54115510561057105DD
:1009E00011F482E037C082E89FEF13969C938E93B8
:1009F00012979A01AB0167E0220F331F441F551F66
:100A00006A95D1F783E08C930DC0220F331F441FEA
:100A1000551F12968D919C911397019713969C9355
:100A20008E931297203080E0380780E0480780E4FA
:100A3000580758F314962D933D934D935C93179755
:100A400008952F3F310579F4411551056105710570
:100A500019F484E08C93089564FF03C081E08C93C3
:100A600012C01C9210C02F57304013963C932E9307
:100A7000129783E08C9387E0440F551F661F771F02
:100A80008A95D1F7706414964D935D936D937C9322
:100A9000179708951F93DC01FB019C91923008F495
:100AA00047C08081823008F443C0943051F41196DD
:100AB0001C91843099F58181682F70E0611B710968
:100AC0003FC0843021F0923031F48230B9F181811D
:100AD000882389F12DC011961C9111978230F1F075
:100AE00081811817D9F412962D913C911397828128
:100AF00093818217930794F028173907BCF0149656
:100B00008D919D910D90BC91A02D248135814681C0
:100B10005781281739074A075B0718F4112341F05A
:100B20000AC082179307A407B50740F4112319F0F0
:100B300061E070E005C06FEF7FEF02C060E070E041
:100B4000CB011F910895DF93CF93CDB7DEB72E97DA
:100B50000FB6F894DEBF0FBECDBF80E062E041E08B
:100B60000E94C90A80E090E0A0E0B0E48B879C87F7
:100B7000AD87BE876B857C858D859E8520E030E0C6
:100B80004AE755E40E941F02DC01CB018F8398875E
:100B9000A987BA876F81788589859A8520E030E0BA
:100BA00040E85FE30E94790388232CF481E090E021
:100BB0009E838D833FC06F81788589859A8520E0EB
:100BC0003FEF4FE757E40E94190318164CF56B8569
:100BD0007C858D859E8520E030E040E251E40E94D6
:100BE0001F02DC01CB01BC01CD010E944900DC01E8
:100BF000CB019E838D830FC080E991E09C838B8322
:100C00008B819C810197F1F79C838B838D819E81E1
:100C100001979E838D838D819E81009769F714C013
:100C20006F81788589859A850E944900DC01CB0116
:100C30009E838D838D819E819A83898389819A8108
:100C40000197F1F79A83898380E062E040E00E9497
:100C5000C90A2E960FB6F894DEBF0FBECDBFCF9156
:100C6000DF910895DF93CF930F92CDB7DEB78983DD
:100C70008981982F917081E064E0492F0E94C90A10
:100C800089818695982F917081E065E0492F0E94B7
:100C9000C90A898186958695982F917081E066E0D2
:100CA000492F0E94C90A8981869586958695982F35
:100CB000917081E067E0492F0E94C90A0F90CF919F
:100CC000DF910895DF93CF930F92CDB7DEB789837D
:100CD00080E060E040E00E94C90A80E061E040E01E
:100CE0000E94C90A898182958F700E9432060E94F3
:100CF000A30589810E9432060E94A3050F90CF911F
:100D0000DF910895DF93CF930F92CDB7DEB789833C
:100D100080E060E041E00E94C90A80E061E040E0DC
:100D20000E94C90A898182958F700E9432060E94B2
:100D3000A30589810E9432060E94A3050F90CF91DE
:100D4000DF910895DF93CF93CDB7DEB72E970FB61F
:100D5000F894DEBF0FBECDBF80E090E0A0E2B2E429
:100D60008B879C87AD87BE876B857C858D859E85AF
:100D700020E030E04AE755E40E941F02DC01CB018D
:100D80008F839887A987BA876F81788589859A85A7
:100D900020E030E040E85FE30E94790388232CF4F0
:100DA00081E090E09E838D833FC06F817885898547
:100DB0009A8520E03FEF4FE757E40E941903181689
:100DC0004CF56B857C858D859E8520E030E040E28A
:100DD00051E40E941F02DC01CB01BC01CD010E9445
:100DE0004900DC01CB019E838D830FC080E991E037
:100DF0009C838B838B819C810197F1F79C838B83F0
:100E00008D819E8101979E838D838D819E81009728
:100E100069F714C06F81788589859A850E94490099
:100E2000DC01CB019E838D838D819E819A83898392
:100E300089819A810197F1F79A83898382E00E94E0
:100E400032060E94A30582E00E9432060E94A3059A
:100E500088E00E9432060E94A3058CE00E94620690
:100E600081E00E9462062E960FB6F894DEBF0FBE98
:100E7000CDBFCF91DF910895DF93CF9300D000D005
:100E8000CDB7DEB79C838B831A828B819C810097C0
:100E9000E1F019820EC08981282F30E08B819C817E
:100EA000FC01E20FF31F80810E94820689818F5F1F
:100EB00089838981282F30E08B819C81FC01E20F9E
:100EC000F31F8081882339F702C082E08A838A81F8
:100ED0000F900F900F900F90CF91DF910895DF93B7
:100EE000CF93CDB7DEB761970FB6F894DEBF0FBED4
:100EF000CDBF6E877F87888B998B1A828E859F8561
:100F0000A889B9890097A105B10521F480E30E9461
:100F1000820686C08E859F85A889B989181619060C
:100F20001A061B06D4F530C08E859F85A889B9891D
:100F30002AE030E040E050E0BC01CD010E949C136B
:100F4000DC01CB018B838A81282F332727FD309545
:100F50004B81CE010496FC01E20FF31F40838A818E
:100F60008F5F8A838E859F85A889B9892AE030E0C2
:100F700040E050E0BC01CD010E949C13DA01C901A0
:100F80008E879F87A88BB98B8E859F85A889B98905
:100F90000097A105B10541F643C08DE20E9482068B
:100FA00037C08E859F85A889B989B095A095909501
:100FB00081959F4FAF4FBF4F2AE030E040E050E0B7
:100FC000BC01CD010E949C13DC01CB018B838A8183
:100FD000282F332727FD30954B81CE010496FC0145
:100FE000E20FF31F40838A818F5F8A838E859F85FE
:100FF000A889B9892AE030E040E050E0BC01CD0189
:101000000E949C13DA01C9018E879F87A88BB98B38
:101010008E859F85A889B9890097A105B10509F634
:101020008A818150898311C08981282F332727FD28
:101030003095CE010496FC01E20FF31F8081805DA4
:101040000E9482068981815089838981882364F77F
:1010500061960FB6F894DEBF0FBECDBFCF91DF9182
:101060000895DF93CF9300D00F92CDB7DEB78A8378
:101070006B838B81882319F48A81898306C08B81D5
:10108000813019F48A81805C8983898180688983B1
:1010900089810E9462060F900F900F90CF91DF918F
:1010A0000895DF93CF9300D000D000D0CDB7DEB746
:1010B0009E838D831C821B821A828D819E81009764
:1010C00051F119821CC08B816A810E94310889818B
:1010D000282F30E08D819E81FC01E20FF31F80817B
:1010E0000E9482068A81882319F481E08A8301C0E4
:1010F0001A8289818F5F89838B818F5F8B8389813E
:10110000282F30E08D819E81FC01E20FF31F80814A
:101110008823C9F602C082E08C838C8126960FB6A4
:10112000F894DEBF0FBECDBFCF91DF910895DF935E
:10113000CF93CDB7DEB727970FB6F894DEBF0FBEBB
:10114000CDBF9C838B836D834E832F838D81882FAE
:1011500090E0880F991F880F991F880F991F8A8325
:101160008A8180648A838A810E94620619820EC005
:101170008981282F30E08B819C81FC01E20FF31FD5
:1011800080810E94820689818F5F8983898188306E
:1011900078F38E816F810E9431088D810E948206D2
:1011A00027960FB6F894DEBF0FBECDBFCF91DF916B
:1011B0000895DF93CF9300D000D000D0CDB7DEB735
:1011C0006B837C838D839E838FE18A8329C09A8180
:1011D0008FE1891B60E00E9431088A81282F332724
:1011E00027FD30958B819C81AD81BE81022E04C08C
:1011F000B595A795979587950A94D2F781709070C9
:10120000A070B0700097A105B10521F480E30E94A1
:10121000820603C081E30E9482068A8181508A830C
:101220008A818031A4F68FE08A8329C09A818FE079
:10123000891B61E00E9431088A81282F332727FD0E
:1012400030958B819C81AD81BE81022E04C0B59505
:10125000A795979587950A94D2F781709070A070A2
:10126000B0700097A105B10521F480E30E948206C9
:1012700003C081E30E9482068A8181508A838A8129
:101280008823A4F626960FB6F894DEBF0FBECDBF16
:10129000CF91DF910895DF93CF93CDB7DEB72E972F
:1012A0000FB6F894DEBF0FBECDBF6B877C878D87EE
:1012B0009E8787E0898336C08B858F708A838A8179
:1012C0008A3078F48981282F332727FD30958A8149
:1012D000482F405DCE010396FC01E20FF31F4083CF
:1012E0000EC08981282F332727FD30958A81482F0A
:1012F000495CCE010396FC01E20FF31F40838B850E
:101300009C85AD85BE85689413F8B695A79597958D
:1013100087951694D1F78B879C87AD87BE87898187
:1013200081508983898188233CF6198214C0898180
:1013300060E00E9431088981282F332727FD3095EE
:10134000CE010396FC01E20FF31F80810E9482060A
:1013500089818F5F8983898188304CF32E960FB6FF
:10136000F894DEBF0FBECDBFCF91DF910895DF931C
:10137000CF93CDB7DEB728970FB6F894DEBF0FBE78
:10138000CDBF8A836B834C8319828B81883008F0B0
:10139000F4C08C81882309F077C08A81282F30E03F
:1013A00038872F838F8198858130910559F12F815E
:1013B0003885223031052CF48F819885009769F0AB
:1013C00060C02F8138852230310589F18F81988561
:1013D0008330910509F440C054C0AAE3B0E0EAE3C9
:1013E000F0E08081482F8B81282F30E081E090E071
:1013F000022E02C0880F991F0A94E2F78095842379
:101400008C93BDC0A7E3B0E0E7E3F0E08081482F14
:101410008B81282F30E081E090E0022E02C0880FFF
:10142000991F0A94E2F7809584238C93A8C0A4E3C3
:10143000B0E0E4E3F0E08081482F8B81282F30E09A
:1014400081E090E0022E02C0880F991F0A94E2F713
:10145000809584238C9393C0A1E3B0E0E1E3F0E0B6
:101460008081482F8B81282F30E081E090E0022E90
:1014700002C0880F991F0A94E2F7809584238C9309
:101480007EC081E089837BC08C81813009F072C08D
:101490008A81282F30E03E832D838D819E8181308B
:1014A000910549F12D813E81223031052CF48D8149
:1014B0009E81009761F05BC02D813E812230310515
:1014C00071F18D819E8183309105E9F150C0AAE3CD
:1014D000B0E0EAE3F0E08081482F8B81282F30E0F4
:1014E00081E090E0022E02C0880F991F0A94E2F773
:1014F000842B8C9344C0A7E3B0E0E7E3F0E0808165
:10150000482F8B81282F30E081E090E0022E02C02E
:10151000880F991F0A94E2F7842B8C9330C0A4E3C0
:10152000B0E0E4E3F0E08081482F8B81282F30E0A9
:1015300081E090E0022E02C0880F991F0A94E2F722
:10154000842B8C931CC0A1E3B0E0E1E3F0E0808148
:10155000482F8B81282F30E081E090E0022E02C0DE
:10156000880F991F0A94E2F7842B8C9308C081E0BE
:10157000898305C081E0898302C081E089838981F4
:1015800028960FB6F894DEBF0FBECDBFCF91DF9186
:101590000895DF93CF93CDB7DEB728970FB6F894B1
:1015A000DEBF0FBECDBF8A836B834C8319828B81D4
:1015B000883008F0F4C08C81813009F072C08A81D3
:1015C000282F30E038872F838F81988581309105CF
:1015D00049F12F813885223031052CF48F8198858F
:1015E000009761F05BC02F8138852230310571F1A1
:1015F0008F81988583309105E9F150C0ABE3B0E06D
:10160000EBE3F0E08081482F8B81282F30E081E0F0
:1016100090E0022E02C0880F991F0A94E2F7842BF3
:101620008C93BFC0A8E3B0E0E8E3F0E08081482FEE
:101630008B81282F30E081E090E0022E02C0880FDD
:10164000991F0A94E2F7842B8C93ABC0A5E3B0E01A
:10165000E5E3F0E08081482F8B81282F30E081E0A6
:1016600090E0022E02C0880F991F0A94E2F7842BA3
:101670008C9397C0A2E3B0E0E2E3F0E08081482FD2
:101680008B81282F30E081E090E0022E02C0880F8D
:10169000991F0A94E2F7842B8C9383C081E089839D
:1016A00080C08C81882309F077C08A81282F30E0A0
:1016B0003E832D838D819E818130910559F12D814D
:1016C0003E81223031052CF48D819E81009769F096
:1016D00060C02D813E812230310589F18D819E814E
:1016E0008330910509F440C054C0ABE3B0E0EBE3B4
:1016F000F0E08081482F8B81282F30E081E090E05E
:10170000022E02C0880F991F0A94E2F78095842365
:101710008C9347C0A8E3B0E0E8E3F0E08081482F75
:101720008B81282F30E081E090E0022E02C0880FEC
:10173000991F0A94E2F7809584238C9332C0A5E325
:10174000B0E0E5E3F0E08081482F8B81282F30E086
:1017500081E090E0022E02C0880F991F0A94E2F700
:10176000809584238C931DC0A2E3B0E0E2E3F0E017
:101770008081482F8B81282F30E081E090E0022E7D
:1017800002C0880F991F0A94E2F7809584238C93F6
:1017900008C081E0898305C081E0898302C081E0BF
:1017A0008983898128960FB6F894DEBF0FBECDBF1E
:1017B000CF91DF910895DF93CF93CDB7DEB7279711
:1017C0000FB6F894DEBF0FBECDBF8A836B835D83F7
:1017D0004C8319828C819D81009709F47BC08B8199
:1017E000883008F074C08A81282F30E03F832E8330
:1017F0004E815F814130510559F18E819F81823048
:10180000910534F42E813F812115310569F05CC0CA
:101810004E815F814230510579F18E819F81833005
:10182000910509F43DC050C0E9E3F0E08081282F24
:1018300030E08B81882F90E0A90102C05595479533
:101840008A95E2F7CA018170EC81FD81808344C0F2
:10185000E6E3F0E08081282F30E08B81882F90E054
:10186000A90102C0559547958A95E2F7CA01817092
:10187000EC81FD81808330C0E3E3F0E08081282F9C
:1018800030E08B81882F90E0A90102C055954795E3
:101890008A95E2F7CA018170EC81FD8180831CC0CA
:1018A000E0E3F0E08081282F30E08B81882F90E00A
:1018B000A90102C0559547958A95E2F7CA01817042
:1018C000EC81FD81808308C081E0898305C081E0CF
:1018D000898302C082E08983898127960FB6F894B4
:1018E000DEBF0FBECDBFCF91DF910895DF93CF93C1
:1018F00000D000D00F92CDB7DEB78A836B831982F8
:101900008A81282F30E03D832C838C819D8181301A
:101910009105D1F02C813D81223031052CF48C8150
:101920009D81009761F01FC02C813D8122303105DF
:1019300081F08C819D818330910581F014C0EAE3B0
:10194000F0E08B81808311C0E7E3F0E08B8180833E
:101950000CC0E4E3F0E08B81808307C0E1E3F0E0BA
:101960008B81808302C081E0898389810F900F90F1
:101970000F900F900F90CF91DF910895DF93CF9349
:1019800000D000D00F92CDB7DEB78A836B83198267
:101990008A81282F30E03D832C838C819D8181308A
:1019A0009105D1F02C813D81223031052CF48C81C0
:1019B0009D81009761F01FC02C813D81223031054F
:1019C00081F08C819D818330910581F014C0EBE31F
:1019D000F0E08B81808311C0E8E3F0E08B818083AD
:1019E0000CC0E5E3F0E08B81808307C0E2E3F0E028
:1019F0008B81808302C081E0898389810F900F9061
:101A00000F900F900F90CF91DF910895DF93CF93B8
:101A100000D000D000D0CDB7DEB78B836C831A82A4
:101A20008C81883008F01AC18B81282F30E03E83EA
:101A30002D834D815E814130510509F455C08D8162
:101A40009E818230910534F42D813E81211531052E
:101A500071F001C14D815E814230510509F481C0B0
:101A60008D819E818330910509F4B8C0F4C0EBE309
:101A7000F0E08081282F30E08C81882F90E0A90150
:101A800002C0559547958A95E2F7CA01817089830E
:101A900089818130A9F4ABE3B0E0EBE3F0E0808131
:101AA000482F8C81282F30E081E090E0022E02C088
:101AB000880F991F0A94E2F7809584238C93D0C0F5
:101AC000ABE3B0E0EBE3F0E08081482F8C81282F7E
:101AD00030E081E090E0022E02C0880F991F0A9446
:101AE000E2F7842B8C93BCC0E8E3F0E08081282FE0
:101AF00030E08C81882F90E0A90102C05595479570
:101B00008A95E2F7CA018170898389818130A9F4BD
:101B1000A8E3B0E0E8E3F0E08081482F8C81282F33
:101B200030E081E090E0022E02C0880F991F0A94F5
:101B3000E2F7809584238C9393C0A8E3B0E0E8E3B8
:101B4000F0E08081482F8C81282F30E081E090E008
:101B5000022E02C0880F991F0A94E2F7842B8C93FF
:101B60007FC0E5E3F0E08081282F30E08C81882F72
:101B700090E0A90102C0559547958A95E2F7CA0100
:101B80008170898389818130A9F4A5E3B0E0E5E320
:101B9000F0E08081482F8C81282F30E081E090E0B8
:101BA000022E02C0880F991F0A94E2F780958423C1
:101BB0008C9356C0A5E3B0E0E5E3F0E08081482FC8
:101BC0008C81282F30E081E090E0022E02C0880F47
:101BD000991F0A94E2F7842B8C9342C0E2E3F0E071
:101BE0008081282F30E08C81882F90E0A90102C0ED
:101BF000559547958A95E2F7CA0181708983898155
:101C00008130A9F4A2E3B0E0E2E3F0E08081482F64
:101C10008C81282F30E081E090E0022E02C0880FF6
:101C2000991F0A94E2F7809584238C9319C0A2E34C
:101C3000B0E0E2E3F0E08081482F8C81282F30E093
:101C400081E090E0022E02C0880F991F0A94E2F70B
:101C5000842B8C9305C081E08A8302C081E08A8353
:101C60008A8126960FB6F894DEBF0FBECDBFCF9106
:101C7000DF910895DF93CF93CDB7DEB7A5E5B0E050
:101C8000E5E5F0E080818E7F8C93A5E5B0E0E5E5A9
:101C9000F0E0808182608C93ABE5B0E0EBE5F0E0B2
:101CA000808180648C93A5E5B0E0E5E5F0E080817B
:101CB0008B7F8C93A5E5B0E0E5E5F0E0808188605E
:101CC0008C93ABE5B0E0EBE5F0E0808180688C932D
:101CD000A4E5B0E0E4E5F0E080818F7B8C93ABE598
:101CE000B0E0EBE5F0E0808180628C93CF91DF91F2
:101CF0000895DF93CF93CDB7DEB72B970FB6F89447
:101D0000DEBF0FBECDBF8A836B8319828A81282FE5
:101D100030E03B872A878A859B858130910509F4CD
:101D20006AC02A853B852230310509F4C3C08A8503
:101D30009B85009709F0E1C08B81282F30E039871F
:101D40002887888599858230910529F128853985EC
:101D50002330310534F4888599858130910561F00F
:101D600047C0288539852330310521F1888599853B
:101D70008430910571F13CC0A5E5B0E0E5E5F0E007
:101D8000808181608C93A5E5B0E0E5E5F0E080819D
:101D900082608C93B4C0A5E5B0E0E5E5F0E0808119
:101DA0008E7F8C93A5E5B0E0E5E5F0E08081826070
:101DB0008C93A5C0A5E5B0E0E5E5F0E080818E7FDD
:101DC0008C93A5E5B0E0E5E5F0E080818D7F8C9314
:101DD00096C0A5E5B0E0E5E5F0E0808181608C93F8
:101DE000A5E5B0E0E5E5F0E080818D7F8C9387C0CC
:101DF00081E0898384C08B81282F30E03F832E834C
:101E00008E819F818230910529F12E813F8123307F
:101E1000310534F48E819F818130910561F047C096
:101E20002E813F812330310521F18E819F818430C5
:101E3000910571F13CC0A5E5B0E0E5E5F0E08081F9
:101E400084608C93A5E5B0E0E5E5F0E080818860F2
:101E50008C9355C0A5E5B0E0E5E5F0E080818B7F8F
:101E60008C93A5E5B0E0E5E5F0E0808188608C9397
:101E700046C0A5E5B0E0E5E5F0E080818B7F8C937E
:101E8000A5E5B0E0E5E5F0E08081877F8C9337C081
:101E9000A5E5B0E0E5E5F0E0808184608C93A5E500
:101EA000B0E0E5E5F0E08081877F8C9328C081E099
:101EB000898325C08B81282F30E03D832C838C8142
:101EC0009D818130910531F02C813D812230310599
:101ED00049F010C0A4E5B0E0E4E5F0E08081806462
:101EE0008C930DC0A4E5B0E0E4E5F0E080818F7B49
:101EF0008C9305C081E0898302C081E08983898158
:101F00002B960FB6F894DEBF0FBECDBFCF91DF91F9
:101F10000895DF93CF9300D000D0CDB7DEB78A838A
:101F200019828A81282F30E03C832B838B819C810E
:101F30008130910589F02B813C8122303105A1F05F
:101F40008B819C810097C1F4ABE5B0E0EBE5F0E05C
:101F5000808180648C9312C0ABE5B0E0EBE5F0E0EB
:101F6000808180688C930AC0ABE5B0E0EBE5F0E0DF
:101F7000808180628C9302C081E0898389810F9087
:101F80000F900F900F90CF91DF910895DF93CF9333
:101F900000D000D0CDB7DEB78A8319828A81282F7E
:101FA00030E03C832B838B819C818130910589F0CB
:101FB0002B813C8122303105A1F08B819C810097DF
:101FC000C1F4ABE5B0E0EBE5F0E080818F7B8C9372
:101FD00012C0ABE5B0E0EBE5F0E080818F778C9349
:101FE0000AC0ABE5B0E0EBE5F0E080818F7D8C933B
:101FF00002C081E0898389810F900F900F900F902C
:10200000CF91DF910895DF93CF9300D000D0CDB76B
:10201000DEB78A837C836B8319828B819C810097D6
:1020200099F08A81833068F48A81882F90E0880F44
:10203000991FFC01E656FF4F8B819C819183808321
:1020400005C081E0898302C082E0898389810F9085
:102050000F900F900F90CF91DF9108951F920F92E4
:102060000FB60F9211242F933F934F935F936F936B
:102070007F938F939F93AF93BF93EF93FF93DF93E0
:10208000CF93CDB7DEB780919A0090919B000097D7
:1020900029F0E0919A00F0919B000995CF91DF9192
:1020A000FF91EF91BF91AF919F918F917F916F9130
:1020B0005F914F913F912F910F900FBE0F901F9006
:1020C00018951F920F920FB60F9211242F933F93E2
:1020D0004F935F936F937F938F939F93AF93BF9330
:1020E000EF93FF93DF93CF93CDB7DEB780919C0042
:1020F00090919D00009729F0E0919C00F0919D0047
:102100000995CF91DF91FF91EF91BF91AF919F9191
:102110008F917F916F915F914F913F912F910F9090
:102120000FBE0F901F9018951F920F920FB60F922F
:1021300011242F933F934F935F936F937F938F93CC
:102140009F93AF93BF93EF93FF93DF93CF93CDB75D
:10215000DEB780919E0090919F00009729F0E0915A
:102160009E00F0919F000995CF91DF91FF91EF9133
:10217000BF91AF919F918F917F916F915F914F919F
:102180003F912F910F900FBE0F901F901895DF93E6
:10219000CF93CDB7DEB77894CF91DF910895DF93D9
:1021A000CF93CDB7DEB7F894CF91DF910895DF9349
:1021B000CF93CDB7DEB7EAE3F0E087E08083E7E3D3
:1021C000F0E080EF8083E4E3F0E01082E1E3F0E010
:1021D0001082EBE3F0E01082E8E3F0E01082E5E348
:1021E000F0E01082E2E3F0E08CE08083CF91DF91B9
:1021F0000895DF93CF93CDB7DEB7AB970FB6F894C2
:10220000DEBF0FBECDBF0E94D7100E94A20680E0A5
:1022100090E0A8ECB2E48FA398A7A9A7BAA76FA1F2
:1022200078A589A59AA520E030E04AE755E40E9408
:102230001F02DC01CB018BA39CA3ADA3BEA36BA1AA
:102240007CA18DA19EA120E030E040E85FE30E94E8
:10225000790388232CF481E090E09AA389A33FC0FE
:102260006BA17CA18DA19EA120E03FEF4FE757E439
:102270000E94190318164CF56FA178A589A59AA597
:1022800020E030E040E251E40E941F02DC01CB017B
:10229000BC01CD010E944900DC01CB019AA389A3B6
:1022A0000FC080E991E098A38F8F8F8D98A101973F
:1022B000F1F798A38F8F89A19AA101979AA389A377
:1022C00089A19AA1009769F714C06BA17CA18DA187
:1022D0009EA10E944900DC01CB019AA389A389A198
:1022E0009AA19E8F8D8F8D8D9E8D0197F1F79E8F78
:1022F0008D8F0E94C7100E943A0E29EE32E180E0D5
:10230000B9010E94031026E233E181E0B9010E9485
:10231000031023E633E182E0B9010E94031090919B
:10232000A00080E0692F0E94310889E50E948206A2
:102330009091A1008FE0692F0E94310889E50E94E9
:1023400082068091A300882309F09EC081E08BA7BC
:1023500087C09091A2008BA5692F0E9431088EE260
:102360000E94820680E090E0A8ECB2E4898F9A8F08
:10237000AB8FBC8F698D7A8D8B8D9C8D20E030E08A
:102380004AE755E40E941F02DC01CB018D8B9E8B36
:10239000AF8BB88F6D897E898F89988D20E030E072
:1023A00040E85FE30E94790388232CF481E090E009
:1023B0009C8B8B8B3FC06D897E898F89988D20E0A7
:1023C0003FEF4FE757E40E94190318164CF5698D4B
:1023D0007A8D8B8D9C8D20E030E040E251E40E94AC
:1023E0001F02DC01CB01BC01CD010E944900DC01D0
:1023F000CB019C8B8B8B0FC080E991E09A8B898BF2
:1024000089899A890197F1F79A8B898B8B899C89A5
:1024100001979C8B8B8B8B899C89009769F714C0E3
:102420006D897E898F89988D0E944900DC01CB01DE
:102430009C8B8B8B8B899C89988B8F878F859889B8
:102440000197F1F7988B8F879091A2008BA5692F48
:102450000E94310880E20E9482068BA58F5F8BA7C5
:102460008BA58F3008F475CF9091A2008091A100C8
:10247000981751F081E08093A30081E00E946206EA
:1024800080E690E00E943C078091A300882309F039
:1024900058CF8EE08BA787C09091A2008BA5692FA3
:1024A0000E9431088EE20E94820680E090E0A8EC53
:1024B000B2E48B879C87AD87BE876B857C858D85D5
:1024C0009E8520E030E04AE755E40E941F02DC01CF
:1024D000CB018F839887A987BA876F817885898593
:1024E0009A8520E030E040E85FE30E94790388238A
:1024F0002CF481E090E09E838D833FC06F817885CE
:1025000089859A8520E03FEF4FE757E40E94190341
:1025100018164CF56B857C858D859E8520E030E016
:1025200040E251E40E941F02DC01CB01BC01CD015D
:102530000E944900DC01CB019E838D830FC080E99E
:1025400091E09C838B838B819C810197F1F79C8325
:102550008B838D819E8101979E838D838D819E814A
:10256000009769F714C06F81788589859A850E94E4
:102570004900DC01CB019E838D838D819E819A83EE
:10258000898389819A810197F1F79A838983909150
:10259000A2008BA5692F0E94310880E20E9482066A
:1025A0008BA581508BA78BA5882309F075CF9091BF
:1025B000A2008091A000981709F4C3CE81E0809317
:1025C000A30081E00E94620681E790E00E943C0740
:1025D000B8CEDF93CF93CDB7DEB78091A300882329
:1025E00091F58091A0008823B1F49091A00080E043
:1025F000692F0E94310880E20E94820681E0809368
:10260000A0009091A00080E0692F0E94310889E528
:102610000E94820618C08091A0008130A1F49091A0
:10262000A00080E0692F0E94310880E20E948206AB
:102630001092A0009091A00080E0692F0E943108C4
:1026400089E50E948206CF91DF910895DF93CF93B1
:10265000CDB7DEB78091A300882391F58091A100CA
:102660008823B1F49091A1008FE0692F0E94310876
:1026700080E20E94820681E08093A1009091A100F7
:102680008FE0692F0E94310889E50E94820618C0F8
:102690008091A1008130A1F49091A1008FE0692F79
:1026A0000E94310880E20E9482061092A10090915F
:1026B000A1008FE0692F0E94310889E50E948206FF
:1026C000CF91DF910895DF93CF93CDB7DEB780919F
:1026D000A300882371F58091A2008823A1F481E0F2
:1026E0008093A20081E060E00E94310883E890E0DE
:1026F0000E943C0781E061E00E94310883E890E09D
:102700000E943C0716C08091A200813091F4109283
:10271000A20081E060E00E94310883E890E00E941E
:102720003C0781E061E00E94310883E890E00E946C
:102730003C07CF91DF91089597FB092E05260ED017
:1027400057FD04D014D00AD0001C38F450954095A1
:10275000309521953F4F4F4F5F4F0895F6F7909575
:102760008095709561957F4F8F4F9F4F0895A1E29F
:102770001A2EAA1BBB1BFD010DC0AA1FBB1FEE1FFB
:10278000FF1FA217B307E407F50720F0A21BB30B46
:10279000E40BF50B661F771F881F991F1A9469F7C2
:1027A00060957095809590959B01AC01BD01CF011E
:1027B00008952F923F924F925F926F927F928F92E5
:1027C0009F92AF92BF92CF92DF92EF92FF920F93C0
:1027D0001F93CF93DF93CDB7DEB7CA1BDB0B0FB6CA
:1027E000F894DEBF0FBECDBF09942A883988488887
:1027F0005F846E847D848C849B84AA84B984C8841D
:10280000DF80EE80FD800C811B81AA81B981CE0F13
:10281000D11D0FB6F894DEBF0FBECDBFED010895F8
:04282000F894FFCF5A
:102824004C65667420706C617965722077696E738B
:1028340000526967687420706C61796572207769E9
:102844006E73002020202020202020202020202003
:0A285400200000000000000000005A
:00000001FF
