:100000000C942A000C943F000C943F000C943F0089
:100010000C943F000C943F000C943F000C943F0064
:100020000C943F000C943F000C943F000C943F0054
:100030000C943F000C943F000C943F000C943F0044
:100040000C943F000C943F000C943F000C943F0034
:100050000C943F0011241FBECFE5D8E0DEBFCDBF1A
:1000600010E0A0E6B0E0ECE2FAE202C005900D92EA
:10007000AA38B107D9F70E94CC0E0C9414150C9431
:100080000000EF92FF920F931F937B018C0120E001
:1000900030E040E05FE40E94410388238CF0C80117
:1000A000B70120E030E040E05FE40E94B9010E9427
:1000B000A1039B01AC01205030404040504806C095
:1000C000C801B7010E94A1039B01AC01B901CA019B
:1000D0001F910F91FF90EF900895A0E0B0E0E3E74B
:1000E000F0E00C94DD14DC012B01FA019C919230BC
:1000F00008F439C1EB018881823008F433C19430AF
:1001000069F4843009F02FC111969C91119789816F
:10011000981709F428C1AAE6B0E025C1843009F493
:1001200021C18230A9F4923009F01DC19A01AD01BC
:1001300088E0EA010990AE01E90109929E0181502F
:10014000C1F7E201898111969C918923818308C1BD
:10015000923009F407C112962D903C901397EB0151
:100160008A819B811496AD90BD90CD90DC901797BD
:10017000EC80FD800E811F819101281B390BB90194
:1001800037FF04C066277727621B730B6032710547
:100190000CF061C0121613066CF537014801062EEB
:1001A00004C096948794779467940A94D2F721E0D8
:1001B00030E040E050E004C0220F331F441F551FC1
:1001C0006A95D2F721503040404050402E213F21C7
:1001D00040235123211531054105510521F021E02E
:1001E00030E040E050E079018A01E628F72808294C
:1001F00019293CC0232BD1F1260E371E35014601AB
:10020000062E04C096948794779467940A94D2F744
:1002100021E030E040E050E004C0220F331F441FD3
:10022000551F6A95D2F721503040404050402A2156
:100230003B214C215D21211531054105510521F05E
:1002400021E030E040E050E059016A01A628B728DB
:10025000C828D9280BC0821593052CF01C01AA24AC
:10026000BB24650103C0EE24FF24870111969C91F5
:10027000D20111968C91981709F445C0992339F051
:10028000A80197012A193B094C095D0906C0A6017E
:1002900095012E193F09400B510B57FD08C01182E3
:1002A0003382228224833583468357831DC081E0B5
:1002B00081833382228288279927DC01821B930B5A
:1002C000A40BB50B84839583A683B7830DC0220F3F
:1002D000331F441F551F24833583468357838281F0
:1002E000938101979383828324813581468157814D
:1002F000DA01C9010197A109B1098F5F9F4FAF4F83
:10030000BF4328F30BC0918333822282EA0CFB1C8B
:100310000C1D1D1DE482F5820683178383E0808314
:10032000248135814681578157FF1AC0C901AA2708
:1003300097FDA095BA2F81709070A070B0705695FF
:10034000479537952795822B932BA42BB52B848328
:100350009583A683B7838281938101969383828359
:10036000DF0101C0D201CD01CDB7DEB7E2E10C94CF
:10037000F914A0E2B0E0EFEBF1E00C94E91469832A
:100380007A838B839C832D833E834F835887E9E058
:10039000EE2EF12CEC0EFD1ECE010196B7010E944F
:1003A000CA048E010F5E1F4FCE010596B8010E9450
:1003B000CA048A8991E089278A8BC701B801AE01F6
:1003C000475E5F4F0E946D000E94F503A096E6E035
:1003D0000C940515A0E2B0E0E0EFF1E00C94E91414
:1003E00069837A838B839C832D833E834F835887D5
:1003F000F9E0EF2EF12CEC0EFD1ECE010196B701B7
:100400000E94CA048E010F5E1F4FCE010596B801EF
:100410000E94CA04C701B801AE01475E5F4F0E9447
:100420006D000E94F503A096E6E00C940515A0E28D
:10043000B0E0EDE1F2E00C94DD1469837A838B8304
:100440009C832D833E834F835887CE010196BE0146
:10045000675F7F4F0E94CA04CE010596BE016F5EA2
:100460007F4F0E94CA049985923088F08989823032
:10047000C8F0943019F4823051F404C0843029F467
:10048000923081F48AE690E0C6C0923049F420E0D0
:100490009A858A89981321E02A87CE010996BBC0E4
:1004A000823049F420E09A858A89981321E02A8BCA
:1004B000CE014196B0C02D843E844F8458886D880B
:1004C0007E888F88988CEE24FF248701AA24BB2481
:1004D000650140E050E060E070E0E0E0F0E0C10184
:1004E00081709070892BE9F0E60CF71C081D191D2E
:1004F0009A01AB012A0D3B1D4C1D5D1D80E090E073
:10050000A0E0B0E0E614F7040805190520F481E046
:1005100090E0A0E0B0E0BA01A901480F591F6A1F9E
:100520007B1FAA0CBB1CCC1CDD1C97FE08C081E005
:1005300090E0A0E0B0E0A82AB92ACA2ADB2A3196C6
:10054000E032F10549F0660C771C881C991C569422
:10055000479437942794C3CFFA85EA892B893C893D
:100560008B859C85280F391F2E5F3F4F17C0CA010E
:1005700081709070892B61F016950795F794E79438
:1005800080E090E0A0E0B0E8E82AF92A0A2B1B2BD3
:1005900076956795579547952F5F3F4F77FDE7CF46
:1005A0000CC0440F551F661F771F17FD4160EE0CEE
:1005B000FF1C001F111F21503040403090E05907B0
:1005C00090E0690790E4790760F32B8F3C8FDB01A3
:1005D000CA018F779070A070B07080349105A1052A
:1005E000B10561F447FD0AC0E114F10401051105EC
:1005F00029F0405C5F4F6F4F7F4F40781A8EFE1797
:1006000011F081E08A8F4D8F5E8F6F8F78A383E02A
:10061000898FCE0149960E94F503A096E2E10C94E1
:10062000F914A8E1B0E0E7E1F3E00C94E914698380
:100630007A838B839C832D833E834F83588789E005
:10064000E82EF12CEC0EFD1ECE010196B7010E94A2
:10065000CA048E010F5E1F4FCE010596B8010E949D
:10066000CA048985823040F08989823028F0C70128
:10067000B8010E94420501C08FEF6896E6E00C9435
:100680000515A8E1B0E0E7E4F3E00C94E914698310
:100690007A838B839C832D833E834F83588789E0A5
:1006A000E82EF12CEC0EFD1ECE010196B7010E9442
:1006B000CA048E010F5E1F4FCE010596B8010E943D
:1006C000CA048985823040F08989823028F0C701C8
:1006D000B8010E94420501C08FEF6896E6E00C94D5
:1006E0000515A8E1B0E0E7E7F3E00C94E9146983AD
:1006F0007A838B839C832D833E834F83588789E045
:10070000E82EF12CEC0EFD1ECE010196B7010E94E1
:10071000CA048E010F5E1F4FCE010596B8010E94DC
:10072000CA048985823040F08989823028F0C70167
:10073000B8010E94420501C081E06896E6E00C9491
:100740000515ACE0B0E0E7EAF3E00C94ED14698342
:100750007A838B839C83CE010196BE016B5F7F4FB2
:100760000E94CA048D81823061F1823050F1843060
:1007700021F48E81882351F12EC02F81388537FDD9
:1007800020C06E812F3131051CF06623F9F023C0A3
:100790008EE190E0821B930B29853A854B855C8521
:1007A00004C056954795379527958A95D2F76623C5
:1007B000B1F050954095309521953F4F4F4F5F4F89
:1007C0000EC020E030E040E050E009C02FEF3FEFE6
:1007D0004FEF5FE704C020E030E040E050E8B901AF
:1007E000CA012C96E2E00C940915DF92EF92FF9279
:1007F0000F931F93FC01E480F58006811781D1805F
:100800008081823048F480E090E0A0E1B0E0E82A06
:10081000F92A0A2B1B2BA5C0843009F49FC0823013
:1008200021F4EE24FF24870105C0E114F104010541
:10083000110519F4E0E0F0E096C0628173819FEF4A
:10084000623879070CF05BC022E83FEF261B370BBC
:100850002A3131052CF020E030E040E050E02AC0A1
:10086000B801A701022E04C0769567955795479564
:100870000A94D2F781E090E0A0E0B0E004C0880FD5
:10088000991FAA1FBB1F2A95D2F70197A109B10989
:100890008E219F21A023B1230097A105B10521F04E
:1008A00081E090E0A0E0B0E09A01AB01282B392B69
:1008B0004A2B5B2BDA01C9018F779070A070B07062
:1008C00080349105A105B10539F427FF09C0205CEA
:1008D0003F4F4F4F5F4F04C0215C3F4F4F4F5F4F23
:1008E000E0E0F0E02030A0E03A07A0E04A07A0E412
:1008F0005A0710F0E1E0F0E079018A0127C0603882
:10090000710564F5FB01E158FF4FD801C7018F77EE
:100910009070A070B07080349105A105B10539F4D4
:10092000E7FE0DC080E490E0A0E0B0E004C08FE3FB
:1009300090E0A0E0B0E0E80EF91E0A1F1B1F17FFB1
:1009400005C016950795F794E794319687E01695BC
:100950000795F794E7948A95D1F705C0EE24FF2414
:100960008701EFEFF0E06E2F679566276795902F70
:100970009F77D794DD24D7948E2F8695492F462BC9
:10098000582F5D29B701CA011F910F91FF90EF9079
:10099000DF900895FC01DB01408151812281622FAB
:1009A0006F7770E0221F2227221F9381892F880FE3
:1009B000822B282F30E0991F9927991F11969C931D
:1009C000119721153105A9F54115510561057105ED
:1009D00011F482E037C082E89FEF13969C938E93C8
:1009E00012979A01AB0167E0220F331F441F551F76
:1009F0006A95D1F783E08C930DC0220F331F441FFB
:100A0000551F12968D919C911397019713969C9365
:100A10008E931297203080E0380780E0480780E40A
:100A2000580758F314962D933D934D935C93179765
:100A300008952F3F310579F4411551056105710580
:100A400019F484E08C93089564FF03C081E08C93D3
:100A500012C01C9210C02F57304013963C932E9317
:100A6000129783E08C9387E0440F551F661F771F12
:100A70008A95D1F7706414964D935D936D937C9332
:100A8000179708951F93DC01FB019C91923008F4A5
:100A900047C08081823008F443C0943051F41196ED
:100AA0001C91843099F58181682F70E0611B710978
:100AB0003FC0843021F0923031F48230B9F181812D
:100AC000882389F12DC011961C9111978230F1F085
:100AD00081811817D9F412962D913C911397828138
:100AE00093818217930794F028173907BCF0149666
:100AF0008D919D910D90BC91A02D248135814681D1
:100B00005781281739074A075B0718F4112341F06A
:100B10000AC082179307A407B50740F4112319F000
:100B200061E070E005C06FEF7FEF02C060E070E051
:100B3000CB011F910895DF93CF93CDB7DEB72E97EA
:100B40000FB6F894DEBF0FBECDBF82E062E041E099
:100B50000E94C00A80E090E0A0E0B0E48B879C8710
:100B6000AD87BE876B857C858D859E8520E030E0D6
:100B70004AE755E40E941702DC01CB018F83988776
:100B8000A987BA876F81788589859A8520E030E0CA
:100B900040E85FE30E94710388232CF481E090E039
:100BA0009E838D833FC06F81788589859A8520E0FB
:100BB0003FEF4FE757E40E94110318164CF56B8581
:100BC0007C858D859E8520E030E040E251E40E94E6
:100BD0001702DC01CB01BC01CD010E944100DC0108
:100BE000CB019E838D830FC080E991E09C838B8332
:100BF0008B819C810197F1F79C838B838D819E81F2
:100C000001979E838D838D819E81009769F714C023
:100C10006F81788589859A850E944100DC01CB012E
:100C20009E838D838D819E819A83898389819A8118
:100C30000197F1F79A83898382E062E040E00E94A5
:100C4000C00A2E960FB6F894DEBF0FBECDBFCF916F
:100C5000DF910895DF93CF930F92CDB7DEB78983ED
:100C60008981982F917081E064E0492F0E94C00A29
:100C700089818695982F917081E065E0492F0E94C7
:100C8000C00A898186958695982F917081E066E0EB
:100C9000492F0E94C00A8981869586958695982F4E
:100CA000917081E067E0492F0E94C00A0F90CF91B8
:100CB000DF910895DF93CF930F92CDB7DEB789838D
:100CC00082E060E040E00E94C00A82E061E040E033
:100CD0000E94C00A898182958F700E942A060E9414
:100CE0009B0589810E942A060E949B050F90CF9147
:100CF000DF910895DF93CF930F92CDB7DEB789834D
:100D000082E060E041E00E94C00A82E061E040E0F1
:100D10000E94C00A898182958F700E942A060E94D3
:100D20009B0589810E942A060E949B050F90CF9106
:100D3000DF910895DF93CF93CDB7DEB72E970FB62F
:100D4000F894DEBF0FBECDBF80E090E0A0E2B2E439
:100D50008B879C87AD87BE876B857C858D859E85BF
:100D600020E030E04AE755E40E941702DC01CB01A5
:100D70008F839887A987BA876F81788589859A85B7
:100D800020E030E040E85FE30E94710388232CF408
:100D900081E090E09E838D833FC06F817885898557
:100DA0009A8520E03FEF4FE757E40E9411031816A1
:100DB0004CF56B857C858D859E8520E030E040E29A
:100DC00051E40E941702DC01CB01BC01CD010E945D
:100DD0004100DC01CB019E838D830FC080E991E04F
:100DE0009C838B838B819C810197F1F79C838B8300
:100DF0008D819E8101979E838D838D819E81009739
:100E000069F714C06F81788589859A850E944100B1
:100E1000DC01CB019E838D838D819E819A838983A2
:100E200089819A810197F1F79A83898382E00E94F0
:100E30002A060E949B0582E00E942A060E949B05CA
:100E400088E00E942A060E949B058CE00E945A06B8
:100E500081E00E945A062E960FB6F894DEBF0FBEB0
:100E6000CDBFCF91DF910895DF93CF9300D000D015
:100E7000CDB7DEB79C838B831A828B819C810097D0
:100E8000E1F019820EC08981282F30E08B819C818E
:100E9000FC01E20FF31F80810E947A0689818F5F37
:100EA00089838981282F30E08B819C81FC01E20FAE
:100EB000F31F8081882339F702C082E08A838A8108
:100EC0000F900F900F900F90CF91DF910895DF93C7
:100ED000CF93CDB7DEB761970FB6F894DEBF0FBEE4
:100EE000CDBF6E877F87888B998B1A828E859F8571
:100EF000A889B9890097A105B10521F480E30E9472
:100F00007A0686C08E859F85A889B9891816190624
:100F10001A061B06D4F530C08E859F85A889B9892D
:100F20002AE030E040E050E0BC01CD010E94A01476
:100F3000DC01CB018B838A81282F332727FD309555
:100F40004B81CE010496FC01E20FF31F40838A819E
:100F50008F5F8A838E859F85A889B9892AE030E0D2
:100F600040E050E0BC01CD010E94A014DA01C901AB
:100F70008E879F87A88BB98B8E859F85A889B98915
:100F80000097A105B10541F643C08DE20E947A06A3
:100F900037C08E859F85A889B989B095A095909511
:100FA00081959F4FAF4FBF4F2AE030E040E050E0C7
:100FB000BC01CD010E94A014DC01CB018B838A818E
:100FC000282F332727FD30954B81CE010496FC0155
:100FD000E20FF31F40838A818F5F8A838E859F850E
:100FE000A889B9892AE030E040E050E0BC01CD0199
:100FF0000E94A014DA01C9018E879F87A88BB98B44
:101000008E859F85A889B9890097A105B10509F644
:101010008A818150898311C08981282F332727FD38
:101020003095CE010496FC01E20FF31F8081805DB4
:101030000E947A068981815089838981882364F797
:1010400061960FB6F894DEBF0FBECDBFCF91DF9192
:101050000895DF93CF9300D00F92CDB7DEB78A8388
:101060006B838B81882319F48A81898306C08B81E5
:10107000813019F48A81805C8983898180688983C1
:1010800089810E945A060F900F900F90CF91DF91A7
:101090000895DF93CF9300D000D000D0CDB7DEB756
:1010A0009E838D831C821B821A828D819E81009774
:1010B00051F119821CC08B816A810E9429088981A3
:1010C000282F30E08D819E81FC01E20FF31F80818B
:1010D0000E947A068A81882319F481E08A8301C0FC
:1010E0001A8289818F5F89838B818F5F8B8389814E
:1010F000282F30E08D819E81FC01E20FF31F80815B
:101100008823C9F602C082E08C838C8126960FB6B4
:10111000F894DEBF0FBECDBFCF91DF910895DF936E
:10112000CF93CDB7DEB727970FB6F894DEBF0FBECB
:10113000CDBF9C838B836D834E832F838D81882FBE
:1011400090E0880F991F880F991F880F991F8A8335
:101150008A8180648A838A810E945A0619820EC01D
:101160008981282F30E08B819C81FC01E20FF31FE5
:1011700080810E947A0689818F5F89838981883086
:1011800078F38E816F810E9429088D810E947A06F2
:1011900027960FB6F894DEBF0FBECDBFCF91DF917B
:1011A0000895DF93CF9300D000D00F92CDB7DEB774
:1011B0006A837B838C839D838FE1898329C0998196
:1011C0008FE1891B60E00E9429088981282F33273D
:1011D00027FD30958A819B81AC81BD81022E04C0A0
:1011E000B595A795979587950A94D2F781709070D9
:1011F000A070B0700097A105B10521F480E30E94B2
:101200007A0603C081E30E947A068981815089832E
:1012100089818031A4F68FE0898329C099818FE08C
:10122000891B61E00E9429088981282F332727FD27
:1012300030958A819B81AC81BD81022E04C0B59519
:10124000A795979587950A94D2F781709070A070B2
:10125000B0700097A105B10521F480E30E947A06E1
:1012600003C081E30E947A06898181508983898144
:101270008823A4F60F900F900F900F900F90CF91AE
:10128000DF910895DF93CF93CDB7DEB72E970FB6DA
:10129000F894DEBF0FBECDBF6B877C878D879E879E
:1012A00087E0898336C08B858F708A838A818A30F4
:1012B00078F48981282F332727FD30958A81482F9C
:1012C000405DCE010396FC01E20FF31F40830EC088
:1012D0008981282F332727FD30958A81482F495C43
:1012E000CE010396FC01E20FF31F40838B859C85A2
:1012F000AD85BE85689413F8B695A79597958795A3
:101300001694D1F78B879C87AD87BE8789818150E2
:101310008983898188233CF6198214C0898160E021
:101320000E9429088981282F332727FD3095CE0177
:101330000396FC01E20FF31F80810E947A068981E7
:101340008F5F8983898188304CF32E960FB6F8948D
:10135000DEBF0FBECDBFCF91DF910895DF93CF9356
:10136000CDB7DEB728970FB6F894DEBF0FBECDBF5E
:101370008A836B834C8319828B81883008F0F4C098
:101380008C81882309F077C08A81282F30E0388744
:101390002F838F8198858130910559F12F81388570
:1013A000223031052CF48F819885009769F060C058
:1013B0002F8138852230310589F18F8198858330DE
:1013C000910509F440C054C0AAE3B0E0EAE3F0E0BC
:1013D0008081482F8B81282F30E081E090E0022E21
:1013E00002C0880F991F0A94E2F7809584238C939A
:1013F000BDC0A7E3B0E0E7E3F0E08081482F8B8138
:10140000282F30E081E090E0022E02C0880F991F63
:101410000A94E2F7809584238C93A8C0A4E3B0E0FB
:10142000E4E3F0E08081482F8B81282F30E081E0D9
:1014300090E0022E02C0880F991F0A94E2F780956F
:1014400084238C9393C0A1E3B0E0E1E3F0E08081DA
:10145000482F8B81282F30E081E090E0022E02C0DF
:10146000880F991F0A94E2F7809584238C937EC09D
:1014700081E089837BC08C81813009F072C08A81D0
:10148000282F30E03E832D838D819E818130910510
:1014900049F12D813E81223031052CF48D819E81D0
:1014A000009761F05BC02D813E812230310571F1E2
:1014B0008D819E8183309105E9F150C0AAE3B0E0AF
:1014C000EAE3F0E08081482F8B81282F30E081E033
:1014D00090E0022E02C0880F991F0A94E2F7842B35
:1014E0008C9344C0A7E3B0E0E7E3F0E08081482FAD
:1014F0008B81282F30E081E090E0022E02C0880F1F
:10150000991F0A94E2F7842B8C9330C0A4E3B0E0D7
:10151000E4E3F0E08081482F8B81282F30E081E0E8
:1015200090E0022E02C0880F991F0A94E2F7842BE4
:101530008C931CC0A1E3B0E0E1E3F0E08081482F90
:101540008B81282F30E081E090E0022E02C0880FCE
:10155000991F0A94E2F7842B8C9308C081E0898359
:1015600005C081E0898302C081E089838981289652
:101570000FB6F894DEBF0FBECDBFCF91DF910895B7
:10158000DF93CF93CDB7DEB728970FB6F894DEBFC1
:101590000FBECDBF8A836B834C8319828B818830C9
:1015A00008F0F4C08C81813009F072C08A81282F44
:1015B00030E038872F838F8198858130910549F1FC
:1015C0002F813885223031052CF48F819885009742
:1015D00061F05BC02F8138852230310571F18F8138
:1015E000988583309105E9F150C0ABE3B0E0EBE3BF
:1015F000F0E08081482F8B81282F30E081E090E05F
:10160000022E02C0880F991F0A94E2F7842B8C9354
:10161000BFC0A8E3B0E0E8E3F0E08081482F8B8111
:10162000282F30E081E090E0022E02C0880F991F41
:101630000A94E2F7842B8C93ABC0A5E3B0E0E5E31A
:10164000F0E08081482F8B81282F30E081E090E00E
:10165000022E02C0880F991F0A94E2F7842B8C9304
:1016600097C0A2E3B0E0E2E3F0E08081482F8B81F5
:10167000282F30E081E090E0022E02C0880F991FF1
:101680000A94E2F7842B8C9383C081E0898380C025
:101690008C81882309F077C08A81282F30E03E832F
:1016A0002D838D819E818130910559F12D813E815F
:1016B000223031052CF48D819E81009769F060C045
:1016C0002D813E812230310589F18D819E818330CB
:1016D000910509F440C054C0ABE3B0E0EBE3F0E0A7
:1016E0008081482F8B81282F30E081E090E0022E0E
:1016F00002C0880F991F0A94E2F7809584238C9387
:1017000047C0A8E3B0E0E8E3F0E08081482F8B8198
:10171000282F30E081E090E0022E02C0880F991F50
:101720000A94E2F7809584238C9332C0A5E3B0E05D
:10173000E5E3F0E08081482F8B81282F30E081E0C5
:1017400090E0022E02C0880F991F0A94E2F780955C
:1017500084238C931DC0A2E3B0E0E2E3F0E080813B
:10176000482F8B81282F30E081E090E0022E02C0CC
:10177000880F991F0A94E2F7809584238C9308C000
:1017800081E0898305C081E0898302C081E089838B
:10179000898128960FB6F894DEBF0FBECDBFCF91DA
:1017A000DF910895DF93CF93CDB7DEB727970FB6BC
:1017B000F894DEBF0FBECDBF8A836B835D834C83FD
:1017C00019828C819D81009709F47BC08B818830C0
:1017D00008F074C08A81282F30E03F832E834E8129
:1017E0005F814130510559F18E819F818230910591
:1017F00034F42E813F812115310569F05CC04E81A2
:101800005F814230510579F18E819F81833091054E
:1018100009F43DC050C0E9E3F0E08081282F30E0BA
:101820008B81882F90E0A90102C0559547958A9534
:10183000E2F7CA018170EC81FD81808344C0E6E358
:10184000F0E08081282F30E08B81882F90E0A90183
:1018500002C0559547958A95E2F7CA018170EC81DF
:10186000FD81808330C0E3E3F0E08081282F30E009
:101870008B81882F90E0A90102C0559547958A95E4
:10188000E2F7CA018170EC81FD8180831CC0E0E336
:10189000F0E08081282F30E08B81882F90E0A90133
:1018A00002C0559547958A95E2F7CA018170EC818F
:1018B000FD81808308C081E0898305C081E0898340
:1018C00002C082E08983898127960FB6F894DEBF33
:1018D0000FBECDBFCF91DF910895DF93CF9300D09E
:1018E00000D00F92CDB7DEB78A836B8319828A81CD
:1018F000282F30E03D832C838C819D8181309105A0
:10190000D1F02C813D81223031052CF48C819D81D8
:10191000009761F01FC02C813D812230310581F09C
:101920008C819D818330910581F014C0EAE3F0E061
:101930008B81808311C0E7E3F0E08B8180830CC052
:10194000E4E3F0E08B81808307C0E1E3F0E08B818A
:10195000808302C081E0898389810F900F900F906E
:101960000F900F90CF91DF910895DF93CF9300D028
:1019700000D00F92CDB7DEB78A836B8319828A813C
:10198000282F30E03D832C838C819D81813091050F
:10199000D1F02C813D81223031052CF48C819D8148
:1019A000009761F01FC02C813D812230310581F00C
:1019B0008C819D818330910581F014C0EBE3F0E0D0
:1019C0008B81808311C0E8E3F0E08B8180830CC0C1
:1019D000E5E3F0E08B81808307C0E2E3F0E08B81F8
:1019E000808302C081E0898389810F900F900F90DE
:1019F0000F900F90CF91DF910895DF93CF9300D098
:101A000000D000D0CDB7DEB78B836C831A828C8177
:101A1000883008F01AC18B81282F30E03E832D8357
:101A20004D815E814130510509F455C08D819E8103
:101A30008230910534F42D813E812115310571F0FC
:101A400001C14D815E814230510509F481C08D8113
:101A50009E818330910509F4B8C0F4C0EBE3F0E057
:101A60008081282F30E08C81882F90E0A90102C06E
:101A7000559547958A95E2F7CA01817089838981D6
:101A80008130A9F4ABE3B0E0EBE3F0E08081482FD4
:101A90008C81282F30E081E090E0022E02C0880F78
:101AA000991F0A94E2F7809584238C93D0C0ABE30E
:101AB000B0E0EBE3F0E08081482F8C81282F30E00C
:101AC00081E090E0022E02C0880F991F0A94E2F78D
:101AD000842B8C93BCC0E8E3F0E08081282F30E0B9
:101AE0008C81882F90E0A90102C0559547958A9571
:101AF000E2F7CA018170898389818130A9F4A8E362
:101B0000B0E0E8E3F0E08081482F8C81282F30E0BE
:101B100081E090E0022E02C0880F991F0A94E2F73C
:101B2000809584238C9393C0A8E3B0E0E8E3F0E0D1
:101B30008081482F8C81282F30E081E090E0022EB8
:101B400002C0880F991F0A94E2F7842B8C937FC000
:101B5000E5E3F0E08081282F30E08C81882F90E051
:101B6000A90102C0559547958A95E2F7CA0181708F
:101B7000898389818130A9F4A5E3B0E0E5E3F0E051
:101B80008081482F8C81282F30E081E090E0022E68
:101B900002C0880F991F0A94E2F7809584238C93E2
:101BA00056C0A5E3B0E0E5E3F0E08081482F8C81EA
:101BB000282F30E081E090E0022E02C0880F991FAC
:101BC0000A94E2F7842B8C9342C0E2E3F0E0808138
:101BD000282F30E08C81882F90E0A90102C0559514
:101BE00047958A95E2F7CA0181708983898181309E
:101BF000A9F4A2E3B0E0E2E3F0E08081482F8C8119
:101C0000282F30E081E090E0022E02C0880F991F5B
:101C10000A94E2F7809584238C9319C0A2E3B0E084
:101C2000E2E3F0E08081482F8C81282F30E081E0D2
:101C300090E0022E02C0880F991F0A94E2F7842BCD
:101C40008C9305C081E08A8302C081E08A838A8107
:101C500026960FB6F894DEBF0FBECDBFCF91DF91B1
:101C60000895DF93CF9300D000D00F92CDB7DEB7A9
:101C70008FEF8B8319825EC08981882F90E0FC01F1
:101C8000EA57FF4F908180E0692F40E00E94C00A30
:101C90001A823DC08A81882F90E0FC01EE57FF4FE9
:101CA00090819E012C5F3F4F80E0692FA9010E9427
:101CB000D20B8C81882341F58A81482F50E089819D
:101CC000282F30E0CA01880F991F880F991F820FB3
:101CD000931FFC01EE58FF4F80818B830FC08A81D8
:101CE000882F90E0FC01EE57FF4F90819E012C5F02
:101CF0003F4F80E0692FA9010E94D20B8C8188237D
:101D000071F38B818D831CC08A818F5F8A838A8166
:101D1000843008F4BFCF8981882F90E0FC01EA5716
:101D2000FF4F908180E0692F41E00E94C00A8981C5
:101D30008F5F89838981843008F49ECF8B818D8366
:101D40008D810F900F900F900F900F90CF91DF919A
:101D50000895DF93CF93CDB7DEB7EAE3F0E080EFED
:101D60008083E7E3F0E080EF8083E4E3F0E087E066
:101D70008083E1E3F0E01082EBE3F0E08FEF80831B
:101D8000E8E3F0E01082E5E3F0E01082E2E3F0E067
:101D90001082CF91DF910895EF92FF920F931F93DE
:101DA000DF93CF93CDB7DEB7C754D0400FB6F894CA
:101DB000DEBF0FBECDBF0E94A90E0E949A061CA2D4
:101DC00081E090E0A0E0B0E08B8F9C8FAD8FBE8F64
:101DD0001A8E81E090E0A0E0B0E0898B9A8BAB8B0B
:101DE000BC8B80E3888B1E821D8281E090E09C8307
:101DF0008B8381E090E09A83898377C00E94310EC3
:101E00008DA38DA18F3F09F470C08DA10E947A0629
:101E10008DA1803338F18DA18A3320F588898033F4
:101E200009F58E81813071F48B819C819C01220F98
:101E3000331FC901880F991F880F991F820F931FA5
:101E40009C838B838CA1282F30E08DA1482F405399
:101E5000CE018696FC01E20FF31F40838CA18F5FB9
:101E60008CA343C08DA1803338F18DA18A3320F536
:101E70008889803309F18D81813071F489819A815B
:101E80009C01220F331FC901880F991F880F991FCA
:101E9000820F931F9A8389838A8D282F30E08DA12A
:101EA000482F4053CE01C696FC01E20FF31F40833A
:101EB0008A8D8F5F8A8F19C08DA18E3231F4888907
:101EC000803319F481E08E8310C08DA18E3231F4FD
:101ED0008889803319F081E08D8307C08DA1888BBC
:101EE00088898D3311F088898F8788898D3309F02F
:101EF00085CF88898D3309F0E2C418A219A21AA2ED
:101F00001BA21E8A1F8A188E198E8CA181508F8F5A
:101F10003AC08F8D282F332727FD3095CE01869626
:101F2000FC01E20FF31F8081882F90E0A0E0B0E079
:101F30002B8D3C8D4D8D5E8DBC01CD010E94811499
:101F40009B01AC0188A199A1AAA1BBA1820F931FFB
:101F5000A41FB51F88A399A3AAA3BBA38B8D9C8D97
:101F6000AD8DBE8D2AE030E040E050E0BC01CD01F7
:101F70000E948114DC01CB018B8F9C8FAD8FBE8FB3
:101F80008F8D81508F8F8F8D88231CF68A8D815085
:101F90008D8B3AC08D89282F332727FD3095CE01B0
:101FA000C696FC01E20FF31F8081882F90E0A0E02D
:101FB000B0E029893A894B895C89BC01CD010E9436
:101FC00081149B01AC018E899F89A88DB98D820FE8
:101FD000931FA41FB51F8E8B9F8BA88FB98F8989E4
:101FE0009A89AB89BC892AE030E040E050E0BC012E
:101FF000CD010E948114DC01CB01898B9A8BAB8BC4
:10200000BC8B8D8981508D8B8D8988231CF68F85A3
:10201000E82EFF242896FFAEEEAE289728960EAD48
:102020001FAD28970B32110509F128962EAD3FAD53
:1020300028972C3231054CF428964EAD5FAD289789
:102040004A32510509F4BCC336C428968EAD9FAD03
:1020500028978D32910509F44AC128960EAD1FAD1F
:1020600028970F32110509F4CEC325C48E81882329
:10207000E1F48D818823C9F428A139A14AA15BA18B
:102080008E899F89A88DB98D820F931FA41FB51FBC
:102090008B879C87AD87BE878B859C85AD85BE85EC
:1020A000BC01CD010E94670706C48B819C819C0105
:1020B00040E050E088A199A1AAA1BBA1BC01CD013B
:1020C0000E94A014DA01C9017C018D0189819A81E5
:1020D0009C0140E050E08E899F89A88DB98DBC019C
:1020E000CD010E94A014DA01C9018E0D9F1DA01F11
:1020F000B11F8B879C87AD87BE878B819C818A307F
:10210000910501F58B819C819C01220F331FC90130
:10211000880F991F880F991F820F931F9C838B83B1
:1021200088A199A1AAA1BBA12AE030E040E050E03B
:10213000BC01CD010E948114DC01CB0188A399A3CD
:10214000AAA3BBA389819A818A30910501F589816F
:102150009A819C01220F331FC901880F991F880F94
:10216000991F820F931F9A8389838E899F89A88DD7
:10217000B98D2AE030E040E050E0BC01CD010E9482
:102180008114DC01CB018E8B9F8BA88FB98F8B8143
:102190009C819C0140E050E088A199A1AAA1BBA12B
:1021A000BC01CD010E94A014DC01CB017C018D019A
:1021B00089819A819C0140E050E08E899F89A88D99
:1021C000B98DBC01CD010E94A014DC01CB018E0DA4
:1021D0009F1DA01FB11F8F839887A987BA878F8102
:1021E0009885A985BA858E369105A105B105DCF0E3
:1021F0008B859C85AD85BE850196A11DB11DBC0159
:10220000CD010E9467078EE20E947A068F81988531
:10221000A985BA8584569040A040B040BC01CD014C
:102220000E94670748C38F819885A985BA858E3635
:102230009105A105B1053CF58F819885A985BA85E1
:1022400084369105A105B105F4F08B859C85AD859B
:10225000BE850196A11DB11DBC01CD010E9467077D
:102260008EE20E947A0680E30E947A068F8198852A
:10227000A985BA8584569040A040B040BC01CD01EC
:102280000E94670718C38F819885A985BA858A300F
:102290009105A105B105BCF48B859C85AD85BE85F6
:1022A000BC01CD010E9467078EE20E947A0680E39E
:1022B0000E947A068F819885A985BA85BC01CD01D7
:1022C0000E946707F8C28B859C85AD85BE85BC01E1
:1022D000CD010E9467078EE20E947A068F81988561
:1022E000A985BA85BC01CD010E946707E4C28E8131
:1022F000882301F58D818823E9F428A139A14AA119
:102300005BA18E899F89A88DB98D79018A01E81A10
:10231000F90A0A0B1B0BD801C7018B879C87AD8775
:10232000BE878B859C85AD85BE85BC01CD010E9495
:102330006707C1C28B819C819C0140E050E088A16D
:1023400099A1AAA1BBA1BC01CD010E94A014DA01F0
:10235000C9017C018D0189819A819C0140E050E096
:102360008E899F89A88DB98DBC01CD010E94A014D2
:10237000DA01C901A8019701281B390B4A0B5B0B35
:10238000DA01C9018B879C87AD87BE878B819C81D1
:102390008A30910501F58B819C819C01220F331FAE
:1023A000C901880F991F880F991F820F931F9C8363
:1023B0008B8388A199A1AAA1BBA12AE030E040E0CB
:1023C00050E0BC01CD010E948114DC01CB0188A347
:1023D00099A3AAA3BBA389819A818A30910501F5AB
:1023E00089819A819C01220F331FC901880F991F8F
:1023F000880F991F820F931F9A8389838E899F89E3
:10240000A88DB98D2AE030E040E050E0BC01CD015C
:102410000E948114DC01CB018E8B9F8BA88FB98F1A
:102420008B819C819C0140E050E088A199A1AAA1E8
:10243000BBA1BC01CD010E94A014DC01CB017C0139
:102440008D0189819A819C0140E050E08E899F89AD
:10245000A88DB98DBC01CD010E94A014DC01CB0177
:10246000A8019701281B390B4A0B5B0BDA01C90144
:102470008F839887A987BA878F819885A985BA8520
:10248000873F3FEF93073FEFA3073FEFB30734F5D5
:102490008B859C85AD85BE850097A105B105F1F4BE
:1024A0008DE20E947A068B859C85AD85BE85BC0138
:1024B000CD010E9467078EE20E947A068F8198857F
:1024C000A985BA85B095A095909581959F4FAF4FFE
:1024D000BF4FBC01CD010E946707EDC18F81988578
:1024E000A985BA85873F4FEF94074FEFA4074FEFB9
:1024F000B4070CF58B859C85AD85BE85BB23DCF4CC
:102500008B859C85AD85BE85BC01CD010E9467078A
:102510008EE20E947A068F819885A985BA85B0954A
:10252000A095909581959F4FAF4FBF4FBC01CD01B6
:102530000E946707C0C18F819885A985BA858A35B1
:102540009105A105B105ACF18F819885A985BA8562
:1025500084369105A105B10564F58B859C85AD8513
:10256000BE85BB2334F58B859C85AD85BE850196E4
:10257000A11DB11DBC01CD010E9467078EE20E9422
:102580007A0680E30E947A0624E630E040E050E0DC
:102590008F819885A985BA8579018A01E81AF90A97
:1025A0000A0B1B0BD801C701BC01CD010E946707B4
:1025B00082C18F819885A985BA85181619061A06D1
:1025C0001B0694F58F819885A985BA858A35910572
:1025D000A105B1054CF58B859C85AD85BE85BB23DA
:1025E0001CF58B859C85AD85BE850196A11DB11D11
:1025F000BC01CD010E9467078EE20E947A0624E6A4
:1026000030E040E050E08F819885A985BA85790156
:102610008A01E81AF90A0A0B1B0BD801C701BC0191
:10262000CD010E94670747C18F819885A985BA852A
:10263000873F0FEF90070FEFA0070FEFB007DCF415
:102640008B859C85AD85BE850197A109B109BC012B
:10265000CD010E9467078EE20E947A068F819885DD
:10266000A985BA858C599F4FAF4FBF4FBC01CD0193
:102670000E94670720C18F819885A985BA858A3015
:102680009105A105B105ECF48F819885A985BA85DE
:10269000BB23BCF08B859C85AD85BE85BC01CD017F
:1026A0000E9467078EE20E947A0680E30E947A0603
:1026B0008F819885A985BA85BC01CD010E946707E5
:1026C000FAC08F819885A985BA85BB23ACF58F8127
:1026D0009885A985BA85873F1FEF91071FEFA1074E
:1026E0001FEFB1074CF18B859C85AD85BE850097AA
:1026F000A105B10509F58DE20E947A068B859C85BE
:10270000AD85BE85BC01CD010E9467078EE20E94A7
:102710007A0680E30E947A068F819885A985BA851A
:10272000B095A095909581959F4FAF4FBF4FBC013D
:10273000CD010E946707BFC08F819885A985BA85A2
:10274000BB2354F58F819885A985BA85873F2FEFE4
:1027500092072FEFA2072FEFB207F4F08B859C852D
:10276000AD85BE85BC01CD010E9467078EE20E9447
:102770007A0680E30E947A068F819885A985BA85BA
:10278000B095A095909581959F4FAF4FBF4FBC01DD
:10279000CD010E9467078FC08B859C85AD85BE8566
:1027A000BC01CD010E9467078EE20E947A068F81EC
:1027B0009885A985BA85BC01CD010E9467077BC0B9
:1027C0008E81882309F077C08D81882309F073C03A
:1027D00088A199A1AAA1BBA12E893F89488D598DB5
:1027E000BC01CD010E948114DC01CB018B879C8749
:1027F000AD87BE878B859C85AD85BE85BC01CD012F
:102800000E94670758C08E899F89A88DB98D00974F
:10281000A105B10529F480E690E00E9434074BC081
:1028200088A199A1AAA1BBA12E893F89488D598D64
:10283000BC01CD010E94A014DA01C9018B879C87DD
:10284000AD87BE878B859C85AD85BE85BC01CD01DE
:102850000E9467078EE20E947A0688A199A1AAA128
:10286000BBA124E630E040E050E0BC01CD010E9475
:102870008114DC01CB012E893F89488D598DBC0123
:10288000CD010E94A014DA01C90124E630E040E045
:1028900050E0BC01CD010E94A014DC01CB018B876C
:1028A0009C87AD87BE878B859C85AD85BE85BC0129
:1028B000CD010E9467070E94310E8F3FE1F381E056
:1028C0000E945A0680E3888B1CA281E090E0A0E081
:1028D000B0E08B8F9C8FAD8FBE8F1A8E81E090E021
:1028E000A0E0B0E0898B9A8BAB8BBC8B1E821D82E3
:1028F00081E090E09C838B8381E090E09A838983E0
:10290000F4CA629FD001739FF001829FE00DF11D18
:10291000649FE00DF11D929FF00D839FF00D749F59
:10292000F00D659FF00D9927729FB00DE11DF91F05
:10293000639FB00DE11DF91FBD01CF011124089562
:1029400097FB092E05260ED057FD04D014D00AD0CF
:10295000001C38F450954095309521953F4F4F4FCE
:102960005F4F0895F6F790958095709561957F4F2C
:102970008F4F9F4F0895A1E21A2EAA1BBB1BFD018A
:102980000DC0AA1FBB1FEE1FFF1FA217B307E4074E
:10299000F50720F0A21BB30BE40BF50B661F771FA6
:1029A000881F991F1A9469F7609570958095909586
:1029B0009B01AC01BD01CF0108952F923F924F9230
:1029C0005F926F927F928F929F92AF92BF92CF92BF
:1029D000DF92EF92FF920F931F93CF93DF93CDB7C8
:1029E000DEB7CA1BDB0B0FB6F894DEBF0FBECDBF40
:1029F00009942A88398848885F846E847D848C8411
:102A00009B84AA84B984C884DF80EE80FD800C8119
:102A10001B81AA81B981CE0FD11D0FB6F894DEBFFC
:0C2A20000FBECDBFED010895F894FFCF6C
:102A2C00756E646566696E656400000000000000E8
:102A3C0000003738392F3435362A3132332D2E30C9
:0A2A4C003D2B0001020304050607FC
:00000001FF
