:100000000C942A000C949C120C94CF120C940213A2
:100010000C9447000C9447000C9447000C94470044
:100020000C9447000C9447000C9447000C94470034
:100030000C9447000C9447000C9447000C94470024
:100040000C9447000C9447000C9447000C94470014
:100050000C94470011241FBECFE5D8E0DEBFCDBF12
:1000600010E0A0E6B0E0E8E8F4E302C005900D92ED
:10007000A23CB107D9F710E0A2ECB0E001C01D929C
:10008000A93CB107E1F70E94B2140C94421A0C94F7
:100090000000EF92FF920F931F937B018C0120E0F1
:1000A00030E040E05FE40E94F50388238CF0C80153
:1000B000B70120E030E040E05FE40E94C1010E940F
:1000C00055049B01AC01205030404040504806C0D0
:1000D000C801B7010E9455049B01AC01B901CA01D6
:1000E0001F910F91FF90EF900895A0E0B0E0EBE733
:1000F000F0E00C940B1ADC012B01FA019C91923078
:1001000008F439C1EB018881823008F433C194309E
:1001100069F4843009F02FC111969C91119789815F
:10012000981709F428C1A5E9B0E025C1843009F485
:1001300021C18230A9F4923009F01DC19A01AD01AC
:1001400088E0EA010990AE01E90109929E0181501F
:10015000C1F7E201898111969C918923818308C1AD
:10016000923009F407C112962D903C901397EB0141
:100170008A819B811496AD90BD90CD90DC901797AD
:10018000EC80FD800E811F819101281B390BB90184
:1001900037FF04C066277727621B730B6032710537
:1001A0000CF061C0121613066CF537014801062EDB
:1001B00004C096948794779467940A94D2F721E0C8
:1001C00030E040E050E004C0220F331F441F551FB1
:1001D0006A95D2F721503040404050402E213F21B7
:1001E00040235123211531054105510521F021E01E
:1001F00030E040E050E079018A01E628F72808293C
:1002000019293CC0232BD1F1260E371E350146019A
:10021000062E04C096948794779467940A94D2F734
:1002200021E030E040E050E004C0220F331F441FC3
:10023000551F6A95D2F721503040404050402A2146
:100240003B214C215D21211531054105510521F04E
:1002500021E030E040E050E059016A01A628B728CB
:10026000C828D9280BC0821593052CF01C01AA249C
:10027000BB24650103C0EE24FF24870111969C91E5
:10028000D20111968C91981709F445C0992339F041
:10029000A80197012A193B094C095D0906C0A6016E
:1002A00095012E193F09400B510B57FD08C01182D3
:1002B0003382228224833583468357831DC081E0A5
:1002C00081833382228288279927DC01821B930B4A
:1002D000A40BB50B84839583A683B7830DC0220F2F
:1002E000331F441F551F24833583468357838281E0
:1002F000938101979383828324813581468157813D
:10030000DA01C9010197A109B1098F5F9F4FAF4F72
:10031000BF4328F30BC0918333822282EA0CFB1C7B
:100320000C1D1D1DE482F5820683178383E0808304
:10033000248135814681578157FF1AC0C901AA27F8
:1003400097FDA095BA2F81709070A070B0705695EF
:10035000479537952795822B932BA42BB52B848318
:100360009583A683B7838281938101969383828349
:10037000DF0101C0D201CD01CDB7DEB7E2E10C94BF
:10038000271AA0E2B0E0E7ECF1E00C94171A6983B9
:100390007A838B839C832D833E834F835887E9E048
:1003A000EE2EF12CEC0EFD1ECE010196B7010E943F
:1003B0007E058E010F5E1F4FCE010596B8010E948B
:1003C0007E058A8991E089278A8BC701B801AE0131
:1003D000475E5F4F0E9475000E94A904A096E6E068
:1003E0000C94331AA0E2B0E0E8EFF1E00C94171A95
:1003F00069837A838B839C832D833E834F835887C5
:10040000F9E0EF2EF12CEC0EFD1ECE010196B701A6
:100410000E947E058E010F5E1F4FCE010596B8012A
:100420000E947E05C701B801AE01475E5F4F0E9482
:1004300075000E94A904A096E6E00C94331AA0E28D
:10044000B0E0E5E2F2E00C940B1A69837A838B83C7
:100450009C832D833E834F835887CE010196BE0136
:10046000675F7F4F0E947E05CE010596BE016F5EDD
:100470007F4F0E947E059985923088F0898982306D
:10048000C8F0943019F4823051F404C0843029F457
:10049000923081F485E990E0C6C0923049F420E0C2
:1004A0009A858A89981321E02A87CE010996BBC0D4
:1004B000823049F420E09A858A89981321E02A8BBA
:1004C000CE014196B0C02D843E844F8458886D88FB
:1004D0007E888F88988CEE24FF248701AA24BB2471
:1004E000650140E050E060E070E0E0E0F0E0C10174
:1004F00081709070892BE9F0E60CF71C081D191D1E
:100500009A01AB012A0D3B1D4C1D5D1D80E090E062
:10051000A0E0B0E0E614F7040805190520F481E036
:1005200090E0A0E0B0E0BA01A901480F591F6A1F8E
:100530007B1FAA0CBB1CCC1CDD1C97FE08C081E0F5
:1005400090E0A0E0B0E0A82AB92ACA2ADB2A3196B6
:10055000E032F10549F0660C771C881C991C569412
:10056000479437942794C3CFFA85EA892B893C892D
:100570008B859C85280F391F2E5F3F4F17C0CA01FE
:1005800081709070892B61F016950795F794E79428
:1005900080E090E0A0E0B0E8E82AF92A0A2B1B2BC3
:1005A00076956795579547952F5F3F4F77FDE7CF36
:1005B0000CC0440F551F661F771F17FD4160EE0CDE
:1005C000FF1C001F111F21503040403090E05907A0
:1005D00090E0690790E4790760F32B8F3C8FDB0193
:1005E000CA018F779070A070B07080349105A1051A
:1005F000B10561F447FD0AC0E114F10401051105DC
:1006000029F0405C5F4F6F4F7F4F40781A8EFE1786
:1006100011F081E08A8F4D8F5E8F6F8F78A383E01A
:10062000898FCE0149960E94A904A096E2E10C941C
:10063000271AA8E1B0E0EFE1F3E00C94131A698304
:100640007A838B839C832D833E834F835887B9E0C5
:10065000EB2EF12CEC0EFD1ECE010196B7010E948F
:100660007E058E010F5E1F4FCE010596B8010E94D8
:100670007E052985223008F47EC03989323010F495
:10068000B8017CC08A859A8989278A87243011F02D
:10069000223031F4231709F06EC065E970E06EC0B6
:1006A000343039F41D861E861F86188A1C861B86E8
:1006B00004C0323021F484E08987B7015FC02B8504
:1006C0003C858B899C89281B390B3C872B87ED84C3
:1006D000FE840F851889AD88BE88CF88D88CEA142F
:1006E000FB040C051D0540F4EE0CFF1C001F111F40
:1006F000215030403C872B8720E030E040E050E044
:1007000080E090E0A0E0B0E460E070E0EA14FB0478
:100710000C051D0540F0282B392B4A2B5B2BEA18C2
:10072000FB080C091D09B695A79597958795EE0CC2
:10073000FF1C001F111F6F5F7F4F6F31710531F775
:10074000DA01C9018F779070A070B0708034910584
:10075000A105B10561F427FD0AC0E114F10401050A
:10076000110529F0205C3F4F4F4F5F4F20782D87B8
:100770003E874F87588BBE01675F7F4FCB010E943A
:10078000A9046896EAE00C942F1AA8E1B0E0EBEC1B
:10079000F3E00C94171A69837A838B839C832D83EF
:1007A0003E834F83588789E0E82EF12CEC0EFD1E26
:1007B000CE010196B7010E947E058E010F5E1F4F8C
:1007C000CE010596B8010E947E058985823040F0F1
:1007D0008989823028F0C701B8010E94F60501C05E
:1007E0008FEF6896E6E00C94331AA8E1B0E0EBEFE7
:1007F000F3E00C94171A69837A838B839C832D838F
:100800003E834F83588789E0E82EF12CEC0EFD1EC5
:10081000CE010196B7010E947E058E010F5E1F4F2B
:10082000CE010596B8010E947E058985823040F090
:100830008989823028F0C701B8010E94F60501C0FD
:100840008FEF6896E6E00C94331AA8E1B0E0EBE293
:10085000F4E00C94171A69837A838B839C832D832D
:100860003E834F83588789E0E82EF12CEC0EFD1E65
:10087000CE010196B7010E947E058E010F5E1F4FCB
:10088000CE010596B8010E947E058985823040F030
:100890008989823028F0C701B8010E94F60501C09D
:1008A00081E06896E6E00C94331AACE0B0E0EBE54A
:1008B000F4E00C941B1A69837A838B839C83CE01AA
:1008C0000196BE016B5F7F4F0E947E058D81823055
:1008D00061F1823050F1843021F48E81882351F10E
:1008E0002EC02F81388537FD20C06E812F31310514
:1008F0001CF06623F9F023C08EE190E0821B930B7D
:1009000029853A854B855C8504C056954795379572
:1009100027958A95D2F76623B1F05095409530958A
:1009200021953F4F4F4F5F4F0EC020E030E040E039
:1009300050E009C02FEF3FEF4FEF5FE704C020E02A
:1009400030E040E050E8B901CA012C96E2E00C9496
:10095000371ADF92EF92FF920F931F93FC01E4800E
:10096000F58006811781D1808081823048F480E053
:1009700090E0A0E1B0E0E82AF92A0A2B1B2BA5C0E1
:10098000843009F49FC0823021F4EE24FF248701D3
:1009900005C0E114F1040105110519F4E0E0F0E0EF
:1009A00096C0628173819FEF623879070CF05BC05B
:1009B00022E83FEF261B370B2A3131052CF020E0CF
:1009C00030E040E050E02AC0B801A701022E04C088
:1009D00076956795579547950A94D2F781E090E010
:1009E000A0E0B0E004C0880F991FAA1FBB1F2A9582
:1009F000D2F70197A109B1098E219F21A023B1232C
:100A00000097A105B10521F081E090E0A0E0B0E001
:100A10009A01AB01282B392B4A2B5B2BDA01C90138
:100A20008F779070A070B07080349105A105B105EA
:100A300039F427FF09C0205C3F4F4F4F5F4F04C080
:100A4000215C3F4F4F4F5F4FE0E0F0E02030A0E0EF
:100A50003A07A0E04A07A0E45A0710F0E1E0F0E00E
:100A600079018A0127C06038710564F5FB01E158FE
:100A7000FF4FD801C7018F779070A070B07080349D
:100A80009105A105B10539F4E7FE0DC080E490E0C1
:100A9000A0E0B0E004C08FE390E0A0E0B0E0E80E9A
:100AA000F91E0A1F1B1F17FF05C016950795F7941F
:100AB000E794319687E016950795F794E7948A9521
:100AC000D1F705C0EE24FF248701EFEFF0E06E2F91
:100AD000679566276795902F9F77D794DD24D794E5
:100AE0008E2F8695492F462B582F5D29B701CA01B5
:100AF0001F910F91FF90EF90DF900895FC01DB01B3
:100B0000408151812281622F6F7770E0221F22275E
:100B1000221F9381892F880F822B282F30E0991F65
:100B20009927991F11969C93119721153105A9F5C5
:100B3000411551056105710511F482E037C082E865
:100B40009FEF13969C938E9312979A01AB0167E0E7
:100B5000220F331F441F551F6A95D1F783E08C93F2
:100B60000DC0220F331F441F551F12968D919C916B
:100B70001397019713969C938E931297203080E0E1
:100B8000380780E0480780E4580758F314962D93FF
:100B90003D934D935C93179708952F3F310579F45A
:100BA000411551056105710519F484E08C93089590
:100BB00064FF03C081E08C9312C01C9210C02F57B9
:100BC000304013963C932E93129783E08C9387E0EA
:100BD000440F551F661F771F8A95D1F770641496CE
:100BE0004D935D936D937C93179708951F93DC014C
:100BF000FB019C91923008F447C08081823008F458
:100C000043C0943051F411961C91843099F5818140
:100C1000682F70E0611B71093FC0843021F0923071
:100C200031F48230B9F18181882389F12DC0119688
:100C30001C9111978230F1F081811817D9F4129626
:100C40002D913C911397828193818217930794F0A1
:100C500028173907BCF014968D919D910D90BC9189
:100C6000A02D2481358146815781281739074A07ED
:100C70005B0718F4112341F00AC082179307A407F9
:100C8000B50740F4112319F061E070E005C06FEF83
:100C90007FEF02C060E070E0CB011F910895DF9309
:100CA000CF93CDB7DEB7A7E2B0E0E7E2F0E0808116
:100CB00080648C93A7E2B0E0E7E2F0E080818F7778
:100CC0008C93A7E2B0E0E7E2F0E0808180628C9351
:100CD000A6E2B0E0E6E2F0E08081887F8C93A6E2B5
:100CE000B0E0E6E2F0E0808187608C93A6E2B0E0BD
:100CF000E6E2F0E0808180628C93A6E2B0E0E6E27A
:100D0000F0E08081877F8C93A6E2B0E0E6E2F0E03D
:100D1000808180688C93CF91DF910895DF93CF938A
:100D2000CDB7DEB728970FB6F894DEBF0FBECDBFA4
:100D30008E8378876F831D828F819885009709F451
:100D40005DC019821A821B821C82A7E2B0E0E7E232
:100D5000F0E08081807E8C93A7E2B0E0E7E2F0E0F3
:100D600090818E81892B8C93A6E2B0E0E6E2F0E0E0
:100D7000808180648C930BC089819A81AB81BC8116
:100D80000196A11DB11D89839A83AB83BC83E6E2E2
:100D9000F0E0808182958F70882F90E08170907054
:100DA000009761F489819A81AB81BC81803523EC05
:100DB000920720E0A20720E0B207F0F289819A8131
:100DC000AB81BC81803523EC920720E0A20720E0B4
:100DD000B20718F083E08D8313C0A6E2B0E0E6E22C
:100DE000F0E0808180618C93E5E2F0E08081882FE3
:100DF00090E0EF81F8859183808302C082E08D834B
:100E00008D8128960FB6F894DEBF0FBECDBFCF916F
:100E1000DF910895EF92FF920F931F93DF93CF938B
:100E200000D000D000D0CDB7DEB79E838D83ED819A
:100E3000FE812481358146815781ED81FE81808943
:100E40009189A289B38979018A01E81AF90A0A0B02
:100E50001B0BD801C701ED81FE81248535854685B0
:100E60005785BC01CD010E94AF19DC01CB01ED819A
:100E7000FE812481358146815781BC01CD010E94CC
:100E8000CE19DA01C90189839A83AB83BC83898136
:100E90009A81AB81BC81BC01CD0126960FB6F89436
:100EA000DEBF0FBECDBFCF91DF911F910F91FF909D
:100EB000EF900895DF93CF93CDB7DEB72E970FB69F
:100EC000F894DEBF0FBECDBF80E062E041E00E943B
:100ED000370D80E090E0A0E0B0E48B879C87AD8781
:100EE000BE876B857C858D859E8520E030E04AE756
:100EF00055E40E941F02DC01CB018F839887A987EC
:100F0000BA876F81788589859A8520E030E040E84E
:100F10005FE30E94250488232CF481E090E09E8307
:100F20008D833FC06F81788589859A8520E03FEF6A
:100F30004FE757E40E94C50318164CF56B857C8576
:100F40008D859E8520E030E040E251E40E941F0242
:100F5000DC01CB01BC01CD010E944900DC01CB01C9
:100F60009E838D830FC080E991E09C838B838B816E
:100F70009C810197F1F79C838B838D819E810197E2
:100F80009E838D838D819E81009769F714C06F8148
:100F9000788589859A850E944900DC01CB019E8372
:100FA0008D838D819E819A83898389819A8101971E
:100FB000F1F79A83898380E062E040E00E94370D78
:100FC0002E960FB6F894DEBF0FBECDBFCF91DF9146
:100FD0000895DF93CF930F92CDB7DEB789838981D0
:100FE000982F917081E064E0492F0E94370D89812C
:100FF0008695982F917081E065E0492F0E94370D0A
:10100000898186958695982F917081E066E0492FB9
:101010000E94370D8981869586958695982F9170C7
:1010200081E067E0492F0E94370D0F90CF91DF914B
:101030000895DF93CF930F92CDB7DEB7898380E019
:1010400060E040E00E94370D80E061E040E00E94F7
:10105000370D898182958F700E94E9070E945A0797
:1010600089810E94E9070E945A070F90CF91DF9172
:101070000895DF93CF930F92CDB7DEB7898380E0D9
:1010800060E041E00E94370D80E061E040E00E94B6
:10109000370D898182958F700E94E9070E945A0757
:1010A00089810E94E9070E945A070F90CF91DF9132
:1010B0000895DF93CF93CDB7DEB72E970FB6F89490
:1010C000DEBF0FBECDBF80E090E0A0E2B2E48B8730
:1010D0009C87AD87BE876B857C858D859E8520E04E
:1010E00030E04AE755E40E941F02DC01CB018F8308
:1010F0009887A987BA876F81788589859A8520E046
:1011000030E040E85FE30E94250488232CF481E06E
:1011100090E09E838D833FC06F81788589859A8515
:1011200020E03FEF4FE757E40E94C50318164CF547
:101130006B857C858D859E8520E030E040E251E422
:101140000E941F02DC01CB01BC01CD010E944900BD
:10115000DC01CB019E838D830FC080E991E09C83ED
:101160008B838B819C810197F1F79C838B838D818D
:101170009E8101979E838D838D819E81009769F763
:1011800014C06F81788589859A850E944900DC01A9
:10119000CB019E838D838D819E819A8389838981F2
:1011A0009A810197F1F79A83898382E00E94E90787
:1011B0000E945A0782E00E94E9070E945A0788E0CD
:1011C0000E94E9070E945A078CE00E94190881E0FA
:1011D0000E9419082E960FB6F894DEBF0FBECDBF41
:1011E000CF91DF910895DF93CF9300D000D0CDB79A
:1011F000DEB79C838B831A828B819C810097E1F000
:1012000019820EC08981282F30E08B819C81FC01DE
:10121000E20FF31F80810E94390889818F5F8983E3
:101220008981282F30E08B819C81FC01E20FF31F24
:101230008081882339F702C082E08A838A810F90F7
:101240000F900F900F90CF91DF910895DF93CF9380
:10125000CDB7DEB761970FB6F894DEBF0FBECDBF36
:101260006E877F87888B998B1A828E859F85A88948
:10127000B9890097A105B10521F480E30E943908DE
:1012800086C08E859F85A889B989181619061A0601
:101290001B06D4F530C08E859F85A889B9892AE0C0
:1012A00030E040E050E0BC01CD010E94CE19DC01ED
:1012B000CB018B838A81282F332727FD30954B81E3
:1012C000CE010496FC01E20FF31F40838A818F5FF9
:1012D0008A838E859F85A889B9892AE030E040E01D
:1012E00050E0BC01CD010E94CE19DA01C9018E8700
:1012F0009F87A88BB98B8E859F85A889B989009710
:10130000A105B10541F643C08DE20E94390837C0FE
:101310008E859F85A889B989B095A095909581956E
:101320009F4FAF4FBF4F2AE030E040E050E0BC019C
:10133000CD010E94CE19DC01CB018B838A81282F3D
:10134000332727FD30954B81CE010496FC01E20F37
:10135000F31F40838A818F5F8A838E859F85A8894A
:10136000B9892AE030E040E050E0BC01CD010E94A4
:10137000CE19DA01C9018E879F87A88BB98B8E851C
:101380009F85A889B9890097A105B10509F68A81C9
:101390008150898311C08981282F332727FD3095FB
:1013A000CE010496FC01E20FF31F8081805D0E9454
:1013B00039088981815089838981882364F76196FE
:1013C0000FB6F894DEBF0FBECDBFCF91DF91089569
:1013D000DF93CF9300D00F92CDB7DEB78A836B83B4
:1013E0008B81882319F48A81898306C08B8181309F
:1013F00019F48A81805C89838981806889838981E5
:101400000E9419080F900F900F90CF91DF910895CF
:10141000DF93CF9300D000D000D0CDB7DEB79E834E
:101420008D831C821B821A828D819E81009751F1CF
:1014300019821CC08B816A810E94E8098981282F4A
:1014400030E08D819E81FC01E20FF31F80810E94BC
:1014500039088A81882319F481E08A8301C01A82BD
:1014600089818F5F89838B818F5F8B838981282F0F
:1014700030E08D819E81FC01E20FF31F8081882383
:10148000C9F602C082E08C838C8126960FB6F89450
:10149000DEBF0FBECDBFCF91DF910895DF93CF9315
:1014A000CDB7DEB727970FB6F894DEBF0FBECDBF1E
:1014B0009C838B836D834E832F838D81882F90E057
:1014C000880F991F880F991F880F991F8A838A8117
:1014D00080648A838A810E94190819820EC08981DA
:1014E000282F30E08B819C81FC01E20FF31F80816B
:1014F0000E94390889818F5F89838981883078F3D8
:101500008E816F810E94E8098D810E94390827969B
:101510000FB6F894DEBF0FBECDBFCF91DF91089517
:10152000DF93CF9300D000D000D0CDB7DEB76B8370
:101530007C838D839E838FE18A8329C09A818FE18A
:10154000891B60E00E94E8098A81282F332727FD44
:1015500030958B819C81AD81BE81022E04C0B595F2
:10156000A795979587950A94D2F781709070A0708F
:10157000B0700097A105B10521F480E30E943908FD
:1015800003C081E30E9439088A8181508A838A815D
:101590008031A4F68FE08A8329C09A818FE0891B6D
:1015A00061E00E94E8098A81282F332727FD3095C2
:1015B0008B819C81AD81BE81022E04C0B595A7951B
:1015C000979587950A94D2F781709070A070B0704B
:1015D0000097A105B10521F480E30E94390803C0FA
:1015E00081E30E9439088A8181508A838A81882315
:1015F000A4F626960FB6F894DEBF0FBECDBFCF91EE
:10160000DF910895DF93CF93CDB7DEB72E970FB656
:10161000F894DEBF0FBECDBF6B877C878D879E871A
:1016200087E0898336C08B858F708A838A818A3070
:1016300078F48981282F332727FD30958A81482F18
:10164000405DCE010396FC01E20FF31F40830EC004
:101650008981282F332727FD30958A81482F495CBF
:10166000CE010396FC01E20FF31F40838B859C851E
:10167000AD85BE85689413F8B695A795979587951F
:101680001694D1F78B879C87AD87BE87898181505F
:101690008983898188233CF6198214C0898160E09E
:1016A0000E94E8098981282F332727FD3095CE0134
:1016B0000396FC01E20FF31F80810E9439088981A3
:1016C0008F5F8983898188304CF32E960FB6F8940A
:1016D000DEBF0FBECDBFCF91DF910895DF93CF93D3
:1016E00000D00F92CDB7DEB79B838A8319828A819F
:1016F0009B81009739F1EA81FB818081843050F031
:10170000EA81FB818181883028F0EA81FB81828136
:101710008830A8F4EA81FB818081EA81FB81918194
:10172000692F40E00E94370DEA81FB818081EA81C8
:10173000FB819281692F41E00E94370D05C081E055
:10174000898302C082E0898389810F900F900F9076
:10175000CF91DF910895DF93CF9300D00F92CDB753
:10176000DEB79B838A8319828A819B81009739F136
:10177000EA81FB818081843050F0EA81FB818181A4
:10178000883028F0EA81FB8182818830A8F4EA81E0
:10179000FB818081EA81FB819281692F40E00E9478
:1017A000370DEA81FB818081EA81FB819181692F7C
:1017B00041E00E94370D05C081E0898302C082E0CC
:1017C000898389810F900F900F90CF91DF910895B9
:1017D000DF93CF9300D00F92CDB7DEB79B838A8380
:1017E00019828A819B81009739F1EA81FB8180818E
:1017F000843050F0EA81FB818181883028F0EA81D1
:10180000FB8182818830A8F4EA81FB818081EA81B2
:10181000FB819281692F40E00E94370DEA81FB81B4
:101820008081EA81FB819181692F40E00E94370D20
:1018300005C081E0898302C082E0898389810F909D
:101840000F900F90CF91DF910895DF93CF93CDB795
:10185000DEB728970FB6F894DEBF0FBECDBF8A83E0
:101860006B834C8319828B81883008F0F4C08C81A3
:10187000882309F077C08A81282F30E038872F83AA
:101880008F8198858130910559F12F8138852230DB
:1018900031052CF48F819885009769F060C02F8105
:1018A00038852230310589F18F8198858330910503
:1018B00009F440C054C0AAE3B0E0EAE3F0E080815C
:1018C000482F8B81282F30E081E090E0022E02C06B
:1018D000880F991F0A94E2F7809584238C93BDC0EA
:1018E000A7E3B0E0E7E3F0E08081482F8B81282F69
:1018F00030E081E090E0022E02C0880F991F0A9428
:10190000E2F7809584238C93A8C0A4E3B0E0E4E3DD
:10191000F0E08081482F8B81282F30E081E090E03B
:10192000022E02C0880F991F0A94E2F78095842343
:101930008C9393C0A1E3B0E0E1E3F0E08081482F15
:101940008B81282F30E081E090E0022E02C0880FCA
:10195000991F0A94E2F7809584238C937EC081E0DE
:1019600089837BC08C81813009F072C08A81282FE5
:1019700030E03E832D838D819E818130910549F138
:101980002D813E81223031052CF48D819E8100977E
:1019900061F05BC02D813E812230310571F18D8176
:1019A0009E8183309105E9F150C0AAE3B0E0EAE3FB
:1019B000F0E08081482F8B81282F30E081E090E09B
:1019C000022E02C0880F991F0A94E2F7842B8C9391
:1019D00044C0A7E3B0E0E7E3F0E08081482F8B81CB
:1019E000282F30E081E090E0022E02C0880F991F7E
:1019F0000A94E2F7842B8C9330C0A4E3B0E0E4E3D4
:101A0000F0E08081482F8B81282F30E081E090E04A
:101A1000022E02C0880F991F0A94E2F7842B8C9340
:101A20001CC0A1E3B0E0E1E3F0E08081482F8B81AE
:101A3000282F30E081E090E0022E02C0880F991F2D
:101A40000A94E2F7842B8C9308C081E0898305C057
:101A500081E0898302C081E08983898128960FB65D
:101A6000F894DEBF0FBECDBFCF91DF910895DF9315
:101A7000CF93CDB7DEB728970FB6F894DEBF0FBE71
:101A8000CDBF8A836B834C8319828B81883008F0A9
:101A9000F4C08C81813009F072C08A81282F30E037
:101AA00038872F838F8198858130910549F12F8167
:101AB0003885223031052CF48F819885009761F0AC
:101AC0005BC02F8138852230310571F18F81988577
:101AD00083309105E9F150C0ABE3B0E0EBE3F0E017
:101AE0008081482F8B81282F30E081E090E0022E0A
:101AF00002C0880F991F0A94E2F7842B8C93BFC011
:101B0000A8E3B0E0E8E3F0E08081482F8B81282F44
:101B100030E081E090E0022E02C0880F991F0A9405
:101B2000E2F7842B8C93ABC0A5E3B0E0E5E3F0E0F3
:101B30008081482F8B81282F30E081E090E0022EB9
:101B400002C0880F991F0A94E2F7842B8C9397C0E8
:101B5000A2E3B0E0E2E3F0E08081482F8B81282F00
:101B600030E081E090E0022E02C0880F991F0A94B5
:101B7000E2F7842B8C9383C081E0898380C08C81C1
:101B8000882309F077C08A81282F30E03E832D8397
:101B90008D819E818130910559F12D813E812230C8
:101BA00031052CF48D819E81009769F060C02D81F4
:101BB0003E812230310589F18D819E8183309105EE
:101BC00009F440C054C0ABE3B0E0EBE3F0E0808147
:101BD000482F8B81282F30E081E090E0022E02C058
:101BE000880F991F0A94E2F7809584238C9347C04D
:101BF000A8E3B0E0E8E3F0E08081482F8B81282F54
:101C000030E081E090E0022E02C0880F991F0A9414
:101C1000E2F7809584238C9332C0A5E3B0E0E5E33E
:101C2000F0E08081482F8B81282F30E081E090E028
:101C3000022E02C0880F991F0A94E2F78095842330
:101C40008C931DC0A2E3B0E0E2E3F0E08081482F76
:101C50008B81282F30E081E090E0022E02C0880FB7
:101C6000991F0A94E2F7809584238C9308C081E041
:101C7000898305C081E0898302C081E089838981ED
:101C800028960FB6F894DEBF0FBECDBFCF91DF917F
:101C90000895DF93CF93CDB7DEB727970FB6F894AB
:101CA000DEBF0FBECDBF8A836B835D834C831982F9
:101CB0008C819D81009709F47BC08B81883008F06E
:101CC00074C08A81282F30E03F832E834E815F814C
:101CD0004130510559F18E819F818230910534F454
:101CE0002E813F812115310569F05CC04E815F81F5
:101CF0004230510579F18E819F818330910509F43D
:101D00003DC050C0E9E3F0E08081282F30E08B81B6
:101D1000882F90E0A90102C0559547958A95E2F772
:101D2000CA018170EC81FD81808344C0E6E3F0E06C
:101D30008081282F30E08B81882F90E0A90102C09C
:101D4000559547958A95E2F7CA018170EC81FD812E
:101D5000808330C0E3E3F0E08081282F30E08B8186
:101D6000882F90E0A90102C0559547958A95E2F722
:101D7000CA018170EC81FD8180831CC0E0E3F0E04A
:101D80008081282F30E08B81882F90E0A90102C04C
:101D9000559547958A95E2F7CA018170EC81FD81DE
:101DA000808308C081E0898305C081E0898302C007
:101DB00082E08983898127960FB6F894DEBF0FBE33
:101DC000CDBFCF91DF910895DF93CF9300D000D0A6
:101DD0000F92CDB7DEB78A836B8319828A81282F51
:101DE00030E03D832C838C819D8181309105D1F041
:101DF0002C813D81223031052CF48C819D8100970E
:101E000061F01FC02C813D812230310581F08C8131
:101E10009D818330910581F014C0EAE3F0E08B816D
:101E2000808311C0E7E3F0E08B8180830CC0E4E3A2
:101E3000F0E08B81808307C0E1E3F0E08B81808359
:101E400002C081E0898389810F900F900F900F90DD
:101E50000F90CF91DF910895DF93CF9300D000D002
:101E60000F92CDB7DEB78A836B8319828A81282FC0
:101E700030E03D832C838C819D8181309105D1F0B0
:101E80002C813D81223031052CF48C819D8100977D
:101E900061F01FC02C813D812230310581F08C81A1
:101EA0009D818330910581F014C0EBE3F0E08B81DC
:101EB000808311C0E8E3F0E08B8180830CC0E5E310
:101EC000F0E08B81808307C0E2E3F0E08B818083C8
:101ED00002C081E0898389810F900F900F900F904D
:101EE0000F90CF91DF910895DF93CF9300D000D072
:101EF00000D0CDB7DEB78B836C831A828C8188309B
:101F000008F01AC18B81282F30E03E832D834D814C
:101F10005E814130510509F455C08D819E8182302A
:101F2000910534F42D813E812115310571F001C1F7
:101F30004D815E814230510509F481C08D819E81C1
:101F40008330910509F4B8C0F4C0EBE3F0E0808180
:101F5000282F30E08C81882F90E0A90102C0559590
:101F600047958A95E2F7CA0181708983898181301A
:101F7000A9F4ABE3B0E0EBE3F0E08081482F8C8183
:101F8000282F30E081E090E0022E02C0880F991FD8
:101F90000A94E2F7809584238C93D0C0ABE3B0E041
:101FA000EBE3F0E08081482F8C81282F30E081E046
:101FB00090E0022E02C0880F991F0A94E2F7842B4A
:101FC0008C93BCC0E8E3F0E08081282F30E08C8166
:101FD000882F90E0A90102C0559547958A95E2F7B0
:101FE000CA018170898389818130A9F4A8E3B0E0B6
:101FF000E8E3F0E08081482F8C81282F30E081E0F9
:1020000090E0022E02C0880F991F0A94E2F7809593
:1020100084238C9393C0A8E3B0E0E8E3F0E08081F0
:10202000482F8C81282F30E081E090E0022E02C002
:10203000880F991F0A94E2F7842B8C937FC0E5E305
:10204000F0E08081282F30E08C81882F90E0A9017A
:1020500002C0559547958A95E2F7CA018170898338
:1020600089818130A9F4A5E3B0E0E5E3F0E0808167
:10207000482F8C81282F30E081E090E0022E02C0B2
:10208000880F991F0A94E2F7809584238C9356C099
:10209000A5E3B0E0E5E3F0E08081482F8C81282FB4
:1020A00030E081E090E0022E02C0880F991F0A9470
:1020B000E2F7842B8C9342C0E2E3F0E08081282F8A
:1020C00030E08C81882F90E0A90102C0559547959A
:1020D0008A95E2F7CA018170898389818130A9F4E8
:1020E000A2E3B0E0E2E3F0E08081482F8C81282F6A
:1020F00030E081E090E0022E02C0880F991F0A9420
:10210000E2F7809584238C9319C0A2E3B0E0E2E368
:10211000F0E08081482F8C81282F30E081E090E032
:10212000022E02C0880F991F0A94E2F7842B8C9329
:1021300005C081E08A8302C081E08A838A81269675
:102140000FB6F894DEBF0FBECDBFCF91DF910895DB
:10215000DF93CF93CDB7DEB7A5E5B0E0E5E5F0E0DE
:1021600080818E7F8C93A5E5B0E0E5E5F0E080818D
:1021700082608C93ABE5B0E0EBE5F0E080818064B9
:102180008C93A5E5B0E0E5E5F0E080818B7F8C9352
:10219000A5E5B0E0E5E5F0E0808188608C93ABE5F3
:1021A000B0E0EBE5F0E0808180688C93A4E5B0E0DE
:1021B000E4E5F0E080818F7B8C93ABE5B0E0EBE56C
:1021C000F0E0808180628C93CF91DF910895DF935E
:1021D000CF93CDB7DEB72B970FB6F894DEBF0FBE07
:1021E000CDBF8A836B8319828A81282F30E03B8799
:1021F0002A878A859B858130910509F46AC02A85E2
:102200003B852230310509F4C3C08A859B85009740
:1022100009F0E1C08B81282F30E039872887888535
:1022200099858230910529F128853985233031053A
:1022300034F4888599858130910561F047C02885FF
:1022400039852330310521F18885998584309105C0
:1022500071F13CC0A5E5B0E0E5E5F0E0808181608A
:102260008C93A5E5B0E0E5E5F0E0808182608C9399
:10227000B4C0A5E5B0E0E5E5F0E080818E7F8C9309
:10228000A5E5B0E0E5E5F0E0808182608C93A5C033
:10229000A5E5B0E0E5E5F0E080818E7F8C93A5E5D3
:1022A000B0E0E5E5F0E080818D7F8C9396C0A5E5F8
:1022B000B0E0E5E5F0E0808181608C93A5E5B0E0D9
:1022C000E5E5F0E080818D7F8C9387C081E0898394
:1022D00084C08B81282F30E03F832E838E819F81A5
:1022E0008230910529F12E813F812330310534F46C
:1022F0008E819F818130910561F047C02E813F81A1
:102300002330310521F18E819F818430910571F157
:102310003CC0A5E5B0E0E5E5F0E0808184608C9309
:10232000A5E5B0E0E5E5F0E0808188608C9355C0DC
:10233000A5E5B0E0E5E5F0E080818B7F8C93A5E535
:10234000B0E0E5E5F0E0808188608C9346C0A5E5CB
:10235000B0E0E5E5F0E080818B7F8C93A5E5B0E00F
:10236000E5E5F0E08081877F8C9337C0A5E5B0E09C
:10237000E5E5F0E0808184608C93A5E5B0E0E5E5DB
:10238000F0E08081877F8C9328C081E0898325C01D
:102390008B81282F30E03D832C838C819D8181307F
:1023A000910531F02C813D812230310549F010C07A
:1023B000A4E5B0E0E4E5F0E0808180648C930DC09A
:1023C000A4E5B0E0E4E5F0E080818F7B8C9305C06C
:1023D00081E0898302C081E0898389812B960FB6D1
:1023E000F894DEBF0FBECDBFCF91DF910895DF938C
:1023F000CF9300D000D0CDB7DEB78A8319828A810F
:10240000282F30E03C832B838B819C818130910588
:1024100089F02B813C8122303105A1F08B819C8198
:102420000097C1F4ABE5B0E0EBE5F0E080818064BB
:102430008C9312C0ABE5B0E0EBE5F0E08081806802
:102440008C930AC0ABE5B0E0EBE5F0E08081806200
:102450008C9302C081E0898389810F900F900F9047
:102460000F90CF91DF910895DF93CF9300D000D0EC
:10247000CDB7DEB78A8319828A81282F30E03C836A
:102480002B838B819C818130910589F02B813C814C
:1024900022303105A1F08B819C810097C1F4ABE51E
:1024A000B0E0EBE5F0E080818F7B8C9312C0ABE570
:1024B000B0E0EBE5F0E080818F778C930AC0ABE56C
:1024C000B0E0EBE5F0E080818F7D8C9302C081E08D
:1024D000898389810F900F900F900F90CF91DF919A
:1024E0000895DF93CF9300D000D0CDB7DEB78A83B5
:1024F0007C836B8319828B819C81009799F08A8100
:10250000833068F48A81882F90E0880F991FFC013E
:10251000EE53FF4F8B819C819183808305C081E0C6
:10252000898302C082E0898389810F900F900F9088
:102530000F90CF91DF9108951F920F920FB60F92D7
:1025400011242F933F934F935F936F937F938F93B8
:102550009F93AF93BF93EF93FF93DF93CF93CDB749
:10256000DEB78091C2009091C300009729F0E091FE
:10257000C200F091C3000995CF91DF91FF91EF91D7
:10258000BF91AF919F918F917F916F915F914F918B
:102590003F912F910F900FBE0F901F9018951F9293
:1025A0000F920FB60F9211242F933F934F935F9387
:1025B0006F937F938F939F93AF93BF93EF93FF930B
:1025C000DF93CF93CDB7DEB78091C4009091C50063
:1025D000009729F0E091C400F091C5000995CF91D2
:1025E000DF91FF91EF91BF91AF919F918F917F917B
:1025F0006F915F914F913F912F910F900FBE0F9070
:102600001F9018951F920F920FB60F9211242F93BF
:102610003F934F935F936F937F938F939F93AF936A
:10262000BF93EF93FF93DF93CF93CDB7DEB7809146
:10263000C6009091C700009729F0E091C600F09184
:10264000C7000995CF91DF91FF91EF91BF91AF91B5
:102650009F918F917F916F915F914F913F912F91BA
:102660000F900FBE0F901F901895DF93CF93CDB7AB
:10267000DEB77894CF91DF910895DF93CF93CDB7F4
:10268000DEB7F894CF91DF910895DF93CF9300D018
:1026900000D00F92CDB7DEB78FEF8B8319825EC06B
:1026A0008981882F90E0FC01EF54FF4F908183E0F7
:1026B000692F40E00E94370D1A823DC08A81882F21
:1026C00090E0FC01E355FF4F90819E012C5F3F4F4E
:1026D00083E0692FA9010E94490E8C81882341F56E
:1026E0008A81482F50E08981282F30E0CA01880F65
:1026F000991F880F991F820F931FFC01E356FF4F0C
:1027000080818B830FC08A81882F90E0FC01E35584
:10271000FF4F90819E012C5F3F4F83E0692FA901FD
:102720000E94490E8C81882371F38B818D831CC09C
:102730008A818F5F8A838A81843008F4BFCF898140
:10274000882F90E0FC01EF54FF4F908183E0692FC8
:1027500041E00E94370D89818F5F898389818430B0
:1027600008F49ECF8B818D838D810F900F900F90F9
:102770000F900F90CF91DF910895DF93CF93CDB756
:10278000DEB769970FB6F894DEBF0FBECDBF898F55
:102790001D821E821F8218861D861E861F86188A2D
:1027A0008FEF90E0A0E0B0E089879A87AB87BC8785
:1027B00088E893E1A0E0B0E0898B9A8BAB8BBC8B6F
:1027C0009E012D5F3F4F898DB9010E948E068B813E
:1027D0009C81CC01A0E0B0E08D8B9E8BAF8BB88F3D
:1027E000CE0105960E940A07DC01CB019A838983FA
:1027F00089819A8169960FB6F894DEBF0FBECDBF6E
:10280000CF91DF910895DF93CF9300D000D0CDB763
:10281000DEB78C839E012D5F3F4F8C81B9010E94F2
:102820008E068B81882F90E0A0E0B0E024EF31E0AD
:1028300040E050E0BC01CD010E94AF19DC01CB01AA
:10284000892F9A2FAB2FBB279A83898389819A81FD
:102850000F900F900F900F90CF91DF910895DF931D
:10286000CF93CDB7DEB7EAE3F0E087E08083E7E31C
:10287000F0E083EF8083E4E3F0E08FEF8083E1E337
:10288000F0E080EF8083EBE3F0E01082E8E3F0E03B
:1028900084E08083E5E3F0E01082E2E3F0E08FEF94
:1028A0008083CF91DF910895DF93CF9300D000D044
:1028B000CDB7DEB79B838A836C8319828A819B8123
:1028C000009709F445C08C818A3008F041C0EA8144
:1028D000FB8180818823D9F4EA81FB8121818C816D
:1028E000882F90E0FC01EB54FF4F8081982F90954A
:1028F000822F692F0E942C0FEA81FB818381EA815C
:10290000FB819481692F41E00E94370D23C0EA8149
:10291000FB8180818130C9F4EA81FB8121818C8136
:10292000882F90E0FC01EB54FF4F9081822F692F9C
:102930000E942C0FEA81FB818381EA81FB819481D3
:10294000692F40E00E94370D05C081E0898302C0F5
:1029500082E0898389810F900F900F900F90CF9123
:10296000DF910895DF93CF93CDB7DEB7CB56D0403C
:102970000FB6F894DEBF0FBECDBF0E942F140E9489
:1029800059080E944F060E9435130E94A81025EA9C
:1029900039E182E0B9010E947112CE01805B9F4F44
:1029A000A9969FAF8EAFA9978FEB90E0AB969FAFA4
:1029B0008EAFAB9793E0AC969FAFAC97AB96EEAD76
:1029C000FFADAB970080AB968EAD9FADAB970196F8
:1029D000AB969FAF8EAFAB97A996EEADFFADA99723
:1029E0000082A9968EAD9FADA9970196A9969FAF3B
:1029F0008EAFA997AC969FADAC979150AC969FAF18
:102A0000AC97AC96EFADAC97EE23C1F6FE01E25B5E
:102A1000FF4F1082FE01E35BFF4F1082FE01E45B7B
:102A2000FF4F1082FE01E55BFF4F1082FE01FF9613
:102A30008CE090E0A0E0B0E080839183A283B38338
:102A40008CE090E0A0E0B0E08BAF9CAFADAFBEAF4C
:102A500083E08EAB1DAA80E690E00E94F30880E040
:102A600090E0AAE7B4E489AB9AABABABBCAB69A985
:102A70007AA98BA99CA920E030E04AE755E40E949E
:102A80001F02DC01CB018DA79EA7AFA7B8AB6DA538
:102A90007EA58FA598A920E030E040E85FE30E9482
:102AA000250488232CF481E090E09CA78BA73FC0ED
:102AB0006DA57EA58FA598A920E03FEF4FE757E4CD
:102AC0000E94C50318164CF569A97AA98BA99CA97F
:102AD00020E030E040E251E40E941F02DC01CB0123
:102AE000BC01CD010E944900DC01CB019CA78BA752
:102AF0000FC080E991E09AA789A789A59AA50197B7
:102B0000F1F79AA789A78BA59CA501979CA78BA7EE
:102B10008BA59CA5009769F714C06DA57EA58FA510
:102B200098A90E944900DC01CB019CA78BA78BA52B
:102B30009CA598A78FA38FA198A50197F1F798A7B7
:102B40008FA38EA9882309F44AC3FE01ED5BFF4FD2
:102B50001082118212821382FE01E95BFF4F108204
:102B6000118212821382CE01805B9F4F0E94E80B7C
:102B700082E060E00E942C0F1092C800FE01E25B30
:102B8000FF4F1082FE01E45BFF4F108281E00E9444
:102B900019080E944513FE01E15BFF4F808389E61F
:102BA00090E00E94F30836C0FE01E15BFF4F808198
:102BB0008F3F51F10E9445138F3FE1F7FE01E15B2A
:102BC000FF4F8081882F90E0A0E0B0E0BC01CD01F4
:102BD0000E942609FE01E25BFF4F8081282F30E032
:102BE000CE018D5A9F4FDC01A20FB31FFE01E15BA6
:102BF000FF4F80818C93DE01A25BBF4FFE01E25B41
:102C0000FF4F80818F5F8C930E944513FE01E15B33
:102C1000FF4F8083FE01E15BFF4F8081853629F005
:102C20008091C800882309F4BFCF81E00E94190871
:102C30000E944513FE01E15BFF4F80838DE690E02B
:102C40000E94F3083CC0FE01E15BFF4F80818F3F93
:102C500081F10E9445138F3FE1F7FE01E15BFF4FD9
:102C60008081882F90E0A0E0B0E0BC01CD010E94FF
:102C70002609FE01E45BFF4F8081282F30E0CE0162
:102C8000835A9F4FDC01A20FB31FFE01E15BFF4F90
:102C900080818C93DE01A45BBF4FFE01E45BFF4F9C
:102CA00080818F5F8C930E944513FE01E15BFF4F93
:102CB00080830E944513FE01E15BFF4F8083FE018C
:102CC000E15BFF4F8081853629F08091C800882321
:102CD00009F4B9CF81E00E941908FE01E25BFF4FC1
:102CE0008081882379F0FE01ED5AFF4F8081FE013B
:102CF000E95BFF4F882F90E0A0E0B0E080839183F4
:102D0000A283B383FE01E35BFF4F81E0808336C083
:102D1000FE01E95BFF4F80819181A281B3812AE0AE
:102D200030E040E050E0BC01CD010E94AF19AB01A2
:102D3000BC01FE01E35BFF4F8081282F30E0CE0114
:102D40008D5A9F4FFC01E20FF31F8081882F90E086
:102D5000A0E0B0E0FE01E95BFF4F840F951FA61FC6
:102D6000B71F80839183A283B383DE01A35BBF4F30
:102D7000FE01E35BFF4F80818F5F8C93FE01E35B7D
:102D8000FF4FDE01A25BBF4F90818C91981708F432
:102D9000BFCFFE01E45BFF4F8081882379F0FE0105
:102DA000E35AFF4F8081FE01ED5BFF4F882F90E0DB
:102DB000A0E0B0E080839183A283B383FE01E55B52
:102DC000FF4F81E0808336C0FE01ED5BFF4F8081C5
:102DD0009181A281B3812AE030E040E050E0BC0163
:102DE000CD010E94AF19AB01BC01FE01E55BFF4FB5
:102DF0008081282F30E0CE01835A9F4FFC01E20FE3
:102E0000F31F8081882F90E0A0E0B0E0FE01ED5B31
:102E1000FF4F840F951FA61FB71F80839183A28346
:102E2000B383DE01A55BBF4FFE01E55BFF4F8081F1
:102E30008F5F8C93FE01E55BFF4FDE01A45BBF4F0C
:102E400090818C91981708F4BFCFA0C183E08EAB1E
:102E500083E00E9403149AAF89AF80E090E0A0E87D
:102E6000BFE38BA39CA3ADA3BEA36BA17CA18DA14B
:102E70009EA12BEA3AEA4AEA50E40E941F02DC01D2
:102E8000CB018F8F98A3A9A3BAA36F8D78A189A135
:102E90009AA120E030E040E85FE30E942504882307
:102EA0001CF481E08E8F91C06F8D78A189A19AA1C9
:102EB00020E030E04FE753E40E94C50318160CF001
:102EC0007BC06BA17CA18DA19EA120E030E04AE7F0
:102ED00054E40E941903DC01CB018A8F9B8FAC8FD5
:102EE000BD8F6A8D7B8D8C8D9D8D20E030E04AE713
:102EF00055E40E941F02DC01CB018E8B9F8BA88FB3
:102F0000B98F6E897F89888D998D20E030E040E807
:102F10005FE30E94250488232CF481E090E09D8BE0
:102F20008C8B3FC06E897F89888D998D20E03FEF23
:102F30004FE757E40E94C50318164CF56A8D7B8D48
:102F40008C8D9D8D20E030E040E251E40E941F0214
:102F5000DC01CB01BC01CD010E944900DC01CB01A9
:102F60009D8B8C8B0FC080E991E09B8B8A8B8A892B
:102F70009B890197F1F79B8B8A8B8C899D8901979F
:102F80009D8B8C8B8C899D89009769F724C06E89F5
:102F90007F89888D998D0E944900DC01CB019D8B32
:102FA0008C8B8C899D89998B888B888999890197CD
:102FB000F1F7998B888B0FC06F8D78A189A19AA1A9
:102FC0000E944900DC01CB018E8F8E8D8F878F850B
:102FD0008A95F1F78F8784E00E94BD1398AF8FAB7D
:102FE00080E060E00E94E80989AD9AADCC01A0E0E4
:102FF000B0E0BC01CD010E94260983E790E00E9469
:10300000F30880E061E00E94E8098FA998ADCC0147
:10301000A0E0B0E0BC01CD010E94260986E790E067
:103020000E94F30889AD9AAD8332910560F0CE011C
:10303000805B9F4F0E946E0B8FE060E00E94E8096A
:103040008DE40E94390889AD9AAD8E31910560F406
:10305000CE01805B9F4F0E94E80B8FE060E00E94F2
:10306000E80980E20E9439088FA998ADF2E0813723
:103070009F0728F482E060E00E942C0F87C08FA990
:1030800098AD22E08137920758F08FA998ADE4E01F
:10309000823E9E0728F482E061E00E942C0F76C0F9
:1030A0008FA998ADF4E0823E9F0758F08FA998ADA4
:1030B00027E08335920728F482E063E00E942C0F1A
:1030C00065C08FA998ADE7E083359E0758F08FA9BA
:1030D00098ADF9E0843C9F0728F482E067E00E9405
:1030E0002C0F54C08FA998AD29E0843C920758F06A
:1030F0008FA998ADECE085339E0728F482E06FE05D
:103100000E942C0F43C08FA998ADFCE085339F0728
:1031100058F08FA998AD2EE0863A920728F482E005
:103120006FE10E942C0F32C08FA998ADEEE0863A75
:103130009E0758F08FA998ADF1E187319F0728F4D9
:1031400082E06FE30E942C0F21C08FA998AD21E18E
:103150008731920758F08FA998ADE1E184399E0735
:1031600028F482E06FE70E942C0F10C08FA998AD61
:10317000F1E184399F0750F08FA998AD23E1883899
:10318000920720F482E06FEF0E942C0FFE01ED5BAE
:10319000FF4F20813181428153818BAD9CADADAD1C
:1031A000BEAD281739074A075B0741F5FE01E95B09
:1031B000FF4FDE01DF9620813181428153818D9165
:1031C0009D910D90BC91A02D281739074A075B07E8
:1031D000A9F48091C800882309F438CE0FC08EA9C5
:1031E000882361F48DA9882349F481E08DAB81E0C7
:1031F0000E9419088AE790E00E94F308FE01ED5B47
:10320000FF4F20813181428153818BAD9CADADADAB
:10321000BEAD281739074A075B07A1F4FE01E95B39
:10322000FF4FDE01DF9620813181428153818D91F4
:103230009D910D90BC91A02D281739074A075B0777
:1032400009F47FCC8EA9882309F47BCC8091C80037
:10325000882309F076CC8AE890E00E94F30880E0A9
:1032600090E0AAE7B4E48B879C87AD87BE876B8527
:103270007C858D859E8520E030E04AE755E40E94FC
:103280001F02DC01CB018F839887A987BA876F81E2
:10329000788589859A8520E030E040E85FE30E94E8
:1032A000250488232CF481E090E09E838D833FC029
:1032B0006F81788589859A8520E03FEF4FE757E455
:1032C0000E94C50318164CF56B857C858D859E85FF
:1032D00020E030E040E251E40E941F02DC01CB011B
:1032E000BC01CD010E944900DC01CB019E838D838E
:1032F0000FC080E991E09C838B838B819C81019737
:10330000F1F79C838B838D819E8101979E838D83B2
:103310008D819E81009769F714C06F8178858985BA
:103320009A850E944900DC01CB019E838D838D81AB
:103330009E819A83898389819A810197F1F79A8383
:1033400089838EA981508EABFCCBDF93CF93CDB711
:10335000DEB781E08093C800CF91DF910895629F2E
:10336000D001739FF001829FE00DF11D649FE00D7D
:10337000F11D929FF00D839FF00D749FF00D659FDE
:10338000F00D9927729FB00DE11DF91F639FB00DDD
:10339000E11DF91FBD01CF011124089597FB092EEE
:1033A00005260ED057FD04D014D00AD0001C38F4E6
:1033B00050954095309521953F4F4F4F5F4F089561
:1033C000F6F790958095709561957F4F8F4F9F4F41
:1033D0000895A1E21A2EAA1BBB1BFD010DC0AA1F56
:1033E000BB1FEE1FFF1FA217B307E407F50720F06E
:1033F000A21BB30BE40BF50B661F771F881F991FE9
:103400001A9469F760957095809590959B01AC0131
:10341000BD01CF0108952F923F924F925F926F921C
:103420007F928F929F92AF92BF92CF92DF92EF9254
:10343000FF920F931F93CF93DF93CDB7DEB7CA1BD5
:10344000DB0B0FB6F894DEBF0FBECDBF09942A8800
:10345000398848885F846E847D848C849B84AA84A8
:10346000B984C884DF80EE80FD800C811B81AA8135
:10347000B981CE0FD11D0FB6F894DEBF0FBECDBF00
:08348000ED010895F894FFCF5F
:1034880057454C434F4D45210049443A005061731C
:10349800733A002020002020200053797374656D52
:1034A80020426C6F636B6564210077726F6E6720D2
:1034B8005061737300000000000000000007080955
:1034C800FF040506FF010203FF6500FFFF0001027C
:1034D80003040506073F065B4F666D7D077F6F0196
:0234E8000001E1
:00000001FF
